{
    "contractName": "ExternalStorage",
    "abi": [
        {
            "constant": true,
            "inputs": [
                {
                    "name": "",
                    "type": "address"
                }
            ],
            "name": "isUserListed",
            "outputs": [
                {
                    "name": "",
                    "type": "bool"
                }
            ],
            "payable": false,
            "stateMutability": "view",
            "type": "function"
        },
        {
            "constant": true,
            "inputs": [
                {
                    "name": "",
                    "type": "address"
                }
            ],
            "name": "isAdmin",
            "outputs": [
                {
                    "name": "",
                    "type": "bool"
                }
            ],
            "payable": false,
            "stateMutability": "view",
            "type": "function"
        },
        {
            "constant": true,
            "inputs": [
                {
                    "name": "",
                    "type": "address"
                }
            ],
            "name": "isAuthorizer",
            "outputs": [
                {
                    "name": "",
                    "type": "bool"
                }
            ],
            "payable": false,
            "stateMutability": "view",
            "type": "function"
        },
        {
            "constant": true,
            "inputs": [
                {
                    "name": "",
                    "type": "address"
                }
            ],
            "name": "isBlackListed",
            "outputs": [
                {
                    "name": "",
                    "type": "bool"
                }
            ],
            "payable": false,
            "stateMutability": "view",
            "type": "function"
        },
        {
            "anonymous": false,
            "inputs": [
                {
                    "indexed": true,
                    "name": "Admin",
                    "type": "address"
                }
            ],
            "name": "AdminAdded",
            "type": "event"
        },
        {
            "anonymous": false,
            "inputs": [
                {
                    "indexed": true,
                    "name": "Admin",
                    "type": "address"
                }
            ],
            "name": "AdminRemoved",
            "type": "event"
        },
        {
            "anonymous": false,
            "inputs": [
                {
                    "indexed": true,
                    "name": "Authorizer",
                    "type": "address"
                }
            ],
            "name": "AuthorizerAdded",
            "type": "event"
        },
        {
            "anonymous": false,
            "inputs": [
                {
                    "indexed": true,
                    "name": "Authorizer",
                    "type": "address"
                }
            ],
            "name": "AuthorizerRemoved",
            "type": "event"
        },
        {
            "anonymous": false,
            "inputs": [
                {
                    "indexed": true,
                    "name": "User",
                    "type": "address"
                }
            ],
            "name": "SetUserListEvent",
            "type": "event"
        },
        {
            "anonymous": false,
            "inputs": [
                {
                    "indexed": true,
                    "name": "User",
                    "type": "address"
                }
            ],
            "name": "RemovedUserList",
            "type": "event"
        },
        {
            "anonymous": false,
            "inputs": [
                {
                    "indexed": true,
                    "name": "EvilUser",
                    "type": "address"
                }
            ],
            "name": "SetBlackListEvent",
            "type": "event"
        },
        {
            "anonymous": false,
            "inputs": [
                {
                    "indexed": true,
                    "name": "RedeemedUser",
                    "type": "address"
                }
            ],
            "name": "RemoveUserBlackList",
            "type": "event"
        }
    ],
    "bytecode": "608060405234801561001057600080fd5b506101fa806100206000396000f3fe6080604052600436106100615763ffffffff7c0100000000000000000000000000000000000000000000000000000000600035041663091c18aa811461006657806324d7806c146100ba57806346e7ccac146100fa578063e47d60601461013a575b600080fd5b34801561007257600080fd5b506100a66004803603602081101561008957600080fd5b503573ffffffffffffffffffffffffffffffffffffffff1661017a565b604080519115158252519081900360200190f35b3480156100c657600080fd5b506100a6600480360360208110156100dd57600080fd5b503573ffffffffffffffffffffffffffffffffffffffff1661018f565b34801561010657600080fd5b506100a66004803603602081101561011d57600080fd5b503573ffffffffffffffffffffffffffffffffffffffff166101a4565b34801561014657600080fd5b506100a66004803603602081101561015d57600080fd5b503573ffffffffffffffffffffffffffffffffffffffff166101b9565b60426020526000908152604090205460ff1681565b60406020819052600091825290205460ff1681565b60416020526000908152604090205460ff1681565b60436020526000908152604090205460ff168156fea165627a7a72305820276e38243fb666a4d57f315e85ac8299cbbdbd81b0b371a667e1360ba7e1bcf70029",
    "sourcePath": "/Users/charlesokaformbah/Projects/Aeropaye-token/aeropaye-backend/contracts/ExternalStorage.sol",
    "compiler": {
        "name": "solc",
        "version": "0.5.0+commit.1d4f565a"
    },
    "functionHashes": {
        "isAdmin(address)": "24d7806c",
        "isAuthorizer(address)": "46e7ccac",
        "isBlackListed(address)": "e47d6060",
        "isUserListed(address)": "091c18aa"
    },
    "gasEstimates": {
        "creation": {
            "codeDepositCost": "101200",
            "executionCost": "147",
            "totalCost": "101347"
        },
        "external": {
            "isAdmin(address)": "535",
            "isAuthorizer(address)": "554",
            "isBlackListed(address)": "576",
            "isUserListed(address)": "510"
        }
    }
}