{
  "contractName": "Aeropaye",
  "abi": [
    {
      "inputs": [
        {
          "internalType": "address",
          "name": "_tokenAddress",
          "type": "address"
        },
        {
          "internalType": "address",
          "name": "_opAddress",
          "type": "address"
        }
      ],
      "stateMutability": "nonpayable",
      "type": "constructor"
    },
    {
      "anonymous": false,
      "inputs": [
        {
          "indexed": true,
          "internalType": "contract Escrow",
          "name": "_flightEscrow",
          "type": "address"
        },
        {
          "indexed": true,
          "internalType": "address",
          "name": "_airline",
          "type": "address"
        },
        {
          "indexed": false,
          "internalType": "uint256",
          "name": "escrowbalance",
          "type": "uint256"
        },
        {
          "indexed": false,
          "internalType": "uint256",
          "name": "passengerCount",
          "type": "uint256"
        },
        {
          "indexed": false,
          "internalType": "uint256",
          "name": "claimedBookingFee",
          "type": "uint256"
        }
      ],
      "name": "BookingFeeClaimed",
      "type": "event"
    },
    {
      "anonymous": false,
      "inputs": [
        {
          "indexed": true,
          "internalType": "address",
          "name": "OwnerAddr",
          "type": "address"
        },
        {
          "indexed": false,
          "internalType": "uint256",
          "name": "AssetID",
          "type": "uint256"
        }
      ],
      "name": "BurntAsset",
      "type": "event"
    },
    {
      "anonymous": false,
      "inputs": [
        {
          "indexed": true,
          "internalType": "address",
          "name": "PassengerAddr",
          "type": "address"
        },
        {
          "indexed": true,
          "internalType": "contract Escrow",
          "name": "EscrowContract",
          "type": "address"
        }
      ],
      "name": "CancelledBooking",
      "type": "event"
    },
    {
      "anonymous": false,
      "inputs": [
        {
          "indexed": true,
          "internalType": "address",
          "name": "AirlineAddr",
          "type": "address"
        },
        {
          "indexed": true,
          "internalType": "contract Escrow",
          "name": "EscrowContract",
          "type": "address"
        }
      ],
      "name": "CompletedEscrowFlight",
      "type": "event"
    },
    {
      "anonymous": false,
      "inputs": [
        {
          "indexed": true,
          "internalType": "address",
          "name": "AirlineAddr",
          "type": "address"
        },
        {
          "indexed": true,
          "internalType": "contract Escrow",
          "name": "EscrowContract",
          "type": "address"
        }
      ],
      "name": "EscrowCreated",
      "type": "event"
    },
    {
      "anonymous": false,
      "inputs": [
        {
          "indexed": true,
          "internalType": "address",
          "name": "BookedBy",
          "type": "address"
        },
        {
          "indexed": true,
          "internalType": "address",
          "name": "PassengerAddr",
          "type": "address"
        },
        {
          "indexed": true,
          "internalType": "address",
          "name": "EscrowContract",
          "type": "address"
        }
      ],
      "name": "EscrowPassengerAdded",
      "type": "event"
    },
    {
      "anonymous": false,
      "inputs": [
        {
          "indexed": true,
          "internalType": "address",
          "name": "AirlineAddr",
          "type": "address"
        },
        {
          "indexed": true,
          "internalType": "address",
          "name": "PassengerAddr",
          "type": "address"
        },
        {
          "indexed": true,
          "internalType": "contract Escrow",
          "name": "EscrowContract",
          "type": "address"
        }
      ],
      "name": "EscrowPassengerRemoved",
      "type": "event"
    },
    {
      "anonymous": false,
      "inputs": [
        {
          "indexed": true,
          "internalType": "address",
          "name": "PassengerAddr",
          "type": "address"
        },
        {
          "indexed": true,
          "internalType": "contract Escrow",
          "name": "EscrowContract",
          "type": "address"
        },
        {
          "indexed": true,
          "internalType": "uint256",
          "name": "AmountClaimed",
          "type": "uint256"
        }
      ],
      "name": "PassengerClaimed",
      "type": "event"
    },
    {
      "anonymous": false,
      "inputs": [],
      "name": "Pause",
      "type": "event"
    },
    {
      "anonymous": false,
      "inputs": [],
      "name": "Unpause",
      "type": "event"
    },
    {
      "anonymous": false,
      "inputs": [
        {
          "indexed": true,
          "internalType": "address",
          "name": "PassengerAddr",
          "type": "address"
        },
        {
          "indexed": false,
          "internalType": "uint256",
          "name": "_amount",
          "type": "uint256"
        },
        {
          "indexed": true,
          "internalType": "address",
          "name": "EscrowContract",
          "type": "address"
        }
      ],
      "name": "transferedToEscrow",
      "type": "event"
    },
    {
      "inputs": [
        {
          "internalType": "contract Escrow",
          "name": "_flightEscrow",
          "type": "address"
        },
        {
          "internalType": "uint256",
          "name": "_keyId",
          "type": "uint256"
        }
      ],
      "name": "cancelBooking",
      "outputs": [
        {
          "internalType": "bool",
          "name": "",
          "type": "bool"
        }
      ],
      "stateMutability": "nonpayable",
      "type": "function"
    },
    {
      "inputs": [
        {
          "internalType": "contract Escrow",
          "name": "_flightEscrow",
          "type": "address"
        },
        {
          "internalType": "uint256",
          "name": "_keyId",
          "type": "uint256"
        }
      ],
      "name": "checkIn",
      "outputs": [
        {
          "internalType": "bool",
          "name": "",
          "type": "bool"
        }
      ],
      "stateMutability": "nonpayable",
      "type": "function"
    },
    {
      "inputs": [
        {
          "internalType": "address",
          "name": "_address",
          "type": "address"
        }
      ],
      "name": "isOwner",
      "outputs": [
        {
          "internalType": "bool",
          "name": "",
          "type": "bool"
        }
      ],
      "stateMutability": "view",
      "type": "function",
      "constant": true
    },
    {
      "inputs": [],
      "name": "owner",
      "outputs": [
        {
          "internalType": "address",
          "name": "",
          "type": "address"
        }
      ],
      "stateMutability": "view",
      "type": "function",
      "constant": true
    },
    {
      "inputs": [],
      "name": "pause",
      "outputs": [],
      "stateMutability": "nonpayable",
      "type": "function"
    },
    {
      "inputs": [],
      "name": "paused",
      "outputs": [
        {
          "internalType": "bool",
          "name": "",
          "type": "bool"
        }
      ],
      "stateMutability": "view",
      "type": "function",
      "constant": true
    },
    {
      "inputs": [
        {
          "internalType": "contract Escrow",
          "name": "_flightEscrow",
          "type": "address"
        },
        {
          "internalType": "address",
          "name": "_airline",
          "type": "address"
        },
        {
          "internalType": "address",
          "name": "_passenger",
          "type": "address"
        },
        {
          "internalType": "uint256",
          "name": "_amount",
          "type": "uint256"
        },
        {
          "internalType": "string",
          "name": "_flightClassPassenger",
          "type": "string"
        },
        {
          "internalType": "uint32",
          "name": "_flightStatusPassenger",
          "type": "uint32"
        },
        {
          "internalType": "string",
          "name": "_flightSeatPassenger",
          "type": "string"
        }
      ],
      "name": "transferToEscrow",
      "outputs": [
        {
          "internalType": "bool",
          "name": "",
          "type": "bool"
        }
      ],
      "stateMutability": "nonpayable",
      "type": "function"
    },
    {
      "inputs": [],
      "name": "unpause",
      "outputs": [],
      "stateMutability": "nonpayable",
      "type": "function"
    },
    {
      "inputs": [
        {
          "internalType": "address",
          "name": "_airline",
          "type": "address"
        },
        {
          "internalType": "string",
          "name": "_flightCode",
          "type": "string"
        },
        {
          "internalType": "string",
          "name": "_flightDeparture",
          "type": "string"
        },
        {
          "internalType": "string",
          "name": "_flightArrival",
          "type": "string"
        },
        {
          "internalType": "string",
          "name": "_flightTime",
          "type": "string"
        }
      ],
      "name": "escrowCreation",
      "outputs": [
        {
          "internalType": "address",
          "name": "",
          "type": "address"
        }
      ],
      "stateMutability": "nonpayable",
      "type": "function"
    },
    {
      "inputs": [
        {
          "internalType": "contract Escrow",
          "name": "_flightEscrow",
          "type": "address"
        },
        {
          "internalType": "uint32",
          "name": "_escrowKey",
          "type": "uint32"
        }
      ],
      "name": "airlineClaimBookingFee",
      "outputs": [
        {
          "internalType": "bool",
          "name": "",
          "type": "bool"
        }
      ],
      "stateMutability": "nonpayable",
      "type": "function"
    },
    {
      "inputs": [
        {
          "internalType": "contract Escrow",
          "name": "_flightEscrow",
          "type": "address"
        },
        {
          "internalType": "uint32",
          "name": "_escrowKey",
          "type": "uint32"
        }
      ],
      "name": "airlineClaimFlightFee",
      "outputs": [
        {
          "internalType": "bool",
          "name": "",
          "type": "bool"
        }
      ],
      "stateMutability": "nonpayable",
      "type": "function"
    },
    {
      "inputs": [
        {
          "internalType": "contract Escrow",
          "name": "_flightEscrow",
          "type": "address"
        },
        {
          "internalType": "uint32",
          "name": "_escrowKey",
          "type": "uint32"
        },
        {
          "internalType": "uint32",
          "name": "_flightStatus",
          "type": "uint32"
        }
      ],
      "name": "updateFlightStatus",
      "outputs": [
        {
          "internalType": "bool",
          "name": "",
          "type": "bool"
        }
      ],
      "stateMutability": "nonpayable",
      "type": "function"
    },
    {
      "inputs": [
        {
          "internalType": "address",
          "name": "_airline",
          "type": "address"
        }
      ],
      "name": "getFlightEscrows",
      "outputs": [
        {
          "internalType": "contract Escrow[]",
          "name": "",
          "type": "address[]"
        }
      ],
      "stateMutability": "view",
      "type": "function",
      "constant": true
    }
  ],
  "bytecode": "0x608060405260008060146101000a81548160ff0219169083151502179055503480156200002b57600080fd5b50604051620061d5380380620061d5833981810160405281019062000051919062000222565b818162000063620001b060201b60201c565b6000806101000a81548173ffffffffffffffffffffffffffffffffffffffff021916908373ffffffffffffffffffffffffffffffffffffffff16021790555081600160006101000a81548173ffffffffffffffffffffffffffffffffffffffff021916908373ffffffffffffffffffffffffffffffffffffffff16021790555080600260006101000a81548173ffffffffffffffffffffffffffffffffffffffff021916908373ffffffffffffffffffffffffffffffffffffffff160217905550505081600160006101000a81548173ffffffffffffffffffffffffffffffffffffffff021916908373ffffffffffffffffffffffffffffffffffffffff16021790555080600260006101000a81548173ffffffffffffffffffffffffffffffffffffffff021916908373ffffffffffffffffffffffffffffffffffffffff160217905550505062000269565b600033905090565b600080fd5b600073ffffffffffffffffffffffffffffffffffffffff82169050919050565b6000620001ea82620001bd565b9050919050565b620001fc81620001dd565b81146200020857600080fd5b50565b6000815190506200021c81620001f1565b92915050565b600080604083850312156200023c576200023b620001b8565b5b60006200024c858286016200020b565b92505060206200025f858286016200020b565b9150509250929050565b615f5c80620002796000396000f3fe60806040523480156200001157600080fd5b5060043610620000e25760003560e01c80637dae3b9211620000995780638e049c53116200006f5780638e049c531462000251578063ca59e0111462000287578063cb907ddd14620002bd578063fe6d4bdc14620002f357620000e2565b80637dae3b9214620001ed5780638456cb5914620002235780638da5cb5b146200022f57620000e2565b80630e0727c514620000e75780632e66c69a146200011d5780632f54bf6e14620001535780633f4ba83a14620001895780635c975abb14620001955780636679953914620001b7575b600080fd5b620001056004803603810190620000ff9190620031e1565b62000329565b60405162000114919062003245565b60405180910390f35b6200013b60048036038101906200013591906200329d565b620007a0565b6040516200014a919062003245565b60405180910390f35b6200017160048036038101906200016b919062003315565b62000ce8565b60405162000180919062003245565b60405180910390f35b6200019362000d41565b005b6200019f62000e00565b604051620001ae919062003245565b60405180910390f35b620001d56004803603810190620001cf919062003315565b62000e13565b604051620001e491906200346f565b60405180910390f35b6200020b600480360381019062000205919062003493565b62000ee5565b6040516200021a919062003245565b60405180910390f35b6200022d62001186565b005b6200023962001247565b60405162000248919062003500565b60405180910390f35b6200026f60048036038101906200026991906200329d565b6200126b565b6040516200027e919062003245565b60405180910390f35b620002a560048036038101906200029f91906200367f565b620018c4565b604051620002b4919062003245565b60405180910390f35b620002db6004803603810190620002d5919062003770565b62001d31565b604051620002ea919062003500565b60405180910390f35b6200031160048036038101906200030b9190620031e1565b620022d7565b60405162000320919062003245565b60405180910390f35b60008163ffffffff16838073ffffffffffffffffffffffffffffffffffffffff166007600062000358620025fd565b73ffffffffffffffffffffffffffffffffffffffff1673ffffffffffffffffffffffffffffffffffffffff1681526020019081526020016000206000018381548110620003aa57620003a962003874565b5b9060005260206000200160009054906101000a900473ffffffffffffffffffffffffffffffffffffffff1673ffffffffffffffffffffffffffffffffffffffff1614620003f657600080fd5b6000600160009054906101000a900473ffffffffffffffffffffffffffffffffffffffff1673ffffffffffffffffffffffffffffffffffffffff1663dd62ed3e8762000441620025fd565b6040518363ffffffff1660e01b815260040162000460929190620038a3565b602060405180830381865afa1580156200047e573d6000803e3d6000fd5b505050506040513d601f19601f82011682018060405250810190620004a49190620038e7565b1415620004e8576040517f08c379a0000000000000000000000000000000000000000000000000000000008152600401620004df90620039a0565b60405180910390fd5b6001600860008773ffffffffffffffffffffffffffffffffffffffff1673ffffffffffffffffffffffffffffffffffffffff16815260200190815260200160002060008282546200053a9190620039f1565b925050819055506000600160009054906101000a900473ffffffffffffffffffffffffffffffffffffffff1673ffffffffffffffffffffffffffffffffffffffff166370a08231876040518263ffffffff1660e01b8152600401620005a0919062003500565b602060405180830381865afa158015620005be573d6000803e3d6000fd5b505050506040513d601f19601f82011682018060405250810190620005e49190620038e7565b90506000600560008873ffffffffffffffffffffffffffffffffffffffff1673ffffffffffffffffffffffffffffffffffffffff1681526020019081526020016000205490506000600860008973ffffffffffffffffffffffffffffffffffffffff1673ffffffffffffffffffffffffffffffffffffffff168152602001908152602001600020549050600160009054906101000a900473ffffffffffffffffffffffffffffffffffffffff1673ffffffffffffffffffffffffffffffffffffffff1663dae917ca89620006b7620025fd565b6040518363ffffffff1660e01b8152600401620006d6929190620038a3565b6020604051808303816000875af1158015620006f6573d6000803e3d6000fd5b505050506040513d601f19601f820116820180604052508101906200071c919062003a7f565b5062000727620025fd565b73ffffffffffffffffffffffffffffffffffffffff168873ffffffffffffffffffffffffffffffffffffffff167fc90c847844b763e0918c2c57e6f4e1c714127369f4793a85214faeae151f40af858585604051620007899392919062003ac2565b60405180910390a360019550505050505092915050565b60008060149054906101000a900460ff1615620007f4576040517f08c379a0000000000000000000000000000000000000000000000000000000008152600401620007eb9062003b4f565b60405180910390fd5b82620007ff620025fd565b838273ffffffffffffffffffffffffffffffffffffffff16600260009054906101000a900473ffffffffffffffffffffffffffffffffffffffff1673ffffffffffffffffffffffffffffffffffffffff1663851afcc48585856040518463ffffffff1660e01b8152600401620008789392919062003b71565b600060405180830381865afa15801562000896573d6000803e3d6000fd5b505050506040513d6000823e3d601f19601f82011682018060405250810190620008c1919062003db8565b6000015173ffffffffffffffffffffffffffffffffffffffff16146200091e576040517f08c379a0000000000000000000000000000000000000000000000000000000008152600401620009159062003e59565b60405180910390fd5b856002600481111562000936576200093562003e7b565b5b60048111156200094b576200094a62003e7b565b5b63ffffffff168173ffffffffffffffffffffffffffffffffffffffff1663c845c0c26040518163ffffffff1660e01b8152600401600060405180830381865afa1580156200099d573d6000803e3d6000fd5b505050506040513d6000823e3d601f19601f82011682018060405250810190620009c891906200404c565b60c0015163ffffffff1614158062000a91575060036004811115620009f257620009f162003e7b565b5b600481111562000a075762000a0662003e7b565b5b63ffffffff168173ffffffffffffffffffffffffffffffffffffffff1663c845c0c26040518163ffffffff1660e01b8152600401600060405180830381865afa15801562000a59573d6000803e3d6000fd5b505050506040513d6000823e3d601f19601f8201168201806040525081019062000a8491906200404c565b60c0015163ffffffff1614155b62000ad3576040517f08c379a000000000000000000000000000000000000000000000000000000000815260040162000aca90620040ed565b60405180910390fd5b600087905060048081111562000aee5762000aed62003e7b565b5b600481111562000b035762000b0262003e7b565b5b600260009054906101000a900473ffffffffffffffffffffffffffffffffffffffff1673ffffffffffffffffffffffffffffffffffffffff1663851afcc48362000b4c620025fd565b8b6040518463ffffffff1660e01b815260040162000b6d9392919062003b71565b600060405180830381865afa15801562000b8b573d6000803e3d6000fd5b505050506040513d6000823e3d601f19601f8201168201806040525081019062000bb6919062003db8565b60a00151141562000bc657600080fd5b600260009054906101000a900473ffffffffffffffffffffffffffffffffffffffff1673ffffffffffffffffffffffffffffffffffffffff16631463b9c58262000c0f620025fd565b8a6040518463ffffffff1660e01b815260040162000c309392919062003b71565b6020604051808303816000875af115801562000c50573d6000803e3d6000fd5b505050506040513d601f19601f8201168201806040525081019062000c76919062003a7f565b62000c8057600080fd5b6001600660008373ffffffffffffffffffffffffffffffffffffffff1673ffffffffffffffffffffffffffffffffffffffff168152602001908152602001600020600082825462000cd29190620039f1565b9250508190555060019550505050505092915050565b60008060009054906101000a900473ffffffffffffffffffffffffffffffffffffffff1673ffffffffffffffffffffffffffffffffffffffff168273ffffffffffffffffffffffffffffffffffffffff16149050919050565b6001151562000d5962000d53620025fd565b62000ce8565b15151462000d6657600080fd5b600060149054906101000a900460ff1662000db8576040517f08c379a000000000000000000000000000000000000000000000000000000000815260040162000daf906200415f565b60405180910390fd5b60008060146101000a81548160ff0219169083151502179055507f7805862f689e2f13df9f062ff482ad3ad112aca9e0847911ed832e158c525b3360405160405180910390a1565b600060149054906101000a900460ff1681565b6060600760008373ffffffffffffffffffffffffffffffffffffffff1673ffffffffffffffffffffffffffffffffffffffff16815260200190815260200160002060000180548060200260200160405190810160405280929190818152602001828054801562000ed957602002820191906000526020600020905b8160009054906101000a900473ffffffffffffffffffffffffffffffffffffffff1673ffffffffffffffffffffffffffffffffffffffff168152602001906001019080831162000e8e575b50505050509050919050565b60008263ffffffff16848073ffffffffffffffffffffffffffffffffffffffff166007600062000f14620025fd565b73ffffffffffffffffffffffffffffffffffffffff1673ffffffffffffffffffffffffffffffffffffffff168152602001908152602001600020600001838154811062000f665762000f6562003874565b5b9060005260206000200160009054906101000a900473ffffffffffffffffffffffffffffffffffffffff1673ffffffffffffffffffffffffffffffffffffffff161462000fb257600080fd5b6003600481111562000fc95762000fc862003e7b565b5b63ffffffff168673ffffffffffffffffffffffffffffffffffffffff1663c845c0c26040518163ffffffff1660e01b8152600401600060405180830381865afa1580156200101b573d6000803e3d6000fd5b505050506040513d6000823e3d601f19601f820116820180604052508101906200104691906200404c565b60c0015163ffffffff16141562001094576040517f08c379a00000000000000000000000000000000000000000000000000000000081526004016200108b90620041d1565b60405180910390fd5b8573ffffffffffffffffffffffffffffffffffffffff1663934e39dd856040518263ffffffff1660e01b8152600401620010cf919062004204565b6020604051808303816000875af1158015620010ef573d6000803e3d6000fd5b505050506040513d601f19601f8201168201806040525081019062001115919062003a7f565b508573ffffffffffffffffffffffffffffffffffffffff1662001137620025fd565b73ffffffffffffffffffffffffffffffffffffffff167f995ea0ceeecd8a86d48d88df19d00d19b25db329612dad78c1ecab554c23b3c560405160405180910390a36001925050509392505050565b600115156200119e62001198620025fd565b62000ce8565b151514620011ab57600080fd5b600060149054906101000a900460ff1615620011fe576040517f08c379a0000000000000000000000000000000000000000000000000000000008152600401620011f59062003b4f565b60405180910390fd5b6001600060146101000a81548160ff0219169083151502179055507f6985a02210a168e66602d3235cb6db0e70f92b3ba4d376a33c0f3d9434bff62560405160405180910390a1565b60008054906101000a900473ffffffffffffffffffffffffffffffffffffffff1681565b60008262001278620025fd565b838273ffffffffffffffffffffffffffffffffffffffff16600260009054906101000a900473ffffffffffffffffffffffffffffffffffffffff1673ffffffffffffffffffffffffffffffffffffffff1663851afcc48585856040518463ffffffff1660e01b8152600401620012f19392919062003b71565b600060405180830381865afa1580156200130f573d6000803e3d6000fd5b505050506040513d6000823e3d601f19601f820116820180604052508101906200133a919062003db8565b6000015173ffffffffffffffffffffffffffffffffffffffff161462001397576040517f08c379a00000000000000000000000000000000000000000000000000000000081526004016200138e9062003e59565b60405180910390fd5b85620013a2620025fd565b863373ffffffffffffffffffffffffffffffffffffffff16600260009054906101000a900473ffffffffffffffffffffffffffffffffffffffff1673ffffffffffffffffffffffffffffffffffffffff1663851afcc48585856040518463ffffffff1660e01b81526004016200141b9392919062003b71565b600060405180830381865afa15801562001439573d6000803e3d6000fd5b505050506040513d6000823e3d601f19601f8201168201806040525081019062001464919062003db8565b6020015173ffffffffffffffffffffffffffffffffffffffff1614620014c1576040517f08c379a0000000000000000000000000000000000000000000000000000000008152600401620014b89062004271565b60405180910390fd5b8860026004811115620014d957620014d862003e7b565b5b6004811115620014ee57620014ed62003e7b565b5b63ffffffff168173ffffffffffffffffffffffffffffffffffffffff1663c845c0c26040518163ffffffff1660e01b8152600401600060405180830381865afa15801562001540573d6000803e3d6000fd5b505050506040513d6000823e3d601f19601f820116820180604052508101906200156b91906200404c565b60c0015163ffffffff161415806200163457506003600481111562001595576200159462003e7b565b5b6004811115620015aa57620015a962003e7b565b5b63ffffffff168173ffffffffffffffffffffffffffffffffffffffff1663c845c0c26040518163ffffffff1660e01b8152600401600060405180830381865afa158015620015fc573d6000803e3d6000fd5b505050506040513d6000823e3d601f19601f820116820180604052508101906200162791906200404c565b60c0015163ffffffff1614155b62001676576040517f08c379a00000000000000000000000000000000000000000000000000000000081526004016200166d90620040ed565b60405180910390fd5b600260009054906101000a900473ffffffffffffffffffffffffffffffffffffffff1673ffffffffffffffffffffffffffffffffffffffff16635412e8688b620016bf620025fd565b8c8e73ffffffffffffffffffffffffffffffffffffffff1663c845c0c26040518163ffffffff1660e01b8152600401600060405180830381865afa1580156200170c573d6000803e3d6000fd5b505050506040513d6000823e3d601f19601f820116820180604052508101906200173791906200404c565b6101000151600160009054906101000a900473ffffffffffffffffffffffffffffffffffffffff1673ffffffffffffffffffffffffffffffffffffffff16636ef25c3a6040518163ffffffff1660e01b8152600401602060405180830381865afa158015620017aa573d6000803e3d6000fd5b505050506040513d601f19601f82011682018060405250810190620017d09190620038e7565b6040518663ffffffff1660e01b8152600401620017f295949392919062004293565b6020604051808303816000875af115801562001812573d6000803e3d6000fd5b505050506040513d601f19601f8201168201806040525081019062001838919062003a7f565b506200184f8a62001848620025fd565b8b62002605565b508973ffffffffffffffffffffffffffffffffffffffff1662001871620025fd565b73ffffffffffffffffffffffffffffffffffffffff167f5fffe6ac269a8169399c43070b361f279173edf752234650fdd12bbca7acfaad60405160405180910390a3600197505050505050505092915050565b60008060149054906101000a900460ff161562001918576040517f08c379a00000000000000000000000000000000000000000000000000000000081526004016200190f9062003b4f565b60405180910390fd5b600260009054906101000a900473ffffffffffffffffffffffffffffffffffffffff1673ffffffffffffffffffffffffffffffffffffffff166382f67e60336040518263ffffffff1660e01b815260040162001975919062003500565b602060405180830381865afa15801562001993573d6000803e3d6000fd5b505050506040513d601f19601f82011682018060405250810190620019b9919062003a7f565b620019fb576040517f08c379a0000000000000000000000000000000000000000000000000000000008152600401620019f29062004340565b60405180910390fd5b84600160009054906101000a900473ffffffffffffffffffffffffffffffffffffffff1673ffffffffffffffffffffffffffffffffffffffff166370a08231336040518263ffffffff1660e01b815260040162001a59919062003500565b602060405180830381865afa15801562001a77573d6000803e3d6000fd5b505050506040513d601f19601f8201168201806040525081019062001a9d9190620038e7565b101562001aa957600080fd5b600160009054906101000a900473ffffffffffffffffffffffffffffffffffffffff1673ffffffffffffffffffffffffffffffffffffffff166337b06564338a888b8d73ffffffffffffffffffffffffffffffffffffffff1663c845c0c26040518163ffffffff1660e01b8152600401600060405180830381865afa15801562001b37573d6000803e3d6000fd5b505050506040513d6000823e3d601f19601f8201168201806040525081019062001b6291906200404c565b60e001516040518663ffffffff1660e01b815260040162001b8895949392919062004362565b6020604051808303816000875af115801562001ba8573d6000803e3d6000fd5b505050506040513d601f19601f8201168201806040525081019062001bce919062003a7f565b506001600560008a73ffffffffffffffffffffffffffffffffffffffff1673ffffffffffffffffffffffffffffffffffffffff168152602001908152602001600020600082825462001c219190620039f1565b9250508190555062001cba888733878963ffffffff1688888f73ffffffffffffffffffffffffffffffffffffffff1663c845c0c26040518163ffffffff1660e01b8152600401600060405180830381865afa15801562001c85573d6000803e3d6000fd5b505050506040513d6000823e3d601f19601f8201168201806040525081019062001cb091906200404c565b60e0015162002fd0565b508773ffffffffffffffffffffffffffffffffffffffff163373ffffffffffffffffffffffffffffffffffffffff167f48a0fdcdbaf4f8670416f9813d0077cb5a1d60dce25abb672fc403bd1409ee588760405162001d1a9190620043bf565b60405180910390a360019050979650505050505050565b60008060149054906101000a900460ff161562001d85576040517f08c379a000000000000000000000000000000000000000000000000000000000815260040162001d7c9062003b4f565b60405180910390fd5b600260009054906101000a900473ffffffffffffffffffffffffffffffffffffffff1673ffffffffffffffffffffffffffffffffffffffff166369e32e42876040518263ffffffff1660e01b815260040162001de2919062003500565b602060405180830381865afa15801562001e00573d6000803e3d6000fd5b505050506040513d601f19601f8201168201806040525081019062001e26919062003a7f565b62001e3057600080fd5b60006040518060600160405280600260009054906101000a900473ffffffffffffffffffffffffffffffffffffffff1673ffffffffffffffffffffffffffffffffffffffff1663091663f78a6040518263ffffffff1660e01b815260040162001e9a919062003500565b606060405180830381865afa15801562001eb8573d6000803e3d6000fd5b505050506040513d601f19601f8201168201806040525081019062001ede91906200444b565b6000015163ffffffff1663ffffffff168152602001600260009054906101000a900473ffffffffffffffffffffffffffffffffffffffff1673ffffffffffffffffffffffffffffffffffffffff1663091663f78a6040518263ffffffff1660e01b815260040162001f50919062003500565b606060405180830381865afa15801562001f6e573d6000803e3d6000fd5b505050506040513d601f19601f8201168201806040525081019062001f9491906200444b565b6020015163ffffffff1663ffffffff168152602001600260009054906101000a900473ffffffffffffffffffffffffffffffffffffffff1673ffffffffffffffffffffffffffffffffffffffff1663091663f78a6040518263ffffffff1660e01b815260040162002006919062003500565b606060405180830381865afa15801562002024573d6000803e3d6000fd5b505050506040513d601f19601f820116820180604052508101906200204a91906200444b565b6000015163ffffffff1663ffffffff16815250905060008787878787600260048111156200207d576200207c62003e7b565b5b600481111562002092576200209162003e7b565b5b87600060038110620020a957620020a862003874565b5b602002015188600160038110620020c557620020c462003874565b5b602002015189600260038110620020e157620020e062003874565b5b6020020151604051620020f49062003105565b620021089998979695949392919062004502565b604051809103906000f08015801562002125573d6000803e3d6000fd5b509050600760008973ffffffffffffffffffffffffffffffffffffffff1673ffffffffffffffffffffffffffffffffffffffff168152602001908152602001600020600001819080600181540180825580915050600190039060005260206000200160009091909190916101000a81548173ffffffffffffffffffffffffffffffffffffffff021916908373ffffffffffffffffffffffffffffffffffffffff160217905550600260009054906101000a900473ffffffffffffffffffffffffffffffffffffffff1673ffffffffffffffffffffffffffffffffffffffff1663e259b361826040518263ffffffff1660e01b815260040162002228919062003500565b6020604051808303816000875af115801562002248573d6000803e3d6000fd5b505050506040513d601f19601f820116820180604052508101906200226e919062003a7f565b508073ffffffffffffffffffffffffffffffffffffffff168873ffffffffffffffffffffffffffffffffffffffff167fc76ebdfeb2ab617f86d5644ebdd3f3e9ad7a4bdd5c23e71ece3316a29425cf9e60405160405180910390a3809250505095945050505050565b60008163ffffffff16838073ffffffffffffffffffffffffffffffffffffffff166007600062002306620025fd565b73ffffffffffffffffffffffffffffffffffffffff1673ffffffffffffffffffffffffffffffffffffffff168152602001908152602001600020600001838154811062002358576200235762003874565b5b9060005260206000200160009054906101000a900473ffffffffffffffffffffffffffffffffffffffff1673ffffffffffffffffffffffffffffffffffffffff1614620023a457600080fd5b620023ae620025fd565b85600960008273ffffffffffffffffffffffffffffffffffffffff1673ffffffffffffffffffffffffffffffffffffffff16815260200190815260200160002060009054906101000a900460ff16156200240757600080fd5b600360048111156200241e576200241d62003e7b565b5b63ffffffff168773ffffffffffffffffffffffffffffffffffffffff1663c845c0c26040518163ffffffff1660e01b8152600401600060405180830381865afa15801562002470573d6000803e3d6000fd5b505050506040513d6000823e3d601f19601f820116820180604052508101906200249b91906200404c565b60c0015163ffffffff1614620024e8576040517f08c379a0000000000000000000000000000000000000000000000000000000008152600401620024df9062004633565b60405180910390fd5b6001600960008973ffffffffffffffffffffffffffffffffffffffff1673ffffffffffffffffffffffffffffffffffffffff16815260200190815260200160002060006101000a81548160ff021916908315150217905550600160009054906101000a900473ffffffffffffffffffffffffffffffffffffffff1673ffffffffffffffffffffffffffffffffffffffff16632945fb6a8862002589620025fd565b6040518363ffffffff1660e01b8152600401620025a8929190620038a3565b6020604051808303816000875af1158015620025c8573d6000803e3d6000fd5b505050506040513d601f19601f82011682018060405250810190620025ee919062003a7f565b50600194505050505092915050565b600033905090565b60008060149054906101000a900460ff161562002659576040517f08c379a0000000000000000000000000000000000000000000000000000000008152600401620026509062003b4f565b60405180910390fd5b83838363ffffffff168273ffffffffffffffffffffffffffffffffffffffff16600260009054906101000a900473ffffffffffffffffffffffffffffffffffffffff1673ffffffffffffffffffffffffffffffffffffffff1663851afcc48585856040518463ffffffff1660e01b8152600401620026da9392919062003b71565b600060405180830381865afa158015620026f8573d6000803e3d6000fd5b505050506040513d6000823e3d601f19601f8201168201806040525081019062002723919062003db8565b6000015173ffffffffffffffffffffffffffffffffffffffff161462002780576040517f08c379a0000000000000000000000000000000000000000000000000000000008152600401620027779062003e59565b60405180910390fd5b86868663ffffffff163373ffffffffffffffffffffffffffffffffffffffff16600260009054906101000a900473ffffffffffffffffffffffffffffffffffffffff1673ffffffffffffffffffffffffffffffffffffffff1663851afcc48585856040518463ffffffff1660e01b8152600401620028019392919062003b71565b600060405180830381865afa1580156200281f573d6000803e3d6000fd5b505050506040513d6000823e3d601f19601f820116820180604052508101906200284a919062003db8565b6020015173ffffffffffffffffffffffffffffffffffffffff1614620028a7576040517f08c379a00000000000000000000000000000000000000000000000000000000081526004016200289e9062004271565b60405180910390fd5b8960026004811115620028bf57620028be62003e7b565b5b6004811115620028d457620028d362003e7b565b5b63ffffffff168173ffffffffffffffffffffffffffffffffffffffff1663c845c0c26040518163ffffffff1660e01b8152600401600060405180830381865afa15801562002926573d6000803e3d6000fd5b505050506040513d6000823e3d601f19601f820116820180604052508101906200295191906200404c565b60c0015163ffffffff1614158062002a1a5750600360048111156200297b576200297a62003e7b565b5b600481111562002990576200298f62003e7b565b5b63ffffffff168173ffffffffffffffffffffffffffffffffffffffff1663c845c0c26040518163ffffffff1660e01b8152600401600060405180830381865afa158015620029e2573d6000803e3d6000fd5b505050506040513d6000823e3d601f19601f8201168201806040525081019062002a0d91906200404c565b60c0015163ffffffff1614155b62002a5c576040517f08c379a000000000000000000000000000000000000000000000000000000000815260040162002a5390620040ed565b60405180910390fd5b60008b9050600260009054906101000a900473ffffffffffffffffffffffffffffffffffffffff1673ffffffffffffffffffffffffffffffffffffffff1663851afcc4828d8d6040518463ffffffff1660e01b815260040162002ac29392919062004655565b600060405180830381865afa15801562002ae0573d6000803e3d6000fd5b505050506040513d6000823e3d601f19601f8201168201806040525081019062002b0b919062003db8565b61010001511562002b1b57600080fd5b60048081111562002b315762002b3062003e7b565b5b63ffffffff16600260009054906101000a900473ffffffffffffffffffffffffffffffffffffffff1673ffffffffffffffffffffffffffffffffffffffff1663851afcc4838e8e6040518463ffffffff1660e01b815260040162002b989392919062004655565b600060405180830381865afa15801562002bb6573d6000803e3d6000fd5b505050506040513d6000823e3d601f19601f8201168201806040525081019062002be1919062003db8565b60a001511462002bf057600080fd5b6001600260009054906101000a900473ffffffffffffffffffffffffffffffffffffffff1673ffffffffffffffffffffffffffffffffffffffff1663851afcc4838e8e6040518463ffffffff1660e01b815260040162002c539392919062004655565b600060405180830381865afa15801562002c71573d6000803e3d6000fd5b505050506040513d6000823e3d601f19601f8201168201806040525081019062002c9c919062003db8565b60800151141562002cb25762002cb162004692565b5b600260009054906101000a900473ffffffffffffffffffffffffffffffffffffffff1673ffffffffffffffffffffffffffffffffffffffff1663bb6241818d8d8d6040518463ffffffff1660e01b815260040162002d1393929190620046d2565b6020604051808303816000875af115801562002d33573d6000803e3d6000fd5b505050506040513d601f19601f8201168201806040525081019062002d59919062003a7f565b50600260009054906101000a900473ffffffffffffffffffffffffffffffffffffffff1673ffffffffffffffffffffffffffffffffffffffff1663851afcc4828d8d6040518463ffffffff1660e01b815260040162002dbb9392919062004655565b600060405180830381865afa15801562002dd9573d6000803e3d6000fd5b505050506040513d6000823e3d601f19601f8201168201806040525081019062002e04919062003db8565b60e00151600481905550600160009054906101000a900473ffffffffffffffffffffffffffffffffffffffff1673ffffffffffffffffffffffffffffffffffffffff16635b9a45ed82336004546040518463ffffffff1660e01b815260040162002e719392919062003b71565b6020604051808303816000875af115801562002e91573d6000803e3d6000fd5b505050506040513d601f19601f8201168201806040525081019062002eb7919062003a7f565b50600260009054906101000a900473ffffffffffffffffffffffffffffffffffffffff1673ffffffffffffffffffffffffffffffffffffffff1663c88fae5b826004546040518363ffffffff1660e01b815260040162002f199291906200470f565b6020604051808303816000875af115801562002f39573d6000803e3d6000fd5b505050506040513d601f19601f8201168201806040525081019062002f5f919062003a7f565b506004548c73ffffffffffffffffffffffffffffffffffffffff163373ffffffffffffffffffffffffffffffffffffffff167fe49d32b452351e5ba808334643feb4e78bbde727f406a061320f2c5d8e806b1160405160405180910390a46001985050505050505050509392505050565b6000600260009054906101000a900473ffffffffffffffffffffffffffffffffffffffff1673ffffffffffffffffffffffffffffffffffffffff1663e39f2c1b8a8a8a8a8a8a8a8a6040518963ffffffff1660e01b81526004016200303d9897969594939291906200473c565b6020604051808303816000875af11580156200305d573d6000803e3d6000fd5b505050506040513d601f19601f8201168201806040525081019062003083919062003a7f565b508873ffffffffffffffffffffffffffffffffffffffff168873ffffffffffffffffffffffffffffffffffffffff163373ffffffffffffffffffffffffffffffffffffffff167f72f386e6188d6effd8af151bcbdf2f17fbc43f7944f1633e3466a7a64a99cca260405160405180910390a46001905098975050505050505050565b61174e80620047d983390190565b6000604051905090565b600080fd5b600080fd5b600073ffffffffffffffffffffffffffffffffffffffff82169050919050565b6000620031548262003127565b9050919050565b6000620031688262003147565b9050919050565b6200317a816200315b565b81146200318657600080fd5b50565b6000813590506200319a816200316f565b92915050565b600063ffffffff82169050919050565b620031bb81620031a0565b8114620031c757600080fd5b50565b600081359050620031db81620031b0565b92915050565b60008060408385031215620031fb57620031fa6200311d565b5b60006200320b8582860162003189565b92505060206200321e85828601620031ca565b9150509250929050565b60008115159050919050565b6200323f8162003228565b82525050565b60006020820190506200325c600083018462003234565b92915050565b6000819050919050565b620032778162003262565b81146200328357600080fd5b50565b60008135905062003297816200326c565b92915050565b60008060408385031215620032b757620032b66200311d565b5b6000620032c78582860162003189565b9250506020620032da8582860162003286565b9150509250929050565b620032ef8162003147565b8114620032fb57600080fd5b50565b6000813590506200330f81620032e4565b92915050565b6000602082840312156200332e576200332d6200311d565b5b60006200333e84828501620032fe565b91505092915050565b600081519050919050565b600082825260208201905092915050565b6000819050602082019050919050565b6000819050919050565b60006200339e62003398620033928462003127565b62003373565b62003127565b9050919050565b6000620033b2826200337d565b9050919050565b6000620033c682620033a5565b9050919050565b620033d881620033b9565b82525050565b6000620033ec8383620033cd565b60208301905092915050565b6000602082019050919050565b6000620034128262003347565b6200341e818562003352565b93506200342b8362003363565b8060005b8381101562003462578151620034468882620033de565b97506200345383620033f8565b9250506001810190506200342f565b5085935050505092915050565b600060208201905081810360008301526200348b818462003405565b905092915050565b600080600060608486031215620034af57620034ae6200311d565b5b6000620034bf8682870162003189565b9350506020620034d286828701620031ca565b9250506040620034e586828701620031ca565b9150509250925092565b620034fa8162003147565b82525050565b6000602082019050620035176000830184620034ef565b92915050565b600080fd5b600080fd5b6000601f19601f8301169050919050565b7f4e487b7100000000000000000000000000000000000000000000000000000000600052604160045260246000fd5b620035728262003527565b810181811067ffffffffffffffff8211171562003594576200359362003538565b5b80604052505050565b6000620035a962003113565b9050620035b7828262003567565b919050565b600067ffffffffffffffff821115620035da57620035d962003538565b5b620035e58262003527565b9050602081019050919050565b82818337600083830152505050565b6000620036186200361284620035bc565b6200359d565b90508281526020810184848401111562003637576200363662003522565b5b62003644848285620035f2565b509392505050565b600082601f8301126200366457620036636200351d565b5b81356200367684826020860162003601565b91505092915050565b600080600080600080600060e0888a031215620036a157620036a06200311d565b5b6000620036b18a828b0162003189565b9750506020620036c48a828b01620032fe565b9650506040620036d78a828b01620032fe565b9550506060620036ea8a828b0162003286565b945050608088013567ffffffffffffffff8111156200370e576200370d62003122565b5b6200371c8a828b016200364c565b93505060a06200372f8a828b01620031ca565b92505060c088013567ffffffffffffffff81111562003753576200375262003122565b5b620037618a828b016200364c565b91505092959891949750929550565b600080600080600060a086880312156200378f576200378e6200311d565b5b60006200379f88828901620032fe565b955050602086013567ffffffffffffffff811115620037c357620037c262003122565b5b620037d1888289016200364c565b945050604086013567ffffffffffffffff811115620037f557620037f462003122565b5b62003803888289016200364c565b935050606086013567ffffffffffffffff81111562003827576200382662003122565b5b62003835888289016200364c565b925050608086013567ffffffffffffffff81111562003859576200385862003122565b5b62003867888289016200364c565b9150509295509295909350565b7f4e487b7100000000000000000000000000000000000000000000000000000000600052603260045260246000fd5b6000604082019050620038ba6000830185620034ef565b620038c96020830184620034ef565b9392505050565b600081519050620038e1816200326c565b92915050565b6000602082840312156200390057620038ff6200311d565b5b60006200391084828501620038d0565b91505092915050565b600082825260208201905092915050565b7f4169726c696e6520646f6573206e6f74206861766520656e6f75676820616c6c60008201527f6f77616e636520746f20636c61696d20626f6f6b696e67206665650000000000602082015250565b600062003988603b8362003919565b915062003995826200392a565b604082019050919050565b60006020820190508181036000830152620039bb8162003979565b9050919050565b7f4e487b7100000000000000000000000000000000000000000000000000000000600052601160045260246000fd5b6000620039fe8262003262565b915062003a0b8362003262565b9250827fffffffffffffffffffffffffffffffffffffffffffffffffffffffffffffffff0382111562003a435762003a42620039c2565b5b828201905092915050565b62003a598162003228565b811462003a6557600080fd5b50565b60008151905062003a798162003a4e565b92915050565b60006020828403121562003a985762003a976200311d565b5b600062003aa88482850162003a68565b91505092915050565b62003abc8162003262565b82525050565b600060608201905062003ad9600083018662003ab1565b62003ae8602083018562003ab1565b62003af7604083018462003ab1565b949350505050565b7f53797374656d2069732070617573656400000000000000000000000000000000600082015250565b600062003b3760108362003919565b915062003b448262003aff565b602082019050919050565b6000602082019050818103600083015262003b6a8162003b28565b9050919050565b600060608201905062003b886000830186620034ef565b62003b976020830185620034ef565b62003ba6604083018462003ab1565b949350505050565b600080fd5b600080fd5b60008151905062003bc981620032e4565b92915050565b60005b8381101562003bef57808201518184015260208101905062003bd2565b8381111562003bff576000848401525b50505050565b600062003c1c62003c1684620035bc565b6200359d565b90508281526020810184848401111562003c3b5762003c3a62003522565b5b62003c4884828562003bcf565b509392505050565b600082601f83011262003c685762003c676200351d565b5b815162003c7a84826020860162003c05565b91505092915050565b6000610120828403121562003c9d5762003c9c62003bae565b5b62003caa6101206200359d565b9050600062003cbc8482850162003bb8565b600083015250602062003cd28482850162003bb8565b602083015250604082015167ffffffffffffffff81111562003cf95762003cf862003bb3565b5b62003d078482850162003c50565b604083015250606062003d1d84828501620038d0565b606083015250608062003d3384828501620038d0565b60808301525060a062003d4984828501620038d0565b60a08301525060c082015167ffffffffffffffff81111562003d705762003d6f62003bb3565b5b62003d7e8482850162003c50565b60c08301525060e062003d9484828501620038d0565b60e08301525061010062003dab8482850162003a68565b6101008301525092915050565b60006020828403121562003dd15762003dd06200311d565b5b600082015167ffffffffffffffff81111562003df25762003df162003122565b5b62003e008482850162003c83565b91505092915050565b7f50617373656e676572206973206e6f74206f6e2074686520666c696768740000600082015250565b600062003e41601e8362003919565b915062003e4e8262003e09565b602082019050919050565b6000602082019050818103600083015262003e748162003e32565b9050919050565b7f4e487b7100000000000000000000000000000000000000000000000000000000600052602160045260246000fd5b60008151905062003ebb81620031b0565b92915050565b6000610140828403121562003edb5762003eda62003bae565b5b62003ee86101406200359d565b9050600062003efa8482850162003bb8565b600083015250602082015167ffffffffffffffff81111562003f215762003f2062003bb3565b5b62003f2f8482850162003c50565b602083015250604082015167ffffffffffffffff81111562003f565762003f5562003bb3565b5b62003f648482850162003c50565b604083015250606082015167ffffffffffffffff81111562003f8b5762003f8a62003bb3565b5b62003f998482850162003c50565b606083015250608082015167ffffffffffffffff81111562003fc05762003fbf62003bb3565b5b62003fce8482850162003c50565b60808301525060a062003fe484828501620038d0565b60a08301525060c062003ffa8482850162003eaa565b60c08301525060e06200401084828501620038d0565b60e0830152506101006200402784828501620038d0565b610100830152506101206200403f84828501620038d0565b6101208301525092915050565b6000602082840312156200406557620040646200311d565b5b600082015167ffffffffffffffff81111562004086576200408562003122565b5b620040948482850162003ec1565b91505092915050565b7f466c69676874206973206f6e676f696e67206f7220636f6d706c657465640000600082015250565b6000620040d5601e8362003919565b9150620040e2826200409d565b602082019050919050565b600060208201905081810360008301526200410881620040c6565b9050919050565b7f53797374656d206973206e6f7420706175736564000000000000000000000000600082015250565b60006200414760148362003919565b915062004154826200410f565b602082019050919050565b600060208201905081810360008301526200417a8162004138565b9050919050565b7f466c6967687420697320616c726561647920636f6d706c657465640000000000600082015250565b6000620041b9601b8362003919565b9150620041c68262004181565b602082019050919050565b60006020820190508181036000830152620041ec81620041aa565b9050919050565b620041fe81620031a0565b82525050565b60006020820190506200421b6000830184620041f3565b92915050565b7f466c67696874206e6f7420626f6f6b656420627920636c61696d6e616e740000600082015250565b600062004259601e8362003919565b9150620042668262004221565b602082019050919050565b600060208201905081810360008301526200428c816200424a565b9050919050565b600060a082019050620042aa6000830188620034ef565b620042b96020830187620034ef565b620042c8604083018662003ab1565b620042d7606083018562003ab1565b620042e6608083018462003ab1565b9695505050505050565b7f4e6f742061205573657200000000000000000000000000000000000000000000600082015250565b600062004328600a8362003919565b91506200433582620042f0565b602082019050919050565b600060208201905081810360008301526200435b8162004319565b9050919050565b600060a082019050620043796000830188620034ef565b620043886020830187620034ef565b62004397604083018662003ab1565b620043a66060830185620034ef565b620043b5608083018462003ab1565b9695505050505050565b6000602082019050620043d6600083018462003ab1565b92915050565b600060608284031215620043f557620043f462003bae565b5b6200440160606200359d565b90506000620044138482850162003eaa565b6000830152506020620044298482850162003eaa565b60208301525060406200443f8482850162003eaa565b60408301525092915050565b6000606082840312156200446457620044636200311d565b5b60006200447484828501620043dc565b91505092915050565b600081519050919050565b600062004495826200447d565b620044a1818562003919565b9350620044b381856020860162003bcf565b620044be8162003527565b840191505092915050565b6000620044ea620044e4620044de84620031a0565b62003373565b62003262565b9050919050565b620044fc81620044c9565b82525050565b6000610120820190506200451a600083018c620034ef565b81810360208301526200452e818b62004488565b9050818103604083015262004544818a62004488565b905081810360608301526200455a818962004488565b9050818103608083015262004570818862004488565b90506200458160a0830187620041f3565b6200459060c0830186620044f1565b6200459f60e0830185620044f1565b620045af610100830184620044f1565b9a9950505050505050505050565b7f466c69676874206973206e6f74207570646174656420746f20636f6d706c657460008201527f6564000000000000000000000000000000000000000000000000000000000000602082015250565b60006200461b60228362003919565b91506200462882620045bd565b604082019050919050565b600060208201905081810360008301526200464e816200460c565b9050919050565b60006060820190506200466c6000830186620034ef565b6200467b6020830185620034ef565b6200468a6040830184620044f1565b949350505050565b7f4e487b7100000000000000000000000000000000000000000000000000000000600052600160045260246000fd5b620046cc81620033b9565b82525050565b6000606082019050620046e96000830186620046c1565b620046f86020830185620034ef565b620047076040830184620044f1565b949350505050565b6000604082019050620047266000830185620034ef565b62004735602083018462003ab1565b9392505050565b60006101008201905062004754600083018b620046c1565b62004763602083018a620034ef565b620047726040830189620034ef565b818103606083015262004786818862004488565b905062004797608083018762003ab1565b620047a660a0830186620041f3565b81810360c0830152620047ba818562004488565b9050620047cb60e083018462003ab1565b999850505050505050505056fe60806040523480156200001157600080fd5b506040516200174e3803806200174e83398181016040528101906200003791906200046a565b88601060000160006101000a81548173ffffffffffffffffffffffffffffffffffffffff021916908373ffffffffffffffffffffffffffffffffffffffff1602179055508760106001019080519060200190620000969291906200013c565b508660106002019080519060200190620000b29291906200013c565b508560106003019080519060200190620000ce9291906200013c565b508460106004019080519060200190620000ea9291906200013c565b5083601060060160006101000a81548163ffffffff021916908363ffffffff1602179055508260106007018190555081601060080181905550806010600901819055505050505050505050506200062a565b8280546200014a90620005f4565b90600052602060002090601f0160209004810192826200016e5760008555620001ba565b82601f106200018957805160ff1916838001178555620001ba565b82800160010185558215620001ba579182015b82811115620001b95782518255916020019190600101906200019c565b5b509050620001c99190620001cd565b5090565b5b80821115620001e8576000816000905550600101620001ce565b5090565b6000604051905090565b600080fd5b600080fd5b600073ffffffffffffffffffffffffffffffffffffffff82169050919050565b60006200022d8262000200565b9050919050565b6200023f8162000220565b81146200024b57600080fd5b50565b6000815190506200025f8162000234565b92915050565b600080fd5b600080fd5b6000601f19601f8301169050919050565b7f4e487b7100000000000000000000000000000000000000000000000000000000600052604160045260246000fd5b620002ba826200026f565b810181811067ffffffffffffffff82111715620002dc57620002db62000280565b5b80604052505050565b6000620002f1620001ec565b9050620002ff8282620002af565b919050565b600067ffffffffffffffff82111562000322576200032162000280565b5b6200032d826200026f565b9050602081019050919050565b60005b838110156200035a5780820151818401526020810190506200033d565b838111156200036a576000848401525b50505050565b600062000387620003818462000304565b620002e5565b905082815260208101848484011115620003a657620003a56200026a565b5b620003b38482856200033a565b509392505050565b600082601f830112620003d357620003d262000265565b5b8151620003e584826020860162000370565b91505092915050565b600063ffffffff82169050919050565b6200040981620003ee565b81146200041557600080fd5b50565b6000815190506200042981620003fe565b92915050565b6000819050919050565b62000444816200042f565b81146200045057600080fd5b50565b600081519050620004648162000439565b92915050565b60008060008060008060008060006101208a8c03121562000490576200048f620001f6565b5b6000620004a08c828d016200024e565b99505060208a015167ffffffffffffffff811115620004c457620004c3620001fb565b5b620004d28c828d01620003bb565b98505060408a015167ffffffffffffffff811115620004f657620004f5620001fb565b5b620005048c828d01620003bb565b97505060608a015167ffffffffffffffff811115620005285762000527620001fb565b5b620005368c828d01620003bb565b96505060808a015167ffffffffffffffff8111156200055a5762000559620001fb565b5b620005688c828d01620003bb565b95505060a06200057b8c828d0162000418565b94505060c06200058e8c828d0162000453565b93505060e0620005a18c828d0162000453565b925050610100620005b58c828d0162000453565b9150509295985092959850929598565b7f4e487b7100000000000000000000000000000000000000000000000000000000600052602260045260246000fd5b600060028204905060018216806200060d57607f821691505b60208210811415620006245762000623620005c5565b5b50919050565b611114806200063a6000396000f3fe608060405234801561001057600080fd5b50600436106100cf5760003560e01c8063c72e66c91161008c578063dd0df08811610066578063dd0df0881461026b578063e47d60601461029e578063fd12c592146102ce578063feeba73614610301576100cf565b8063c72e66c9146101f6578063c845c0c214610226578063ca5f1c1b14610244576100cf565b8063091c18aa146100d457806324d7806c146101045780633cc0f5f21461013457806346e7ccac14610164578063934e39dd14610194578063bc3da535146101c4575b600080fd5b6100ee60048036038101906100e99190610bc8565b610332565b6040516100fb9190610c10565b60405180910390f35b61011e60048036038101906101199190610bc8565b610352565b60405161012b9190610c10565b60405180910390f35b61014e60048036038101906101499190610bc8565b610372565b60405161015b9190610c10565b60405180910390f35b61017e60048036038101906101799190610bc8565b610392565b60405161018b9190610c10565b60405180910390f35b6101ae60048036038101906101a99190610c67565b6103b2565b6040516101bb9190610c10565b60405180910390f35b6101de60048036038101906101d99190610bc8565b6103e1565b6040516101ed93929190610ca3565b60405180910390f35b610210600480360381019061020b9190610bc8565b61043b565b60405161021d9190610ce9565b60405180910390f35b61022e610479565b60405161023b9190610ec3565b60405180910390f35b61024c610780565b6040516102629a99989796959493929190610f3e565b60405180910390f35b61028560048036038101906102809190610bc8565b610a12565b604051610295949392919061100f565b60405180910390f35b6102b860048036038101906102b39190610bc8565b610a62565b6040516102c59190610c10565b60405180910390f35b6102e860048036038101906102e39190610bc8565b610a82565b6040516102f8949392919061100f565b60405180910390f35b61031b60048036038101906103169190610bc8565b610ad2565b604051610329929190611054565b60405180910390f35b600b6020528060005260406000206000915054906101000a900460ff1681565b60086020528060005260406000206000915054906101000a900460ff1681565b600a6020528060005260406000206000915054906101000a900460ff1681565b60096020528060005260406000206000915054906101000a900460ff1681565b600081601060060160006101000a81548163ffffffff021916908363ffffffff16021790555060019050919050565b601e6020528060005260406000206000915090508060000160009054906101000a900463ffffffff16908060000160049054906101000a900463ffffffff16908060000160089054906101000a900463ffffffff16905083565b601d6020528060005260406000206000915090508060000160009054906101000a900473ffffffffffffffffffffffffffffffffffffffff16905081565b610481610af6565b6010604051806101400160405290816000820160009054906101000a900473ffffffffffffffffffffffffffffffffffffffff1673ffffffffffffffffffffffffffffffffffffffff1673ffffffffffffffffffffffffffffffffffffffff1681526020016001820180546104f5906110ac565b80601f0160208091040260200160405190810160405280929190818152602001828054610521906110ac565b801561056e5780601f106105435761010080835404028352916020019161056e565b820191906000526020600020905b81548152906001019060200180831161055157829003601f168201915b50505050508152602001600282018054610587906110ac565b80601f01602080910402602001604051908101604052809291908181526020018280546105b3906110ac565b80156106005780601f106105d557610100808354040283529160200191610600565b820191906000526020600020905b8154815290600101906020018083116105e357829003601f168201915b50505050508152602001600382018054610619906110ac565b80601f0160208091040260200160405190810160405280929190818152602001828054610645906110ac565b80156106925780601f1061066757610100808354040283529160200191610692565b820191906000526020600020905b81548152906001019060200180831161067557829003601f168201915b505050505081526020016004820180546106ab906110ac565b80601f01602080910402602001604051908101604052809291908181526020018280546106d7906110ac565b80156107245780601f106106f957610100808354040283529160200191610724565b820191906000526020600020905b81548152906001019060200180831161070757829003601f168201915b50505050508152602001600582015481526020016006820160009054906101000a900463ffffffff1663ffffffff1663ffffffff1681526020016007820154815260200160088201548152602001600982015481525050905090565b60108060000160009054906101000a900473ffffffffffffffffffffffffffffffffffffffff16908060010180546107b7906110ac565b80601f01602080910402602001604051908101604052809291908181526020018280546107e3906110ac565b80156108305780601f1061080557610100808354040283529160200191610830565b820191906000526020600020905b81548152906001019060200180831161081357829003601f168201915b505050505090806002018054610845906110ac565b80601f0160208091040260200160405190810160405280929190818152602001828054610871906110ac565b80156108be5780601f10610893576101008083540402835291602001916108be565b820191906000526020600020905b8154815290600101906020018083116108a157829003601f168201915b5050505050908060030180546108d3906110ac565b80601f01602080910402602001604051908101604052809291908181526020018280546108ff906110ac565b801561094c5780601f106109215761010080835404028352916020019161094c565b820191906000526020600020905b81548152906001019060200180831161092f57829003601f168201915b505050505090806004018054610961906110ac565b80601f016020809104026020016040519081016040528092919081815260200182805461098d906110ac565b80156109da5780601f106109af576101008083540402835291602001916109da565b820191906000526020600020905b8154815290600101906020018083116109bd57829003601f168201915b5050505050908060050154908060060160009054906101000a900463ffffffff1690806007015490806008015490806009015490508a565b601a6020528060005260406000206000915090508060000160009054906101000a900473ffffffffffffffffffffffffffffffffffffffff16908060010154908060020154908060030154905084565b600c6020528060005260406000206000915054906101000a900460ff1681565b601b6020528060005260406000206000915090508060000160009054906101000a900473ffffffffffffffffffffffffffffffffffffffff16908060010154908060020154908060030154905084565b601c6020528060005260406000206000915090508060000154908060010154905082565b604051806101400160405280600073ffffffffffffffffffffffffffffffffffffffff1681526020016060815260200160608152602001606081526020016060815260200160008152602001600063ffffffff1681526020016000815260200160008152602001600081525090565b600080fd5b600073ffffffffffffffffffffffffffffffffffffffff82169050919050565b6000610b9582610b6a565b9050919050565b610ba581610b8a565b8114610bb057600080fd5b50565b600081359050610bc281610b9c565b92915050565b600060208284031215610bde57610bdd610b65565b5b6000610bec84828501610bb3565b91505092915050565b60008115159050919050565b610c0a81610bf5565b82525050565b6000602082019050610c256000830184610c01565b92915050565b600063ffffffff82169050919050565b610c4481610c2b565b8114610c4f57600080fd5b50565b600081359050610c6181610c3b565b92915050565b600060208284031215610c7d57610c7c610b65565b5b6000610c8b84828501610c52565b91505092915050565b610c9d81610c2b565b82525050565b6000606082019050610cb86000830186610c94565b610cc56020830185610c94565b610cd26040830184610c94565b949350505050565b610ce381610b8a565b82525050565b6000602082019050610cfe6000830184610cda565b92915050565b610d0d81610b8a565b82525050565b600081519050919050565b600082825260208201905092915050565b60005b83811015610d4d578082015181840152602081019050610d32565b83811115610d5c576000848401525b50505050565b6000601f19601f8301169050919050565b6000610d7e82610d13565b610d888185610d1e565b9350610d98818560208601610d2f565b610da181610d62565b840191505092915050565b6000819050919050565b610dbf81610dac565b82525050565b610dce81610c2b565b82525050565b600061014083016000830151610ded6000860182610d04565b5060208301518482036020860152610e058282610d73565b91505060408301518482036040860152610e1f8282610d73565b91505060608301518482036060860152610e398282610d73565b91505060808301518482036080860152610e538282610d73565b91505060a0830151610e6860a0860182610db6565b5060c0830151610e7b60c0860182610dc5565b5060e0830151610e8e60e0860182610db6565b50610100830151610ea3610100860182610db6565b50610120830151610eb8610120860182610db6565b508091505092915050565b60006020820190508181036000830152610edd8184610dd4565b905092915050565b600082825260208201905092915050565b6000610f0182610d13565b610f0b8185610ee5565b9350610f1b818560208601610d2f565b610f2481610d62565b840191505092915050565b610f3881610dac565b82525050565b600061014082019050610f54600083018d610cda565b8181036020830152610f66818c610ef6565b90508181036040830152610f7a818b610ef6565b90508181036060830152610f8e818a610ef6565b90508181036080830152610fa28189610ef6565b9050610fb160a0830188610f2f565b610fbe60c0830187610c94565b610fcb60e0830186610f2f565b610fd9610100830185610f2f565b610fe7610120830184610f2f565b9b9a5050505050505050505050565b6000819050919050565b61100981610ff6565b82525050565b60006080820190506110246000830187610cda565b6110316020830186611000565b61103e6040830185611000565b61104b6060830184611000565b95945050505050565b60006040820190506110696000830185610f2f565b6110766020830184610f2f565b9392505050565b7f4e487b7100000000000000000000000000000000000000000000000000000000600052602260045260246000fd5b600060028204905060018216806110c457607f821691505b602082108114156110d8576110d761107d565b5b5091905056fea264697066735822122078914519513380d92038cd204b7426e9c1f5f5723b6b5b50c77b3b2c6843a75264736f6c634300080b0033a264697066735822122092209b01b0e8a30f6f9e4f3c0d260832e74adfa41645152d6c5e691ef2ef26f664736f6c634300080b0033",
  "immutableReferences": {},
  "source": "// SPDX-License-Identifier: MIT OR LGPL-2.0-or-later\npragma solidity ^0.8.5;\n\nimport \"./ERC20Token.sol\";\nimport \"./Operations.sol\";\nimport \"./Escrow.sol\";\nimport \"./Pausable.sol\";\nimport \"./Passengers.sol\";\n\n\n/**\n * @dev Contract module which provides a basic storage system.\n *\n * This module is used through inheritance. It will make available the escrow contract\n * addresses created, details, owners of the escrow contract and passengers on escrow contract documentations.\n */\ncontract Aeropaye is Passengers {\n    using SafeMath for uint256;\n\n    mapping(address => airlineFlights) internal flight;\n    mapping(Escrow => uint256) internal claimedBookingFeeByAirline;\n    mapping(Escrow => bool) internal claimedByAirline;\n\n    //Events for Logic Contract\n    event EscrowCreated(\n        address indexed AirlineAddr,\n        Escrow indexed EscrowContract\n    );\n\n    event CompletedEscrowFlight(\n        address indexed AirlineAddr,\n        Escrow indexed EscrowContract\n    );\n    \n    event BurntAsset(\n        address indexed OwnerAddr, \n        uint256 AssetID\n        );\n    \n    event  BookingFeeClaimed(\n        Escrow indexed _flightEscrow,  \n        address indexed _airline, \n        uint256 escrowbalance,\n        uint256 passengerCount,\n        uint256 claimedBookingFee);\n\n    //Structs for Logic Contract\n    struct airlineFlights {\n        Escrow[] flights; \n        }\n\n    modifier airlineAuthorized(uint256 _escrowKey, Escrow _flightEscrow) {\n        require( \n            flight[_msgSender()].flights[_escrowKey] == _flightEscrow\n        );\n        _;\n    }\n\n    modifier claimCheckAirline(address _airline, Escrow _flightEscrow){\n        require(!claimedByAirline[_flightEscrow]\n        );\n        _;\n    }\n  \n    constructor(address _tokenAddress, address _opAddress) Passengers( _tokenAddress,  _opAddress)\n    {\n        token = ERC20Token(_tokenAddress);\n        operation = Operations(_opAddress);\n    }\n\n    //     ***********   SETTERS   ************\n\n     /**\n     * Creating Escrow Wallet for the Airline Flight\n     * @param _airline Airline address\n     * @param _flightCode Flight code\n     * @param _flightDeparture Flight departure\n     * @param _flightArrival Flight arrival\n     * @param _flightTime Departure time of flight\n     */\n    function escrowCreation(\n        address _airline,\n        string memory _flightCode,\n        string memory _flightDeparture, \n        string memory _flightArrival, \n        string memory _flightTime\n    ) \n    public\n    whenNotPaused\n    returns (address) {\n        require(operation.IsAirLineList(_airline));\n        \n        uint32[3] memory getRefunds = [ operation.GetRefunds(_airline).FLIGHT_REFUND, operation.GetRefunds(_airline).BOOKING_REFUND, operation.GetRefunds(_airline).FLIGHT_REFUND];\n\n        Escrow escrowContract =\n            new Escrow(\n                _airline, \n                _flightCode, \n                _flightDeparture, \n                _flightArrival, \n                _flightTime, \n                uint32(FlightStatus(2)), \n                getRefunds[0],\n                getRefunds[1],\n                getRefunds[2]\n                );\n\n        flight[_airline].flights.push(escrowContract);\n        operation.SetUserList(address(escrowContract));\n\n        emit EscrowCreated(_airline, escrowContract);\n\n        return address(escrowContract);\n    }\n\n    \n    /**\n     * Airline claim Booking fee\n     */\n    function airlineClaimBookingFee(\n        Escrow _flightEscrow,\n        uint32 _escrowKey\n    )\n    public\n    airlineAuthorized(_escrowKey, _flightEscrow)\n    returns (bool)\n    {\n        require(\n            token.allowance(address(_flightEscrow), _msgSender()) != 0,\n            \"Airline does not have enough allowance to claim booking fee\"\n        );\n        claimedBookingFeeByAirline[_flightEscrow] += 1;\n        uint256 escrowbalance = token.balanceOf(address(_flightEscrow));\n        uint256 passengerCount = passengerPaid[address(_flightEscrow)];\n        uint256 claimedBookingFee = claimedBookingFeeByAirline[_flightEscrow];\n        \n        token.withdrawFromEscrow(address(_flightEscrow), _msgSender());\n        \n\n        emit BookingFeeClaimed(_flightEscrow,  _msgSender(), escrowbalance, passengerCount, claimedBookingFee);\n\n    return true;\n    }\n\n     /**\n     * Airline claim Flight fee\n     */\n    function airlineClaimFlightFee(\n        Escrow _flightEscrow,\n        uint32 _escrowKey\n    )\n    public\n    airlineAuthorized(_escrowKey, _flightEscrow)\n    claimCheckAirline(_msgSender(), _flightEscrow)\n    returns (bool)\n    {\n        require(\n            _flightEscrow.getAirline().FlightStatus == uint32(FlightStatus.COMPLETED),\n            \"Flight is not updated to completed\"\n        );\n\n        //mark flight as claimed\n        claimedByAirline[_flightEscrow] = true;\n\n        token.withdrawFlightFee(address(_flightEscrow), _msgSender());\n     \n        return true;\n    }\n\n     /**\n     * UpdateFlight Status by Airline to allow Airline claim payment\n     * @param _flightEscrow Airline Flight Escrow address\n     */\n    function updateFlightStatus(\n        Escrow _flightEscrow,\n        uint32 _escrowKey,\n        uint32 _flightStatus\n    )\n    public \n    airlineAuthorized(_escrowKey, _flightEscrow)\n    returns (bool)\n    { \n        //require flight is cancelled\n        require(\n            _flightEscrow.getAirline().FlightStatus != uint32(FlightStatus.COMPLETED),\n            \"Flight is already completed\"\n        );\n\n        _flightEscrow.setAirline(_flightStatus);\n        emit CompletedEscrowFlight(_msgSender(), _flightEscrow);\n        return true;\n    }\n\n \n\n    //    ***********    Getters   ***********\n\n    /**\n     * Get Escrow contracts of Airline\n     */\n    function getFlightEscrows(\n        address _airline\n    )\n    public\n    view\n    returns (Escrow[] memory){\n        return flight[_airline].flights;\n    }\n\n    \n}",
  "sourcePath": "/Users/jesudarajeminusi/ConvexityProjs/wrapcbdc/wrap-cbdc-web3/contracts/Aeropaye.sol",
  "compiler": {
    "name": "solc",
    "version": "0.8.11+commit.d7f03943.Emscripten.clang"
  },
  "schemaVersion": "3.4.6",
  "updatedAt": "2022-07-06T17:18:03.152Z",
  "networkType": "ethereum",
  "devdoc": {
    "details": "Contract module which provides a basic storage system. This module is used through inheritance. It will make available the escrow contract addresses created, details, owners of the escrow contract and passengers on escrow contract documentations.",
    "kind": "dev",
    "methods": {
      "cancelBooking(address,uint256)": {
        "params": {
          "_flightEscrow": "Airline Flight Escrow address"
        }
      },
      "checkIn(address,uint256)": {
        "params": {
          "_flightEscrow": "Airline Flight Escrow address"
        }
      },
      "escrowCreation(address,string,string,string,string)": {
        "params": {
          "_airline": "Airline address",
          "_flightArrival": "Flight arrival",
          "_flightCode": "Flight code",
          "_flightDeparture": "Flight departure",
          "_flightTime": "Departure time of flight"
        }
      },
      "isOwner(address)": {
        "details": "returns trure is address is the contract Owner.",
        "params": {
          "_address": "- The address of the conntract Owner."
        }
      },
      "pause()": {
        "details": "called only by the owner to pause, triggers stopped state"
      },
      "transferToEscrow(address,address,address,uint256,string,uint32,string)": {
        "params": {
          "_amount": "to be paid by the passenger",
          "_flightClassPassenger": "Flight class",
          "_flightEscrow": "Airline Flight Escrow address",
          "_flightSeatPassenger": "Seat number of the passenger",
          "_flightStatusPassenger": "Status of the flight"
        },
        "returns": {
          "_0": "bool"
        }
      },
      "unpause()": {
        "details": "called only by the owner to unpause, returns to normal state"
      },
      "updateFlightStatus(address,uint32,uint32)": {
        "params": {
          "_flightEscrow": "Airline Flight Escrow address"
        }
      }
    },
    "version": 1
  },
  "userdoc": {
    "kind": "user",
    "methods": {
      "airlineClaimBookingFee(address,uint32)": {
        "notice": "Airline claim Booking fee"
      },
      "airlineClaimFlightFee(address,uint32)": {
        "notice": "Airline claim Flight fee"
      },
      "cancelBooking(address,uint256)": {
        "notice": "Cancel Flight booking by Passenger claim 30% their token from escrow"
      },
      "checkIn(address,uint256)": {
        "notice": "CheckIn Passenger Checkin for boarding pass"
      },
      "escrowCreation(address,string,string,string,string)": {
        "notice": "Creating Escrow Wallet for the Airline Flight"
      },
      "getFlightEscrows(address)": {
        "notice": "Get Escrow contracts of Airline"
      },
      "transferToEscrow(address,address,address,uint256,string,uint32,string)": {
        "notice": "Transfer token to Escrow from Passengers"
      },
      "updateFlightStatus(address,uint32,uint32)": {
        "notice": "UpdateFlight Status by Airline to allow Airline claim payment"
      }
    },
    "version": 1
  }
}