{
  "contractName": "Escrow",
  "abi": [
    {
      "inputs": [
        {
          "internalType": "address",
          "name": "_airline",
          "type": "address"
        },
        {
          "internalType": "string",
          "name": "_flightCode",
          "type": "string"
        },
        {
          "internalType": "string",
          "name": "_flightDeparture",
          "type": "string"
        },
        {
          "internalType": "string",
          "name": "_flightArrival",
          "type": "string"
        },
        {
          "internalType": "string",
          "name": "_flightTime",
          "type": "string"
        },
        {
          "internalType": "uint32",
          "name": "_flightStatus",
          "type": "uint32"
        },
        {
          "internalType": "uint256",
          "name": "_flightRefund",
          "type": "uint256"
        },
        {
          "internalType": "uint256",
          "name": "_bookingRefund",
          "type": "uint256"
        },
        {
          "internalType": "uint256",
          "name": "_delayRefund",
          "type": "uint256"
        }
      ],
      "stateMutability": "nonpayable",
      "type": "constructor"
    },
    {
      "anonymous": false,
      "inputs": [
        {
          "indexed": true,
          "internalType": "address",
          "name": "Admin",
          "type": "address"
        }
      ],
      "name": "AdminAdded",
      "type": "event"
    },
    {
      "anonymous": false,
      "inputs": [
        {
          "indexed": true,
          "internalType": "address",
          "name": "Admin",
          "type": "address"
        }
      ],
      "name": "AdminRemoved",
      "type": "event"
    },
    {
      "anonymous": false,
      "inputs": [
        {
          "indexed": true,
          "internalType": "address",
          "name": "Authorizer",
          "type": "address"
        }
      ],
      "name": "AuthorizerAdded",
      "type": "event"
    },
    {
      "anonymous": false,
      "inputs": [
        {
          "indexed": true,
          "internalType": "address",
          "name": "Authorizer",
          "type": "address"
        }
      ],
      "name": "AuthorizerRemoved",
      "type": "event"
    },
    {
      "anonymous": false,
      "inputs": [
        {
          "indexed": true,
          "internalType": "address",
          "name": "RedeemedUser",
          "type": "address"
        }
      ],
      "name": "RemoveUserBlackList",
      "type": "event"
    },
    {
      "anonymous": false,
      "inputs": [
        {
          "indexed": true,
          "internalType": "address",
          "name": "User",
          "type": "address"
        }
      ],
      "name": "RemovedUserList",
      "type": "event"
    },
    {
      "anonymous": false,
      "inputs": [
        {
          "indexed": true,
          "internalType": "address",
          "name": "EvilUser",
          "type": "address"
        }
      ],
      "name": "SetBlackListEvent",
      "type": "event"
    },
    {
      "anonymous": false,
      "inputs": [
        {
          "indexed": true,
          "internalType": "address",
          "name": "User",
          "type": "address"
        }
      ],
      "name": "SetUserListEvent",
      "type": "event"
    },
    {
      "inputs": [
        {
          "internalType": "address",
          "name": "",
          "type": "address"
        }
      ],
      "name": "Airlines",
      "outputs": [
        {
          "internalType": "address",
          "name": "AirlineAddr",
          "type": "address"
        },
        {
          "internalType": "bytes32",
          "name": "NameAirline",
          "type": "bytes32"
        },
        {
          "internalType": "bytes32",
          "name": "PhoneAirline",
          "type": "bytes32"
        },
        {
          "internalType": "bytes32",
          "name": "EmailAirline",
          "type": "bytes32"
        }
      ],
      "stateMutability": "view",
      "type": "function"
    },
    {
      "inputs": [
        {
          "internalType": "address",
          "name": "",
          "type": "address"
        }
      ],
      "name": "PassengerClaim",
      "outputs": [
        {
          "internalType": "uint256",
          "name": "TotalAmountClaimed",
          "type": "uint256"
        },
        {
          "internalType": "uint256",
          "name": "NumberOfPassengers",
          "type": "uint256"
        }
      ],
      "stateMutability": "view",
      "type": "function"
    },
    {
      "inputs": [
        {
          "internalType": "address",
          "name": "",
          "type": "address"
        }
      ],
      "name": "Passengers",
      "outputs": [
        {
          "internalType": "address",
          "name": "PassengerAddr",
          "type": "address"
        },
        {
          "internalType": "bytes32",
          "name": "NamePassenger",
          "type": "bytes32"
        },
        {
          "internalType": "bytes32",
          "name": "PhonePassenger",
          "type": "bytes32"
        },
        {
          "internalType": "bytes32",
          "name": "EmailPassenger",
          "type": "bytes32"
        }
      ],
      "stateMutability": "view",
      "type": "function"
    },
    {
      "inputs": [],
      "name": "escrows",
      "outputs": [
        {
          "internalType": "address",
          "name": "AirlineID",
          "type": "address"
        },
        {
          "internalType": "string",
          "name": "FlightCode",
          "type": "string"
        },
        {
          "internalType": "string",
          "name": "FlightDeparture",
          "type": "string"
        },
        {
          "internalType": "string",
          "name": "FlightArrival",
          "type": "string"
        },
        {
          "internalType": "string",
          "name": "FlightTime",
          "type": "string"
        },
        {
          "internalType": "uint256",
          "name": "FlightCost",
          "type": "uint256"
        },
        {
          "internalType": "uint32",
          "name": "FlightStatus",
          "type": "uint32"
        },
        {
          "internalType": "uint256",
          "name": "FlightRefund",
          "type": "uint256"
        },
        {
          "internalType": "uint256",
          "name": "BookingRefund",
          "type": "uint256"
        },
        {
          "internalType": "uint256",
          "name": "DelayRefund",
          "type": "uint256"
        }
      ],
      "stateMutability": "view",
      "type": "function"
    },
    {
      "inputs": [
        {
          "internalType": "address",
          "name": "",
          "type": "address"
        }
      ],
      "name": "flightPassengers",
      "outputs": [
        {
          "internalType": "address",
          "name": "FlightID",
          "type": "address"
        }
      ],
      "stateMutability": "view",
      "type": "function"
    },
    {
      "inputs": [
        {
          "internalType": "address",
          "name": "",
          "type": "address"
        }
      ],
      "name": "isAdmin",
      "outputs": [
        {
          "internalType": "bool",
          "name": "",
          "type": "bool"
        }
      ],
      "stateMutability": "view",
      "type": "function"
    },
    {
      "inputs": [
        {
          "internalType": "address",
          "name": "",
          "type": "address"
        }
      ],
      "name": "isAirLineListed",
      "outputs": [
        {
          "internalType": "bool",
          "name": "",
          "type": "bool"
        }
      ],
      "stateMutability": "view",
      "type": "function"
    },
    {
      "inputs": [
        {
          "internalType": "address",
          "name": "",
          "type": "address"
        }
      ],
      "name": "isAuthorizer",
      "outputs": [
        {
          "internalType": "bool",
          "name": "",
          "type": "bool"
        }
      ],
      "stateMutability": "view",
      "type": "function"
    },
    {
      "inputs": [
        {
          "internalType": "address",
          "name": "",
          "type": "address"
        }
      ],
      "name": "isBlackListed",
      "outputs": [
        {
          "internalType": "bool",
          "name": "",
          "type": "bool"
        }
      ],
      "stateMutability": "view",
      "type": "function"
    },
    {
      "inputs": [
        {
          "internalType": "address",
          "name": "",
          "type": "address"
        }
      ],
      "name": "isUserListed",
      "outputs": [
        {
          "internalType": "bool",
          "name": "",
          "type": "bool"
        }
      ],
      "stateMutability": "view",
      "type": "function"
    },
    {
      "inputs": [
        {
          "internalType": "address",
          "name": "",
          "type": "address"
        }
      ],
      "name": "refunds",
      "outputs": [
        {
          "internalType": "uint32",
          "name": "FLIGHT_REFUND",
          "type": "uint32"
        },
        {
          "internalType": "uint32",
          "name": "BOOKING_REFUND",
          "type": "uint32"
        },
        {
          "internalType": "uint32",
          "name": "DELAYED_REFUND",
          "type": "uint32"
        }
      ],
      "stateMutability": "view",
      "type": "function"
    },
    {
      "inputs": [
        {
          "internalType": "uint32",
          "name": "FlightStatus",
          "type": "uint32"
        }
      ],
      "name": "setAirline",
      "outputs": [
        {
          "internalType": "bool",
          "name": "",
          "type": "bool"
        }
      ],
      "stateMutability": "nonpayable",
      "type": "function"
    },
    {
      "inputs": [],
      "name": "getAirline",
      "outputs": [
        {
          "components": [
            {
              "internalType": "address",
              "name": "AirlineID",
              "type": "address"
            },
            {
              "internalType": "string",
              "name": "FlightCode",
              "type": "string"
            },
            {
              "internalType": "string",
              "name": "FlightDeparture",
              "type": "string"
            },
            {
              "internalType": "string",
              "name": "FlightArrival",
              "type": "string"
            },
            {
              "internalType": "string",
              "name": "FlightTime",
              "type": "string"
            },
            {
              "internalType": "uint256",
              "name": "FlightCost",
              "type": "uint256"
            },
            {
              "internalType": "uint32",
              "name": "FlightStatus",
              "type": "uint32"
            },
            {
              "internalType": "uint256",
              "name": "FlightRefund",
              "type": "uint256"
            },
            {
              "internalType": "uint256",
              "name": "BookingRefund",
              "type": "uint256"
            },
            {
              "internalType": "uint256",
              "name": "DelayRefund",
              "type": "uint256"
            }
          ],
          "internalType": "struct ExternalStorage.EscrowDetails",
          "name": "",
          "type": "tuple"
        }
      ],
      "stateMutability": "view",
      "type": "function"
    }
  ],
  "bytecode": "0x60806040523480156200001157600080fd5b506040516200174e3803806200174e83398181016040528101906200003791906200046a565b88601060000160006101000a81548173ffffffffffffffffffffffffffffffffffffffff021916908373ffffffffffffffffffffffffffffffffffffffff1602179055508760106001019080519060200190620000969291906200013c565b508660106002019080519060200190620000b29291906200013c565b508560106003019080519060200190620000ce9291906200013c565b508460106004019080519060200190620000ea9291906200013c565b5083601060060160006101000a81548163ffffffff021916908363ffffffff1602179055508260106007018190555081601060080181905550806010600901819055505050505050505050506200062a565b8280546200014a90620005f4565b90600052602060002090601f0160209004810192826200016e5760008555620001ba565b82601f106200018957805160ff1916838001178555620001ba565b82800160010185558215620001ba579182015b82811115620001b95782518255916020019190600101906200019c565b5b509050620001c99190620001cd565b5090565b5b80821115620001e8576000816000905550600101620001ce565b5090565b6000604051905090565b600080fd5b600080fd5b600073ffffffffffffffffffffffffffffffffffffffff82169050919050565b60006200022d8262000200565b9050919050565b6200023f8162000220565b81146200024b57600080fd5b50565b6000815190506200025f8162000234565b92915050565b600080fd5b600080fd5b6000601f19601f8301169050919050565b7f4e487b7100000000000000000000000000000000000000000000000000000000600052604160045260246000fd5b620002ba826200026f565b810181811067ffffffffffffffff82111715620002dc57620002db62000280565b5b80604052505050565b6000620002f1620001ec565b9050620002ff8282620002af565b919050565b600067ffffffffffffffff82111562000322576200032162000280565b5b6200032d826200026f565b9050602081019050919050565b60005b838110156200035a5780820151818401526020810190506200033d565b838111156200036a576000848401525b50505050565b600062000387620003818462000304565b620002e5565b905082815260208101848484011115620003a657620003a56200026a565b5b620003b38482856200033a565b509392505050565b600082601f830112620003d357620003d262000265565b5b8151620003e584826020860162000370565b91505092915050565b600063ffffffff82169050919050565b6200040981620003ee565b81146200041557600080fd5b50565b6000815190506200042981620003fe565b92915050565b6000819050919050565b62000444816200042f565b81146200045057600080fd5b50565b600081519050620004648162000439565b92915050565b60008060008060008060008060006101208a8c03121562000490576200048f620001f6565b5b6000620004a08c828d016200024e565b99505060208a015167ffffffffffffffff811115620004c457620004c3620001fb565b5b620004d28c828d01620003bb565b98505060408a015167ffffffffffffffff811115620004f657620004f5620001fb565b5b620005048c828d01620003bb565b97505060608a015167ffffffffffffffff811115620005285762000527620001fb565b5b620005368c828d01620003bb565b96505060808a015167ffffffffffffffff8111156200055a5762000559620001fb565b5b620005688c828d01620003bb565b95505060a06200057b8c828d0162000418565b94505060c06200058e8c828d0162000453565b93505060e0620005a18c828d0162000453565b925050610100620005b58c828d0162000453565b9150509295985092959850929598565b7f4e487b7100000000000000000000000000000000000000000000000000000000600052602260045260246000fd5b600060028204905060018216806200060d57607f821691505b60208210811415620006245762000623620005c5565b5b50919050565b611114806200063a6000396000f3fe608060405234801561001057600080fd5b50600436106100cf5760003560e01c8063c72e66c91161008c578063dd0df08811610066578063dd0df0881461026b578063e47d60601461029e578063fd12c592146102ce578063feeba73614610301576100cf565b8063c72e66c9146101f6578063c845c0c214610226578063ca5f1c1b14610244576100cf565b8063091c18aa146100d457806324d7806c146101045780633cc0f5f21461013457806346e7ccac14610164578063934e39dd14610194578063bc3da535146101c4575b600080fd5b6100ee60048036038101906100e99190610bc8565b610332565b6040516100fb9190610c10565b60405180910390f35b61011e60048036038101906101199190610bc8565b610352565b60405161012b9190610c10565b60405180910390f35b61014e60048036038101906101499190610bc8565b610372565b60405161015b9190610c10565b60405180910390f35b61017e60048036038101906101799190610bc8565b610392565b60405161018b9190610c10565b60405180910390f35b6101ae60048036038101906101a99190610c67565b6103b2565b6040516101bb9190610c10565b60405180910390f35b6101de60048036038101906101d99190610bc8565b6103e1565b6040516101ed93929190610ca3565b60405180910390f35b610210600480360381019061020b9190610bc8565b61043b565b60405161021d9190610ce9565b60405180910390f35b61022e610479565b60405161023b9190610ec3565b60405180910390f35b61024c610780565b6040516102629a99989796959493929190610f3e565b60405180910390f35b61028560048036038101906102809190610bc8565b610a12565b604051610295949392919061100f565b60405180910390f35b6102b860048036038101906102b39190610bc8565b610a62565b6040516102c59190610c10565b60405180910390f35b6102e860048036038101906102e39190610bc8565b610a82565b6040516102f8949392919061100f565b60405180910390f35b61031b60048036038101906103169190610bc8565b610ad2565b604051610329929190611054565b60405180910390f35b600b6020528060005260406000206000915054906101000a900460ff1681565b60086020528060005260406000206000915054906101000a900460ff1681565b600a6020528060005260406000206000915054906101000a900460ff1681565b60096020528060005260406000206000915054906101000a900460ff1681565b600081601060060160006101000a81548163ffffffff021916908363ffffffff16021790555060019050919050565b601e6020528060005260406000206000915090508060000160009054906101000a900463ffffffff16908060000160049054906101000a900463ffffffff16908060000160089054906101000a900463ffffffff16905083565b601d6020528060005260406000206000915090508060000160009054906101000a900473ffffffffffffffffffffffffffffffffffffffff16905081565b610481610af6565b6010604051806101400160405290816000820160009054906101000a900473ffffffffffffffffffffffffffffffffffffffff1673ffffffffffffffffffffffffffffffffffffffff1673ffffffffffffffffffffffffffffffffffffffff1681526020016001820180546104f5906110ac565b80601f0160208091040260200160405190810160405280929190818152602001828054610521906110ac565b801561056e5780601f106105435761010080835404028352916020019161056e565b820191906000526020600020905b81548152906001019060200180831161055157829003601f168201915b50505050508152602001600282018054610587906110ac565b80601f01602080910402602001604051908101604052809291908181526020018280546105b3906110ac565b80156106005780601f106105d557610100808354040283529160200191610600565b820191906000526020600020905b8154815290600101906020018083116105e357829003601f168201915b50505050508152602001600382018054610619906110ac565b80601f0160208091040260200160405190810160405280929190818152602001828054610645906110ac565b80156106925780601f1061066757610100808354040283529160200191610692565b820191906000526020600020905b81548152906001019060200180831161067557829003601f168201915b505050505081526020016004820180546106ab906110ac565b80601f01602080910402602001604051908101604052809291908181526020018280546106d7906110ac565b80156107245780601f106106f957610100808354040283529160200191610724565b820191906000526020600020905b81548152906001019060200180831161070757829003601f168201915b50505050508152602001600582015481526020016006820160009054906101000a900463ffffffff1663ffffffff1663ffffffff1681526020016007820154815260200160088201548152602001600982015481525050905090565b60108060000160009054906101000a900473ffffffffffffffffffffffffffffffffffffffff16908060010180546107b7906110ac565b80601f01602080910402602001604051908101604052809291908181526020018280546107e3906110ac565b80156108305780601f1061080557610100808354040283529160200191610830565b820191906000526020600020905b81548152906001019060200180831161081357829003601f168201915b505050505090806002018054610845906110ac565b80601f0160208091040260200160405190810160405280929190818152602001828054610871906110ac565b80156108be5780601f10610893576101008083540402835291602001916108be565b820191906000526020600020905b8154815290600101906020018083116108a157829003601f168201915b5050505050908060030180546108d3906110ac565b80601f01602080910402602001604051908101604052809291908181526020018280546108ff906110ac565b801561094c5780601f106109215761010080835404028352916020019161094c565b820191906000526020600020905b81548152906001019060200180831161092f57829003601f168201915b505050505090806004018054610961906110ac565b80601f016020809104026020016040519081016040528092919081815260200182805461098d906110ac565b80156109da5780601f106109af576101008083540402835291602001916109da565b820191906000526020600020905b8154815290600101906020018083116109bd57829003601f168201915b5050505050908060050154908060060160009054906101000a900463ffffffff1690806007015490806008015490806009015490508a565b601a6020528060005260406000206000915090508060000160009054906101000a900473ffffffffffffffffffffffffffffffffffffffff16908060010154908060020154908060030154905084565b600c6020528060005260406000206000915054906101000a900460ff1681565b601b6020528060005260406000206000915090508060000160009054906101000a900473ffffffffffffffffffffffffffffffffffffffff16908060010154908060020154908060030154905084565b601c6020528060005260406000206000915090508060000154908060010154905082565b604051806101400160405280600073ffffffffffffffffffffffffffffffffffffffff1681526020016060815260200160608152602001606081526020016060815260200160008152602001600063ffffffff1681526020016000815260200160008152602001600081525090565b600080fd5b600073ffffffffffffffffffffffffffffffffffffffff82169050919050565b6000610b9582610b6a565b9050919050565b610ba581610b8a565b8114610bb057600080fd5b50565b600081359050610bc281610b9c565b92915050565b600060208284031215610bde57610bdd610b65565b5b6000610bec84828501610bb3565b91505092915050565b60008115159050919050565b610c0a81610bf5565b82525050565b6000602082019050610c256000830184610c01565b92915050565b600063ffffffff82169050919050565b610c4481610c2b565b8114610c4f57600080fd5b50565b600081359050610c6181610c3b565b92915050565b600060208284031215610c7d57610c7c610b65565b5b6000610c8b84828501610c52565b91505092915050565b610c9d81610c2b565b82525050565b6000606082019050610cb86000830186610c94565b610cc56020830185610c94565b610cd26040830184610c94565b949350505050565b610ce381610b8a565b82525050565b6000602082019050610cfe6000830184610cda565b92915050565b610d0d81610b8a565b82525050565b600081519050919050565b600082825260208201905092915050565b60005b83811015610d4d578082015181840152602081019050610d32565b83811115610d5c576000848401525b50505050565b6000601f19601f8301169050919050565b6000610d7e82610d13565b610d888185610d1e565b9350610d98818560208601610d2f565b610da181610d62565b840191505092915050565b6000819050919050565b610dbf81610dac565b82525050565b610dce81610c2b565b82525050565b600061014083016000830151610ded6000860182610d04565b5060208301518482036020860152610e058282610d73565b91505060408301518482036040860152610e1f8282610d73565b91505060608301518482036060860152610e398282610d73565b91505060808301518482036080860152610e538282610d73565b91505060a0830151610e6860a0860182610db6565b5060c0830151610e7b60c0860182610dc5565b5060e0830151610e8e60e0860182610db6565b50610100830151610ea3610100860182610db6565b50610120830151610eb8610120860182610db6565b508091505092915050565b60006020820190508181036000830152610edd8184610dd4565b905092915050565b600082825260208201905092915050565b6000610f0182610d13565b610f0b8185610ee5565b9350610f1b818560208601610d2f565b610f2481610d62565b840191505092915050565b610f3881610dac565b82525050565b600061014082019050610f54600083018d610cda565b8181036020830152610f66818c610ef6565b90508181036040830152610f7a818b610ef6565b90508181036060830152610f8e818a610ef6565b90508181036080830152610fa28189610ef6565b9050610fb160a0830188610f2f565b610fbe60c0830187610c94565b610fcb60e0830186610f2f565b610fd9610100830185610f2f565b610fe7610120830184610f2f565b9b9a5050505050505050505050565b6000819050919050565b61100981610ff6565b82525050565b60006080820190506110246000830187610cda565b6110316020830186611000565b61103e6040830185611000565b61104b6060830184611000565b95945050505050565b60006040820190506110696000830185610f2f565b6110766020830184610f2f565b9392505050565b7f4e487b7100000000000000000000000000000000000000000000000000000000600052602260045260246000fd5b600060028204905060018216806110c457607f821691505b602082108114156110d8576110d761107d565b5b5091905056fea264697066735822122078914519513380d92038cd204b7426e9c1f5f5723b6b5b50c77b3b2c6843a75264736f6c634300080b0033",
  "immutableReferences": {},
  "source": "// SPDX-License-Identifier: MIT OR LGPL-2.0-or-later\n\npragma solidity ^0.8.5;\n\nimport \"./ExternalStorage.sol\";\n\n/**\n * @title Escrow token\n *\n * @dev Implementation of the Escrow standard token.\n */\ncontract Escrow is ExternalStorage {\n   /**\n    * @dev Sets airline and flight detail for escrow\n    */\n    constructor (\n        address _airline, \n        string memory _flightCode,\n        string memory _flightDeparture, \n        string memory _flightArrival, \n        string memory _flightTime,\n        uint32 _flightStatus,\n        uint256 _flightRefund,\n        uint256 _bookingRefund,\n        uint256 _delayRefund\n        )  \n         {\n        escrows.AirlineID = _airline;\n        escrows.FlightCode = _flightCode;\n        escrows.FlightDeparture = _flightDeparture;\n        escrows.FlightArrival = _flightArrival;\n        escrows.FlightTime = _flightTime;\n        escrows.FlightStatus = _flightStatus;\n        escrows.FlightRefund = _flightRefund;\n        escrows.BookingRefund = _bookingRefund;\n        escrows.DelayRefund = _delayRefund;\n}\n\n   //SETTERS\n    function setAirline(\n            uint32 FlightStatus\n      ) \n        public  \n        returns (bool) {\n            escrows.FlightStatus = FlightStatus;\n        return (true);\n    }\n\n    //GETTERS\n    function getAirline() \n        public \n        view \n        returns (\n            EscrowDetails memory\n            ) {\n        return (\n            escrows\n            );\n    }\n}\n",
  "sourcePath": "/Users/jesudarajeminusi/ConvexityProjs/wrapcbdc/wrap-cbdc-web3/contracts/Escrow.sol",
  "compiler": {
    "name": "solc",
    "version": "0.8.11+commit.d7f03943.Emscripten.clang"
  },
  "schemaVersion": "3.4.6",
  "updatedAt": "2022-07-05T21:33:51.318Z",
  "devdoc": {
    "details": "Implementation of the Escrow standard token.",
    "kind": "dev",
    "methods": {
      "constructor": {
        "details": "Sets airline and flight detail for escrow"
      }
    },
    "title": "Escrow token",
    "version": 1
  },
  "userdoc": {
    "kind": "user",
    "methods": {},
    "version": 1
  }
}