{
  "contractName": "ExternalStorage",
  "abi": [
    {
      "anonymous": false,
      "inputs": [
        {
          "indexed": true,
          "internalType": "address",
          "name": "Admin",
          "type": "address"
        }
      ],
      "name": "AdminAdded",
      "type": "event"
    },
    {
      "anonymous": false,
      "inputs": [
        {
          "indexed": true,
          "internalType": "address",
          "name": "Admin",
          "type": "address"
        }
      ],
      "name": "AdminRemoved",
      "type": "event"
    },
    {
      "anonymous": false,
      "inputs": [
        {
          "indexed": true,
          "internalType": "address",
          "name": "Authorizer",
          "type": "address"
        }
      ],
      "name": "AuthorizerAdded",
      "type": "event"
    },
    {
      "anonymous": false,
      "inputs": [
        {
          "indexed": true,
          "internalType": "address",
          "name": "Authorizer",
          "type": "address"
        }
      ],
      "name": "AuthorizerRemoved",
      "type": "event"
    },
    {
      "anonymous": false,
      "inputs": [
        {
          "indexed": true,
          "internalType": "address",
          "name": "RedeemedUser",
          "type": "address"
        }
      ],
      "name": "RemoveUserBlackList",
      "type": "event"
    },
    {
      "anonymous": false,
      "inputs": [
        {
          "indexed": true,
          "internalType": "address",
          "name": "User",
          "type": "address"
        }
      ],
      "name": "RemovedUserList",
      "type": "event"
    },
    {
      "anonymous": false,
      "inputs": [
        {
          "indexed": true,
          "internalType": "address",
          "name": "EvilUser",
          "type": "address"
        }
      ],
      "name": "SetBlackListEvent",
      "type": "event"
    },
    {
      "anonymous": false,
      "inputs": [
        {
          "indexed": true,
          "internalType": "address",
          "name": "User",
          "type": "address"
        }
      ],
      "name": "SetUserListEvent",
      "type": "event"
    },
    {
      "inputs": [
        {
          "internalType": "address",
          "name": "",
          "type": "address"
        }
      ],
      "name": "Airlines",
      "outputs": [
        {
          "internalType": "address",
          "name": "AirlineAddr",
          "type": "address"
        },
        {
          "internalType": "bytes32",
          "name": "NameAirline",
          "type": "bytes32"
        },
        {
          "internalType": "bytes32",
          "name": "PhoneAirline",
          "type": "bytes32"
        },
        {
          "internalType": "bytes32",
          "name": "EmailAirline",
          "type": "bytes32"
        }
      ],
      "stateMutability": "view",
      "type": "function"
    },
    {
      "inputs": [
        {
          "internalType": "address",
          "name": "",
          "type": "address"
        }
      ],
      "name": "PassengerClaim",
      "outputs": [
        {
          "internalType": "uint256",
          "name": "TotalAmountClaimed",
          "type": "uint256"
        },
        {
          "internalType": "uint256",
          "name": "NumberOfPassengers",
          "type": "uint256"
        }
      ],
      "stateMutability": "view",
      "type": "function"
    },
    {
      "inputs": [
        {
          "internalType": "address",
          "name": "",
          "type": "address"
        }
      ],
      "name": "Passengers",
      "outputs": [
        {
          "internalType": "address",
          "name": "PassengerAddr",
          "type": "address"
        },
        {
          "internalType": "bytes32",
          "name": "NamePassenger",
          "type": "bytes32"
        },
        {
          "internalType": "bytes32",
          "name": "PhonePassenger",
          "type": "bytes32"
        },
        {
          "internalType": "bytes32",
          "name": "EmailPassenger",
          "type": "bytes32"
        }
      ],
      "stateMutability": "view",
      "type": "function"
    },
    {
      "inputs": [],
      "name": "escrows",
      "outputs": [
        {
          "internalType": "address",
          "name": "AirlineID",
          "type": "address"
        },
        {
          "internalType": "string",
          "name": "FlightCode",
          "type": "string"
        },
        {
          "internalType": "string",
          "name": "FlightDeparture",
          "type": "string"
        },
        {
          "internalType": "string",
          "name": "FlightArrival",
          "type": "string"
        },
        {
          "internalType": "string",
          "name": "FlightTime",
          "type": "string"
        },
        {
          "internalType": "uint256",
          "name": "FlightCost",
          "type": "uint256"
        },
        {
          "internalType": "uint32",
          "name": "FlightStatus",
          "type": "uint32"
        },
        {
          "internalType": "uint256",
          "name": "FlightRefund",
          "type": "uint256"
        },
        {
          "internalType": "uint256",
          "name": "BookingRefund",
          "type": "uint256"
        },
        {
          "internalType": "uint256",
          "name": "DelayRefund",
          "type": "uint256"
        }
      ],
      "stateMutability": "view",
      "type": "function"
    },
    {
      "inputs": [
        {
          "internalType": "address",
          "name": "",
          "type": "address"
        }
      ],
      "name": "flightPassengers",
      "outputs": [
        {
          "internalType": "address",
          "name": "FlightID",
          "type": "address"
        }
      ],
      "stateMutability": "view",
      "type": "function"
    },
    {
      "inputs": [
        {
          "internalType": "address",
          "name": "",
          "type": "address"
        }
      ],
      "name": "isAdmin",
      "outputs": [
        {
          "internalType": "bool",
          "name": "",
          "type": "bool"
        }
      ],
      "stateMutability": "view",
      "type": "function"
    },
    {
      "inputs": [
        {
          "internalType": "address",
          "name": "",
          "type": "address"
        }
      ],
      "name": "isAirLineListed",
      "outputs": [
        {
          "internalType": "bool",
          "name": "",
          "type": "bool"
        }
      ],
      "stateMutability": "view",
      "type": "function"
    },
    {
      "inputs": [
        {
          "internalType": "address",
          "name": "",
          "type": "address"
        }
      ],
      "name": "isAuthorizer",
      "outputs": [
        {
          "internalType": "bool",
          "name": "",
          "type": "bool"
        }
      ],
      "stateMutability": "view",
      "type": "function"
    },
    {
      "inputs": [
        {
          "internalType": "address",
          "name": "",
          "type": "address"
        }
      ],
      "name": "isBlackListed",
      "outputs": [
        {
          "internalType": "bool",
          "name": "",
          "type": "bool"
        }
      ],
      "stateMutability": "view",
      "type": "function"
    },
    {
      "inputs": [
        {
          "internalType": "address",
          "name": "",
          "type": "address"
        }
      ],
      "name": "isUserListed",
      "outputs": [
        {
          "internalType": "bool",
          "name": "",
          "type": "bool"
        }
      ],
      "stateMutability": "view",
      "type": "function"
    },
    {
      "inputs": [
        {
          "internalType": "address",
          "name": "",
          "type": "address"
        }
      ],
      "name": "refunds",
      "outputs": [
        {
          "internalType": "uint32",
          "name": "FLIGHT_REFUND",
          "type": "uint32"
        },
        {
          "internalType": "uint32",
          "name": "BOOKING_REFUND",
          "type": "uint32"
        },
        {
          "internalType": "uint32",
          "name": "DELAYED_REFUND",
          "type": "uint32"
        }
      ],
      "stateMutability": "view",
      "type": "function"
    }
  ],
  "bytecode": "0x608060405234801561001057600080fd5b50610b1a806100206000396000f3fe608060405234801561001057600080fd5b50600436106100a95760003560e01c8063c72e66c911610071578063c72e66c9146101a0578063ca5f1c1b146101d0578063dd0df088146101f7578063e47d60601461022a578063fd12c5921461025a578063feeba7361461028d576100a9565b8063091c18aa146100ae57806324d7806c146100de5780633cc0f5f21461010e57806346e7ccac1461013e578063bc3da5351461016e575b600080fd5b6100c860048036038101906100c391906107af565b6102be565b6040516100d591906107f7565b60405180910390f35b6100f860048036038101906100f391906107af565b6102de565b60405161010591906107f7565b60405180910390f35b610128600480360381019061012391906107af565b6102fe565b60405161013591906107f7565b60405180910390f35b610158600480360381019061015391906107af565b61031e565b60405161016591906107f7565b60405180910390f35b610188600480360381019061018391906107af565b61033e565b60405161019793929190610831565b60405180910390f35b6101ba60048036038101906101b591906107af565b610398565b6040516101c79190610877565b60405180910390f35b6101d86103d6565b6040516101ee9a99989796959493929190610944565b60405180910390f35b610211600480360381019061020c91906107af565b610668565b6040516102219493929190610a15565b60405180910390f35b610244600480360381019061023f91906107af565b6106b8565b60405161025191906107f7565b60405180910390f35b610274600480360381019061026f91906107af565b6106d8565b6040516102849493929190610a15565b60405180910390f35b6102a760048036038101906102a291906107af565b610728565b6040516102b5929190610a5a565b60405180910390f35b600b6020528060005260406000206000915054906101000a900460ff1681565b60086020528060005260406000206000915054906101000a900460ff1681565b600a6020528060005260406000206000915054906101000a900460ff1681565b60096020528060005260406000206000915054906101000a900460ff1681565b601e6020528060005260406000206000915090508060000160009054906101000a900463ffffffff16908060000160049054906101000a900463ffffffff16908060000160089054906101000a900463ffffffff16905083565b601d6020528060005260406000206000915090508060000160009054906101000a900473ffffffffffffffffffffffffffffffffffffffff16905081565b60108060000160009054906101000a900473ffffffffffffffffffffffffffffffffffffffff169080600101805461040d90610ab2565b80601f016020809104026020016040519081016040528092919081815260200182805461043990610ab2565b80156104865780601f1061045b57610100808354040283529160200191610486565b820191906000526020600020905b81548152906001019060200180831161046957829003601f168201915b50505050509080600201805461049b90610ab2565b80601f01602080910402602001604051908101604052809291908181526020018280546104c790610ab2565b80156105145780601f106104e957610100808354040283529160200191610514565b820191906000526020600020905b8154815290600101906020018083116104f757829003601f168201915b50505050509080600301805461052990610ab2565b80601f016020809104026020016040519081016040528092919081815260200182805461055590610ab2565b80156105a25780601f10610577576101008083540402835291602001916105a2565b820191906000526020600020905b81548152906001019060200180831161058557829003601f168201915b5050505050908060040180546105b790610ab2565b80601f01602080910402602001604051908101604052809291908181526020018280546105e390610ab2565b80156106305780601f1061060557610100808354040283529160200191610630565b820191906000526020600020905b81548152906001019060200180831161061357829003601f168201915b5050505050908060050154908060060160009054906101000a900463ffffffff1690806007015490806008015490806009015490508a565b601a6020528060005260406000206000915090508060000160009054906101000a900473ffffffffffffffffffffffffffffffffffffffff16908060010154908060020154908060030154905084565b600c6020528060005260406000206000915054906101000a900460ff1681565b601b6020528060005260406000206000915090508060000160009054906101000a900473ffffffffffffffffffffffffffffffffffffffff16908060010154908060020154908060030154905084565b601c6020528060005260406000206000915090508060000154908060010154905082565b600080fd5b600073ffffffffffffffffffffffffffffffffffffffff82169050919050565b600061077c82610751565b9050919050565b61078c81610771565b811461079757600080fd5b50565b6000813590506107a981610783565b92915050565b6000602082840312156107c5576107c461074c565b5b60006107d38482850161079a565b91505092915050565b60008115159050919050565b6107f1816107dc565b82525050565b600060208201905061080c60008301846107e8565b92915050565b600063ffffffff82169050919050565b61082b81610812565b82525050565b60006060820190506108466000830186610822565b6108536020830185610822565b6108606040830184610822565b949350505050565b61087181610771565b82525050565b600060208201905061088c6000830184610868565b92915050565b600081519050919050565b600082825260208201905092915050565b60005b838110156108cc5780820151818401526020810190506108b1565b838111156108db576000848401525b50505050565b6000601f19601f8301169050919050565b60006108fd82610892565b610907818561089d565b93506109178185602086016108ae565b610920816108e1565b840191505092915050565b6000819050919050565b61093e8161092b565b82525050565b60006101408201905061095a600083018d610868565b818103602083015261096c818c6108f2565b90508181036040830152610980818b6108f2565b90508181036060830152610994818a6108f2565b905081810360808301526109a881896108f2565b90506109b760a0830188610935565b6109c460c0830187610822565b6109d160e0830186610935565b6109df610100830185610935565b6109ed610120830184610935565b9b9a5050505050505050505050565b6000819050919050565b610a0f816109fc565b82525050565b6000608082019050610a2a6000830187610868565b610a376020830186610a06565b610a446040830185610a06565b610a516060830184610a06565b95945050505050565b6000604082019050610a6f6000830185610935565b610a7c6020830184610935565b9392505050565b7f4e487b7100000000000000000000000000000000000000000000000000000000600052602260045260246000fd5b60006002820490506001821680610aca57607f821691505b60208210811415610ade57610add610a83565b5b5091905056fea264697066735822122052f547677e819c6f849c07eeb30b1c1d2fd346cb88c885ee1245787ba0d3332664736f6c634300080b0033",
  "immutableReferences": {},
  "source": "// SPDX-License-Identifier: MIT OR LGPL-2.0-or-later\npragma solidity ^0.8.5;\n\nimport \"./Ownable.sol\";\n\n/**\n * @dev Contract module which provides a basic storage system.\n *\n * This module is used through inheritance. It will make available the contract\n * addresses created, owners/flight bookers of the escrow contract and record detailing \n * detailing how much is withdrawable from the escrow.\n */\ncontract ExternalStorage {\n\n    uint256 internal _totalIssued;\n    uint256 internal _totalRedeemed;\n    uint256 internal _totalSupply;\n\n    address[] internal admins;\n    address[] internal authorizers;\n    address[] internal airlinesList;\n    address[] internal usersList;\n    address[] internal blackList;\n\n    mapping(address => bool) public isAdmin;\n    mapping(address => bool) public isAuthorizer;\n    mapping(address => bool) public isAirLineListed;\n    mapping(address => bool) public isUserListed;\n    mapping(address => bool) public isBlackListed;\n\n    string internal constant SuperAdmin = \"SuperAdmin\";\n\n    APDetails internal apDetails;\n    EscrowDetails public escrows;\n\n    mapping(address => AirlineDetails) public Airlines;\n    mapping(address => PassengerDetails) public Passengers;\n    mapping(address => PassengerClaims) public PassengerClaim;\n    mapping(address => EscrowPassengers) public flightPassengers;\n    mapping(address => RefundSettings) public refunds;\n\n    mapping(string => address) superAdmin;\n    mapping(address => AdminDetails) Admins;\n\n    //Events for UserManagement\n    event AdminAdded(address indexed Admin);\n    event AdminRemoved(address indexed Admin);\n    event AuthorizerAdded(address indexed Authorizer);\n    event AuthorizerRemoved(address indexed Authorizer);\n    event SetUserListEvent(address indexed User);\n    event RemovedUserList(address indexed User);\n    event SetBlackListEvent(address indexed EvilUser);\n    event RemoveUserBlackList(address indexed RedeemedUser);\n\n    enum FlightStatus {PENDING, DELAYED, ONGOING, COMPLETED, CANCELLED}\n\n    //Refund settings\n    struct RefundSettings {\n        uint32 FLIGHT_REFUND;\n        uint32 BOOKING_REFUND;\n        uint32 DELAYED_REFUND;\n    }\n\n    //Admin Details\n    struct AdminDetails {\n        address AdminID;\n        bytes32 AdminName;\n        address AddedBy;\n    }\n\n    //Struct for Aeropaye detail\n    struct APDetails {\n        address APAddr;\n        bytes32 PhoneAP;\n        bytes32 EmailAP;\n    }\n\n    //Struct for Airline detail\n    struct AirlineDetails {\n        address AirlineAddr;\n        bytes32 NameAirline;\n        bytes32 PhoneAirline;\n        bytes32 EmailAirline;\n    }\n    \n\n    //Struct for Passenger detail\n    struct PassengerDetails {\n        address PassengerAddr;\n        bytes32 NamePassenger;\n        bytes32 PhonePassenger;\n        bytes32 EmailPassenger;\n    }\n\n    //Struct for Passenger booking detail\n    struct PassengerBookingDetails {\n        address FlightID; //escrow address\n        address BookedBy; //paid by\n        string FlightClass;\n        uint256 FlightCost;\n        uint256 FlightCostClaimed;\n        uint256 FlightStatus;\n        string FlightSeat;\n        uint256 FlightRefund;\n        bool CheckedIn;\n    }\n\n    //Struct for Passenger claims record\n    struct PassengerClaims {\n        uint256 TotalAmountClaimed;\n        uint256 NumberOfPassengers;\n    }\n\n    //Struct for Escrow passengers amount paid\n    struct EscrowPassengers {\n        address FlightID; //escrow address\n        mapping(address => PassengerBookingDetails[]) passengers;\n    }\n  \n      //Struct for Escrow detail\n    struct EscrowDetails {\n        address AirlineID; //airline address\n        string FlightCode; //flight code\n        string FlightDeparture; \n        string FlightArrival;\n        string FlightTime;\n        uint256 FlightCost;\n        uint32 FlightStatus;\n        uint256 FlightRefund;\n        uint256 BookingRefund;\n        uint256 DelayRefund;\n    }\n}\n",
  "sourcePath": "/Users/jesudarajeminusi/ConvexityProjs/wrapcbdc/wrap-cbdc-web3/contracts/ExternalStorage.sol",
  "compiler": {
    "name": "solc",
    "version": "0.8.11+commit.d7f03943.Emscripten.clang"
  },
  "schemaVersion": "3.4.6",
  "updatedAt": "2022-07-05T21:33:51.350Z",
  "devdoc": {
    "details": "Contract module which provides a basic storage system. This module is used through inheritance. It will make available the contract addresses created, owners/flight bookers of the escrow contract and record detailing  detailing how much is withdrawable from the escrow.",
    "kind": "dev",
    "methods": {},
    "version": 1
  },
  "userdoc": {
    "kind": "user",
    "methods": {},
    "version": 1
  }
}