{
  "contractName": "Getters",
  "abi": [
    {
      "inputs": [
        {
          "internalType": "address",
          "name": "_tokenAddress",
          "type": "address"
        },
        {
          "internalType": "address",
          "name": "_opAddress",
          "type": "address"
        }
      ],
      "stateMutability": "nonpayable",
      "type": "constructor"
    },
    {
      "anonymous": false,
      "inputs": [
        {
          "indexed": true,
          "internalType": "address",
          "name": "Admin",
          "type": "address"
        }
      ],
      "name": "AdminAdded",
      "type": "event"
    },
    {
      "anonymous": false,
      "inputs": [
        {
          "indexed": true,
          "internalType": "address",
          "name": "Admin",
          "type": "address"
        }
      ],
      "name": "AdminRemoved",
      "type": "event"
    },
    {
      "anonymous": false,
      "inputs": [
        {
          "indexed": true,
          "internalType": "address",
          "name": "Authorizer",
          "type": "address"
        }
      ],
      "name": "AuthorizerAdded",
      "type": "event"
    },
    {
      "anonymous": false,
      "inputs": [
        {
          "indexed": true,
          "internalType": "address",
          "name": "Authorizer",
          "type": "address"
        }
      ],
      "name": "AuthorizerRemoved",
      "type": "event"
    },
    {
      "anonymous": false,
      "inputs": [
        {
          "indexed": true,
          "internalType": "address",
          "name": "RedeemedUser",
          "type": "address"
        }
      ],
      "name": "RemoveUserBlackList",
      "type": "event"
    },
    {
      "anonymous": false,
      "inputs": [
        {
          "indexed": true,
          "internalType": "address",
          "name": "User",
          "type": "address"
        }
      ],
      "name": "RemovedUserList",
      "type": "event"
    },
    {
      "anonymous": false,
      "inputs": [
        {
          "indexed": true,
          "internalType": "address",
          "name": "EvilUser",
          "type": "address"
        }
      ],
      "name": "SetBlackListEvent",
      "type": "event"
    },
    {
      "anonymous": false,
      "inputs": [
        {
          "indexed": true,
          "internalType": "address",
          "name": "User",
          "type": "address"
        }
      ],
      "name": "SetUserListEvent",
      "type": "event"
    },
    {
      "inputs": [
        {
          "internalType": "address",
          "name": "",
          "type": "address"
        }
      ],
      "name": "Airlines",
      "outputs": [
        {
          "internalType": "address",
          "name": "AirlineAddr",
          "type": "address"
        },
        {
          "internalType": "bytes32",
          "name": "NameAirline",
          "type": "bytes32"
        },
        {
          "internalType": "bytes32",
          "name": "PhoneAirline",
          "type": "bytes32"
        },
        {
          "internalType": "bytes32",
          "name": "EmailAirline",
          "type": "bytes32"
        }
      ],
      "stateMutability": "view",
      "type": "function",
      "constant": true
    },
    {
      "inputs": [
        {
          "internalType": "address",
          "name": "",
          "type": "address"
        }
      ],
      "name": "PassengerClaim",
      "outputs": [
        {
          "internalType": "uint256",
          "name": "TotalAmountClaimed",
          "type": "uint256"
        },
        {
          "internalType": "uint256",
          "name": "NumberOfPassengers",
          "type": "uint256"
        }
      ],
      "stateMutability": "view",
      "type": "function",
      "constant": true
    },
    {
      "inputs": [
        {
          "internalType": "address",
          "name": "",
          "type": "address"
        }
      ],
      "name": "Passengers",
      "outputs": [
        {
          "internalType": "address",
          "name": "PassengerAddr",
          "type": "address"
        },
        {
          "internalType": "bytes32",
          "name": "NamePassenger",
          "type": "bytes32"
        },
        {
          "internalType": "bytes32",
          "name": "PhonePassenger",
          "type": "bytes32"
        },
        {
          "internalType": "bytes32",
          "name": "EmailPassenger",
          "type": "bytes32"
        }
      ],
      "stateMutability": "view",
      "type": "function",
      "constant": true
    },
    {
      "inputs": [],
      "name": "escrows",
      "outputs": [
        {
          "internalType": "address",
          "name": "AirlineID",
          "type": "address"
        },
        {
          "internalType": "string",
          "name": "FlightCode",
          "type": "string"
        },
        {
          "internalType": "string",
          "name": "FlightDeparture",
          "type": "string"
        },
        {
          "internalType": "string",
          "name": "FlightArrival",
          "type": "string"
        },
        {
          "internalType": "string",
          "name": "FlightTime",
          "type": "string"
        },
        {
          "internalType": "uint256",
          "name": "FlightCost",
          "type": "uint256"
        },
        {
          "internalType": "uint32",
          "name": "FlightStatus",
          "type": "uint32"
        },
        {
          "internalType": "uint256",
          "name": "FlightRefund",
          "type": "uint256"
        },
        {
          "internalType": "uint256",
          "name": "BookingRefund",
          "type": "uint256"
        },
        {
          "internalType": "uint256",
          "name": "DelayRefund",
          "type": "uint256"
        }
      ],
      "stateMutability": "view",
      "type": "function",
      "constant": true
    },
    {
      "inputs": [
        {
          "internalType": "address",
          "name": "",
          "type": "address"
        }
      ],
      "name": "flightPassengers",
      "outputs": [
        {
          "internalType": "address",
          "name": "FlightID",
          "type": "address"
        }
      ],
      "stateMutability": "view",
      "type": "function",
      "constant": true
    },
    {
      "inputs": [
        {
          "internalType": "address",
          "name": "",
          "type": "address"
        }
      ],
      "name": "isAdmin",
      "outputs": [
        {
          "internalType": "bool",
          "name": "",
          "type": "bool"
        }
      ],
      "stateMutability": "view",
      "type": "function",
      "constant": true
    },
    {
      "inputs": [
        {
          "internalType": "address",
          "name": "",
          "type": "address"
        }
      ],
      "name": "isAirLineListed",
      "outputs": [
        {
          "internalType": "bool",
          "name": "",
          "type": "bool"
        }
      ],
      "stateMutability": "view",
      "type": "function",
      "constant": true
    },
    {
      "inputs": [
        {
          "internalType": "address",
          "name": "",
          "type": "address"
        }
      ],
      "name": "isAuthorizer",
      "outputs": [
        {
          "internalType": "bool",
          "name": "",
          "type": "bool"
        }
      ],
      "stateMutability": "view",
      "type": "function",
      "constant": true
    },
    {
      "inputs": [
        {
          "internalType": "address",
          "name": "",
          "type": "address"
        }
      ],
      "name": "isBlackListed",
      "outputs": [
        {
          "internalType": "bool",
          "name": "",
          "type": "bool"
        }
      ],
      "stateMutability": "view",
      "type": "function",
      "constant": true
    },
    {
      "inputs": [
        {
          "internalType": "address",
          "name": "",
          "type": "address"
        }
      ],
      "name": "isUserListed",
      "outputs": [
        {
          "internalType": "bool",
          "name": "",
          "type": "bool"
        }
      ],
      "stateMutability": "view",
      "type": "function",
      "constant": true
    },
    {
      "inputs": [
        {
          "internalType": "address",
          "name": "",
          "type": "address"
        }
      ],
      "name": "refunds",
      "outputs": [
        {
          "internalType": "uint32",
          "name": "FLIGHT_REFUND",
          "type": "uint32"
        },
        {
          "internalType": "uint32",
          "name": "BOOKING_REFUND",
          "type": "uint32"
        },
        {
          "internalType": "uint32",
          "name": "DELAYED_REFUND",
          "type": "uint32"
        }
      ],
      "stateMutability": "view",
      "type": "function",
      "constant": true
    },
    {
      "inputs": [
        {
          "internalType": "address",
          "name": "_flightEscrow",
          "type": "address"
        },
        {
          "internalType": "address",
          "name": "_passenger",
          "type": "address"
        },
        {
          "internalType": "uint256",
          "name": "_keyId",
          "type": "uint256"
        }
      ],
      "name": "getPassengerFlightDetail",
      "outputs": [
        {
          "components": [
            {
              "internalType": "address",
              "name": "FlightID",
              "type": "address"
            },
            {
              "internalType": "address",
              "name": "BookedBy",
              "type": "address"
            },
            {
              "internalType": "string",
              "name": "FlightClass",
              "type": "string"
            },
            {
              "internalType": "uint256",
              "name": "FlightCost",
              "type": "uint256"
            },
            {
              "internalType": "uint256",
              "name": "FlightCostClaimed",
              "type": "uint256"
            },
            {
              "internalType": "uint256",
              "name": "FlightStatus",
              "type": "uint256"
            },
            {
              "internalType": "string",
              "name": "FlightSeat",
              "type": "string"
            },
            {
              "internalType": "uint256",
              "name": "FlightRefund",
              "type": "uint256"
            },
            {
              "internalType": "bool",
              "name": "CheckedIn",
              "type": "bool"
            }
          ],
          "internalType": "struct ExternalStorage.PassengerBookingDetails",
          "name": "",
          "type": "tuple"
        }
      ],
      "stateMutability": "view",
      "type": "function",
      "constant": true
    },
    {
      "inputs": [
        {
          "internalType": "contract Escrow",
          "name": "_flightEscrow",
          "type": "address"
        }
      ],
      "name": "getEscrowDetails",
      "outputs": [
        {
          "components": [
            {
              "internalType": "address",
              "name": "AirlineID",
              "type": "address"
            },
            {
              "internalType": "string",
              "name": "FlightCode",
              "type": "string"
            },
            {
              "internalType": "string",
              "name": "FlightDeparture",
              "type": "string"
            },
            {
              "internalType": "string",
              "name": "FlightArrival",
              "type": "string"
            },
            {
              "internalType": "string",
              "name": "FlightTime",
              "type": "string"
            },
            {
              "internalType": "uint256",
              "name": "FlightCost",
              "type": "uint256"
            },
            {
              "internalType": "uint32",
              "name": "FlightStatus",
              "type": "uint32"
            },
            {
              "internalType": "uint256",
              "name": "FlightRefund",
              "type": "uint256"
            },
            {
              "internalType": "uint256",
              "name": "BookingRefund",
              "type": "uint256"
            },
            {
              "internalType": "uint256",
              "name": "DelayRefund",
              "type": "uint256"
            }
          ],
          "internalType": "struct ExternalStorage.EscrowDetails",
          "name": "",
          "type": "tuple"
        }
      ],
      "stateMutability": "view",
      "type": "function",
      "constant": true
    },
    {
      "inputs": [
        {
          "internalType": "contract Escrow",
          "name": "_flightEscrow",
          "type": "address"
        }
      ],
      "name": "getEscrowTotal",
      "outputs": [
        {
          "internalType": "uint256",
          "name": "",
          "type": "uint256"
        }
      ],
      "stateMutability": "view",
      "type": "function",
      "constant": true
    },
    {
      "inputs": [
        {
          "internalType": "contract Escrow",
          "name": "_flightEscrow",
          "type": "address"
        },
        {
          "internalType": "address",
          "name": "_passenger",
          "type": "address"
        }
      ],
      "name": "getEscrowPassengerCount",
      "outputs": [
        {
          "internalType": "uint256",
          "name": "",
          "type": "uint256"
        }
      ],
      "stateMutability": "view",
      "type": "function",
      "constant": true
    },
    {
      "inputs": [
        {
          "internalType": "contract Escrow",
          "name": "_flightEscrow",
          "type": "address"
        },
        {
          "internalType": "address",
          "name": "_passenger",
          "type": "address"
        },
        {
          "internalType": "uint256",
          "name": "_keyId",
          "type": "uint256"
        }
      ],
      "name": "getPassenger",
      "outputs": [
        {
          "components": [
            {
              "internalType": "address",
              "name": "FlightID",
              "type": "address"
            },
            {
              "internalType": "address",
              "name": "BookedBy",
              "type": "address"
            },
            {
              "internalType": "string",
              "name": "FlightClass",
              "type": "string"
            },
            {
              "internalType": "uint256",
              "name": "FlightCost",
              "type": "uint256"
            },
            {
              "internalType": "uint256",
              "name": "FlightCostClaimed",
              "type": "uint256"
            },
            {
              "internalType": "uint256",
              "name": "FlightStatus",
              "type": "uint256"
            },
            {
              "internalType": "string",
              "name": "FlightSeat",
              "type": "string"
            },
            {
              "internalType": "uint256",
              "name": "FlightRefund",
              "type": "uint256"
            },
            {
              "internalType": "bool",
              "name": "CheckedIn",
              "type": "bool"
            }
          ],
          "internalType": "struct ExternalStorage.PassengerBookingDetails",
          "name": "",
          "type": "tuple"
        }
      ],
      "stateMutability": "view",
      "type": "function",
      "constant": true
    },
    {
      "inputs": [
        {
          "internalType": "address",
          "name": "_flightEscrow",
          "type": "address"
        }
      ],
      "name": "getEscrowTotalClaimed",
      "outputs": [
        {
          "internalType": "uint256",
          "name": "",
          "type": "uint256"
        },
        {
          "internalType": "uint256",
          "name": "",
          "type": "uint256"
        }
      ],
      "stateMutability": "view",
      "type": "function",
      "constant": true
    },
    {
      "inputs": [
        {
          "internalType": "contract Escrow",
          "name": "_flightEscrow",
          "type": "address"
        },
        {
          "internalType": "address",
          "name": "_passenger",
          "type": "address"
        },
        {
          "internalType": "uint256",
          "name": "_keyId",
          "type": "uint256"
        }
      ],
      "name": "claimableBookingRefund",
      "outputs": [
        {
          "internalType": "uint256",
          "name": "",
          "type": "uint256"
        },
        {
          "components": [
            {
              "internalType": "address",
              "name": "FlightID",
              "type": "address"
            },
            {
              "internalType": "address",
              "name": "BookedBy",
              "type": "address"
            },
            {
              "internalType": "string",
              "name": "FlightClass",
              "type": "string"
            },
            {
              "internalType": "uint256",
              "name": "FlightCost",
              "type": "uint256"
            },
            {
              "internalType": "uint256",
              "name": "FlightCostClaimed",
              "type": "uint256"
            },
            {
              "internalType": "uint256",
              "name": "FlightStatus",
              "type": "uint256"
            },
            {
              "internalType": "string",
              "name": "FlightSeat",
              "type": "string"
            },
            {
              "internalType": "uint256",
              "name": "FlightRefund",
              "type": "uint256"
            },
            {
              "internalType": "bool",
              "name": "CheckedIn",
              "type": "bool"
            }
          ],
          "internalType": "struct ExternalStorage.PassengerBookingDetails",
          "name": "",
          "type": "tuple"
        }
      ],
      "stateMutability": "view",
      "type": "function",
      "constant": true
    },
    {
      "inputs": [
        {
          "internalType": "contract Escrow",
          "name": "_flightEscrow",
          "type": "address"
        }
      ],
      "name": "getEscrowBalance",
      "outputs": [
        {
          "internalType": "uint256",
          "name": "",
          "type": "uint256"
        }
      ],
      "stateMutability": "view",
      "type": "function",
      "constant": true
    }
  ],
  "bytecode": "0x60806040523480156200001157600080fd5b506040516200212f3803806200212f83398181016040528101906200003791906200012b565b81602160006101000a81548173ffffffffffffffffffffffffffffffffffffffff021916908373ffffffffffffffffffffffffffffffffffffffff16021790555080602260006101000a81548173ffffffffffffffffffffffffffffffffffffffff021916908373ffffffffffffffffffffffffffffffffffffffff160217905550505062000172565b600080fd5b600073ffffffffffffffffffffffffffffffffffffffff82169050919050565b6000620000f382620000c6565b9050919050565b6200010581620000e6565b81146200011157600080fd5b50565b6000815190506200012581620000fa565b92915050565b60008060408385031215620001455762000144620000c1565b5b6000620001558582860162000114565b9250506020620001688582860162000114565b9150509250929050565b611fad80620001826000396000f3fe608060405234801561001057600080fd5b50600436106101215760003560e01c8063589d5891116100ad578063ca5f1c1b11610071578063ca5f1c1b146103ca578063dd0df088146103f1578063e47d606014610424578063fd12c59214610454578063feeba7361461048757610121565b8063589d5891146102d75780636374b11b14610308578063bc3da53514610338578063bd7ea8d21461036a578063c72e66c91461039a57610121565b806329415a59116100f457806329415a59146101e757806333b5b5ae146102175780633cc0f5f21461024757806346e7ccac14610277578063495420ee146102a757610121565b8063091c18aa146101265780630c51c1a7146101565780630c7ae8fe1461018757806324d7806c146101b7575b600080fd5b610140600480360381019061013b9190611277565b6104b8565b60405161014d91906112bf565b60405180910390f35b610170600480360381019061016b919061134e565b6104d8565b60405161017e929190611542565b60405180910390f35b6101a1600480360381019061019c9190611572565b610637565b6040516101ae91906115b2565b60405180910390f35b6101d160048036038101906101cc9190611277565b6106c4565b6040516101de91906112bf565b60405180910390f35b61020160048036038101906101fc91906115cd565b6106e4565b60405161020e9190611708565b60405180910390f35b610231600480360381019061022c919061134e565b610767565b60405161023e919061172a565b60405180910390f35b610261600480360381019061025c9190611277565b61081d565b60405161026e91906112bf565b60405180910390f35b610291600480360381019061028c9190611277565b61083d565b60405161029e91906112bf565b60405180910390f35b6102c160048036038101906102bc91906115cd565b61085d565b6040516102ce91906115b2565b60405180910390f35b6102f160048036038101906102ec9190611277565b610902565b6040516102ff92919061174c565b60405180910390f35b610322600480360381019061031d91906115cd565b610994565b60405161032f91906115b2565b60405180910390f35b610352600480360381019061034d9190611277565b610a39565b60405161036193929190611784565b60405180910390f35b610384600480360381019061037f91906117bb565b610a93565b604051610391919061172a565b60405180910390f35b6103b460048036038101906103af9190611277565b610d68565b6040516103c1919061181d565b60405180910390f35b6103d2610da6565b6040516103e89a99989796959493929190611882565b60405180910390f35b61040b60048036038101906104069190611277565b611038565b60405161041b9493929190611953565b60405180910390f35b61043e60048036038101906104399190611277565b611088565b60405161044b91906112bf565b60405180910390f35b61046e60048036038101906104699190611277565b6110a8565b60405161047e9493929190611953565b60405180910390f35b6104a1600480360381019061049c9190611277565b6110f8565b6040516104af92919061174c565b60405180910390f35b600b6020528060005260406000206000915054906101000a900460ff1681565b60006104e261111c565b6000602160009054906101000a900473ffffffffffffffffffffffffffffffffffffffff1673ffffffffffffffffffffffffffffffffffffffff1663dd62ed3e87876040518363ffffffff1660e01b8152600401610541929190611998565b602060405180830381865afa15801561055e573d6000803e3d6000fd5b505050506040513d601f19601f8201168201806040525081019061058291906119d6565b905080602260009054906101000a900473ffffffffffffffffffffffffffffffffffffffff1673ffffffffffffffffffffffffffffffffffffffff1663851afcc48888886040518463ffffffff1660e01b81526004016105e493929190611a03565b600060405180830381865afa158015610601573d6000803e3d6000fd5b505050506040513d6000823e3d601f19601f8201168201806040525081019061062a9190611cc3565b9250925050935093915050565b6000601d60008473ffffffffffffffffffffffffffffffffffffffff1673ffffffffffffffffffffffffffffffffffffffff16815260200190815260200160002060010160008373ffffffffffffffffffffffffffffffffffffffff1673ffffffffffffffffffffffffffffffffffffffff16815260200190815260200160002080549050905092915050565b60086020528060005260406000206000915054906101000a900460ff1681565b6106ec611196565b8173ffffffffffffffffffffffffffffffffffffffff1663c845c0c26040518163ffffffff1660e01b8152600401600060405180830381865afa158015610737573d6000803e3d6000fd5b505050506040513d6000823e3d601f19601f820116820180604052508101906107609190611e9e565b9050919050565b61076f61111c565b602260009054906101000a900473ffffffffffffffffffffffffffffffffffffffff1673ffffffffffffffffffffffffffffffffffffffff1663851afcc48585856040518463ffffffff1660e01b81526004016107ce93929190611a03565b600060405180830381865afa1580156107eb573d6000803e3d6000fd5b505050506040513d6000823e3d601f19601f820116820180604052508101906108149190611cc3565b90509392505050565b600a6020528060005260406000206000915054906101000a900460ff1681565b60096020528060005260406000206000915054906101000a900460ff1681565b6000602160009054906101000a900473ffffffffffffffffffffffffffffffffffffffff1673ffffffffffffffffffffffffffffffffffffffff166370a08231836040518263ffffffff1660e01b81526004016108ba919061181d565b602060405180830381865afa1580156108d7573d6000803e3d6000fd5b505050506040513d601f19601f820116820180604052508101906108fb91906119d6565b9050919050565b600080601c60008473ffffffffffffffffffffffffffffffffffffffff1673ffffffffffffffffffffffffffffffffffffffff16815260200190815260200160002060000154601c60008573ffffffffffffffffffffffffffffffffffffffff1673ffffffffffffffffffffffffffffffffffffffff1681526020019081526020016000206001015491509150915091565b6000602160009054906101000a900473ffffffffffffffffffffffffffffffffffffffff1673ffffffffffffffffffffffffffffffffffffffff166370a08231836040518263ffffffff1660e01b81526004016109f1919061181d565b602060405180830381865afa158015610a0e573d6000803e3d6000fd5b505050506040513d601f19601f82011682018060405250810190610a3291906119d6565b9050919050565b601e6020528060005260406000206000915090508060000160009054906101000a900463ffffffff16908060000160049054906101000a900463ffffffff16908060000160089054906101000a900463ffffffff16905083565b610a9b61111c565b6000601d60008673ffffffffffffffffffffffffffffffffffffffff1673ffffffffffffffffffffffffffffffffffffffff16815260200190815260200160002060010160008573ffffffffffffffffffffffffffffffffffffffff1673ffffffffffffffffffffffffffffffffffffffff1681526020019081526020016000208381548110610b2e57610b2d611ee7565b5b9060005260206000209060090201604051806101200160405290816000820160009054906101000a900473ffffffffffffffffffffffffffffffffffffffff1673ffffffffffffffffffffffffffffffffffffffff1673ffffffffffffffffffffffffffffffffffffffff1681526020016001820160009054906101000a900473ffffffffffffffffffffffffffffffffffffffff1673ffffffffffffffffffffffffffffffffffffffff1673ffffffffffffffffffffffffffffffffffffffff168152602001600282018054610c0490611f45565b80601f0160208091040260200160405190810160405280929190818152602001828054610c3090611f45565b8015610c7d5780601f10610c5257610100808354040283529160200191610c7d565b820191906000526020600020905b815481529060010190602001808311610c6057829003601f168201915b50505050508152602001600382015481526020016004820154815260200160058201548152602001600682018054610cb490611f45565b80601f0160208091040260200160405190810160405280929190818152602001828054610ce090611f45565b8015610d2d5780601f10610d0257610100808354040283529160200191610d2d565b820191906000526020600020905b815481529060010190602001808311610d1057829003601f168201915b50505050508152602001600782015481526020016008820160009054906101000a900460ff1615151515815250509050809150509392505050565b601d6020528060005260406000206000915090508060000160009054906101000a900473ffffffffffffffffffffffffffffffffffffffff16905081565b60108060000160009054906101000a900473ffffffffffffffffffffffffffffffffffffffff1690806001018054610ddd90611f45565b80601f0160208091040260200160405190810160405280929190818152602001828054610e0990611f45565b8015610e565780601f10610e2b57610100808354040283529160200191610e56565b820191906000526020600020905b815481529060010190602001808311610e3957829003601f168201915b505050505090806002018054610e6b90611f45565b80601f0160208091040260200160405190810160405280929190818152602001828054610e9790611f45565b8015610ee45780601f10610eb957610100808354040283529160200191610ee4565b820191906000526020600020905b815481529060010190602001808311610ec757829003601f168201915b505050505090806003018054610ef990611f45565b80601f0160208091040260200160405190810160405280929190818152602001828054610f2590611f45565b8015610f725780601f10610f4757610100808354040283529160200191610f72565b820191906000526020600020905b815481529060010190602001808311610f5557829003601f168201915b505050505090806004018054610f8790611f45565b80601f0160208091040260200160405190810160405280929190818152602001828054610fb390611f45565b80156110005780601f10610fd557610100808354040283529160200191611000565b820191906000526020600020905b815481529060010190602001808311610fe357829003601f168201915b5050505050908060050154908060060160009054906101000a900463ffffffff1690806007015490806008015490806009015490508a565b601a6020528060005260406000206000915090508060000160009054906101000a900473ffffffffffffffffffffffffffffffffffffffff16908060010154908060020154908060030154905084565b600c6020528060005260406000206000915054906101000a900460ff1681565b601b6020528060005260406000206000915090508060000160009054906101000a900473ffffffffffffffffffffffffffffffffffffffff16908060010154908060020154908060030154905084565b601c6020528060005260406000206000915090508060000154908060010154905082565b604051806101200160405280600073ffffffffffffffffffffffffffffffffffffffff168152602001600073ffffffffffffffffffffffffffffffffffffffff1681526020016060815260200160008152602001600081526020016000815260200160608152602001600081526020016000151581525090565b604051806101400160405280600073ffffffffffffffffffffffffffffffffffffffff1681526020016060815260200160608152602001606081526020016060815260200160008152602001600063ffffffff1681526020016000815260200160008152602001600081525090565b6000604051905090565b600080fd5b600080fd5b600073ffffffffffffffffffffffffffffffffffffffff82169050919050565b600061124482611219565b9050919050565b61125481611239565b811461125f57600080fd5b50565b6000813590506112718161124b565b92915050565b60006020828403121561128d5761128c61120f565b5b600061129b84828501611262565b91505092915050565b60008115159050919050565b6112b9816112a4565b82525050565b60006020820190506112d460008301846112b0565b92915050565b60006112e582611239565b9050919050565b6112f5816112da565b811461130057600080fd5b50565b600081359050611312816112ec565b92915050565b6000819050919050565b61132b81611318565b811461133657600080fd5b50565b60008135905061134881611322565b92915050565b6000806000606084860312156113675761136661120f565b5b600061137586828701611303565b935050602061138686828701611262565b925050604061139786828701611339565b9150509250925092565b6113aa81611318565b82525050565b6113b981611239565b82525050565b600081519050919050565b600082825260208201905092915050565b60005b838110156113f95780820151818401526020810190506113de565b83811115611408576000848401525b50505050565b6000601f19601f8301169050919050565b600061142a826113bf565b61143481856113ca565b93506114448185602086016113db565b61144d8161140e565b840191505092915050565b61146181611318565b82525050565b611470816112a4565b82525050565b60006101208301600083015161148f60008601826113b0565b5060208301516114a260208601826113b0565b50604083015184820360408601526114ba828261141f565b91505060608301516114cf6060860182611458565b5060808301516114e26080860182611458565b5060a08301516114f560a0860182611458565b5060c083015184820360c086015261150d828261141f565b91505060e083015161152260e0860182611458565b50610100830151611537610100860182611467565b508091505092915050565b600060408201905061155760008301856113a1565b81810360208301526115698184611476565b90509392505050565b600080604083850312156115895761158861120f565b5b600061159785828601611303565b92505060206115a885828601611262565b9150509250929050565b60006020820190506115c760008301846113a1565b92915050565b6000602082840312156115e3576115e261120f565b5b60006115f184828501611303565b91505092915050565b600063ffffffff82169050919050565b611613816115fa565b82525050565b60006101408301600083015161163260008601826113b0565b506020830151848203602086015261164a828261141f565b91505060408301518482036040860152611664828261141f565b9150506060830151848203606086015261167e828261141f565b91505060808301518482036080860152611698828261141f565b91505060a08301516116ad60a0860182611458565b5060c08301516116c060c086018261160a565b5060e08301516116d360e0860182611458565b506101008301516116e8610100860182611458565b506101208301516116fd610120860182611458565b508091505092915050565b600060208201905081810360008301526117228184611619565b905092915050565b600060208201905081810360008301526117448184611476565b905092915050565b600060408201905061176160008301856113a1565b61176e60208301846113a1565b9392505050565b61177e816115fa565b82525050565b60006060820190506117996000830186611775565b6117a66020830185611775565b6117b36040830184611775565b949350505050565b6000806000606084860312156117d4576117d361120f565b5b60006117e286828701611262565b93505060206117f386828701611262565b925050604061180486828701611339565b9150509250925092565b61181781611239565b82525050565b6000602082019050611832600083018461180e565b92915050565b600082825260208201905092915050565b6000611854826113bf565b61185e8185611838565b935061186e8185602086016113db565b6118778161140e565b840191505092915050565b600061014082019050611898600083018d61180e565b81810360208301526118aa818c611849565b905081810360408301526118be818b611849565b905081810360608301526118d2818a611849565b905081810360808301526118e68189611849565b90506118f560a08301886113a1565b61190260c0830187611775565b61190f60e08301866113a1565b61191d6101008301856113a1565b61192b6101208301846113a1565b9b9a5050505050505050505050565b6000819050919050565b61194d8161193a565b82525050565b6000608082019050611968600083018761180e565b6119756020830186611944565b6119826040830185611944565b61198f6060830184611944565b95945050505050565b60006040820190506119ad600083018561180e565b6119ba602083018461180e565b9392505050565b6000815190506119d081611322565b92915050565b6000602082840312156119ec576119eb61120f565b5b60006119fa848285016119c1565b91505092915050565b6000606082019050611a18600083018661180e565b611a25602083018561180e565b611a3260408301846113a1565b949350505050565b600080fd5b7f4e487b7100000000000000000000000000000000000000000000000000000000600052604160045260246000fd5b611a778261140e565b810181811067ffffffffffffffff82111715611a9657611a95611a3f565b5b80604052505050565b6000611aa9611205565b9050611ab58282611a6e565b919050565b600080fd5b600081519050611ace8161124b565b92915050565b600080fd5b600080fd5b600067ffffffffffffffff821115611af957611af8611a3f565b5b611b028261140e565b9050602081019050919050565b6000611b22611b1d84611ade565b611a9f565b905082815260208101848484011115611b3e57611b3d611ad9565b5b611b498482856113db565b509392505050565b600082601f830112611b6657611b65611ad4565b5b8151611b76848260208601611b0f565b91505092915050565b611b88816112a4565b8114611b9357600080fd5b50565b600081519050611ba581611b7f565b92915050565b60006101208284031215611bc257611bc1611a3a565b5b611bcd610120611a9f565b90506000611bdd84828501611abf565b6000830152506020611bf184828501611abf565b602083015250604082015167ffffffffffffffff811115611c1557611c14611aba565b5b611c2184828501611b51565b6040830152506060611c35848285016119c1565b6060830152506080611c49848285016119c1565b60808301525060a0611c5d848285016119c1565b60a08301525060c082015167ffffffffffffffff811115611c8157611c80611aba565b5b611c8d84828501611b51565b60c08301525060e0611ca1848285016119c1565b60e083015250610100611cb684828501611b96565b6101008301525092915050565b600060208284031215611cd957611cd861120f565b5b600082015167ffffffffffffffff811115611cf757611cf6611214565b5b611d0384828501611bab565b91505092915050565b611d15816115fa565b8114611d2057600080fd5b50565b600081519050611d3281611d0c565b92915050565b60006101408284031215611d4f57611d4e611a3a565b5b611d5a610140611a9f565b90506000611d6a84828501611abf565b600083015250602082015167ffffffffffffffff811115611d8e57611d8d611aba565b5b611d9a84828501611b51565b602083015250604082015167ffffffffffffffff811115611dbe57611dbd611aba565b5b611dca84828501611b51565b604083015250606082015167ffffffffffffffff811115611dee57611ded611aba565b5b611dfa84828501611b51565b606083015250608082015167ffffffffffffffff811115611e1e57611e1d611aba565b5b611e2a84828501611b51565b60808301525060a0611e3e848285016119c1565b60a08301525060c0611e5284828501611d23565b60c08301525060e0611e66848285016119c1565b60e083015250610100611e7b848285016119c1565b61010083015250610120611e91848285016119c1565b6101208301525092915050565b600060208284031215611eb457611eb361120f565b5b600082015167ffffffffffffffff811115611ed257611ed1611214565b5b611ede84828501611d38565b91505092915050565b7f4e487b7100000000000000000000000000000000000000000000000000000000600052603260045260246000fd5b7f4e487b7100000000000000000000000000000000000000000000000000000000600052602260045260246000fd5b60006002820490506001821680611f5d57607f821691505b60208210811415611f7157611f70611f16565b5b5091905056fea264697066735822122059ae09479b8f8600c43ec2b5b4354c18f012bbbb87bdfdfc39a06174017f489f64736f6c634300080b0033",
  "immutableReferences": {},
  "source": "// SPDX-License-Identifier: MIT OR LGPL-2.0-or-later\npragma solidity ^0.8.5;\n\nimport \"./ERC20Token.sol\";\nimport \"./Operations.sol\";\nimport \"./ExternalStorage.sol\"; \n\ncontract Getters is ExternalStorage {\n\n    ERC20Token internal token;\n    Operations internal operation;\n\n    constructor(address _tokenAddress, address _opAddress)\n    {\n        token = ERC20Token(_tokenAddress);\n        operation = Operations(_opAddress);\n    }\n\n    /*\n     * Gets Passengers Details\n     */\n    function getPassengerFlightDetail(\n        address _flightEscrow,\n        address _passenger,\n        uint256  _keyId\n    )\n    public\n    view\n    returns (PassengerBookingDetails memory)\n    {\n      PassengerBookingDetails memory arrayPassenger = flightPassengers[address(_flightEscrow)].passengers[_passenger][_keyId];\n    return (arrayPassenger);\n    }\n   \n    /*\n     * Flight escrow detail\n     */\n    function getEscrowDetails(\n        Escrow _flightEscrow\n    )\n    public\n    view\n    returns(\n        EscrowDetails memory){\n        return _flightEscrow.getAirline();\n    }\n\n    /*\n     * Total amount in created Escrow\n     */\n    function getEscrowTotal(\n        Escrow _flightEscrow\n    )\n    public\n    view\n    returns(uint256){\n\n        return token.balanceOf(address(_flightEscrow));\n    }\n\n    /*\n     * Get total passengers in escrow\n     */\n    function getEscrowPassengerCount(\n        Escrow _flightEscrow,\n        address _passenger\n    )\n    public\n    view\n    returns(uint256){\n\n        return flightPassengers[address(_flightEscrow)].passengers[_passenger].length;\n    }\n\n    /*\n     * Amount paid by passenger for escrow\n     */\n    function getPassenger(\n        Escrow _flightEscrow,\n        address _passenger,\n        uint256 _keyId\n        )\n        public\n        view\n        returns(PassengerBookingDetails memory){\n            \n            return operation.PassengerManifest(address(_flightEscrow), _passenger, _keyId);\n        }\n\n    /*\n     * Get total token claimed by Passengers from Escrow\n     */\n    function getEscrowTotalClaimed(\n        address _flightEscrow\n        )\n        public\n        view\n     returns(uint256, uint256){\n\n        return (PassengerClaim[_flightEscrow].TotalAmountClaimed, PassengerClaim[_flightEscrow].NumberOfPassengers);\n    }\n\n    /*\n     * Get claimable booking fee\n     */\n    function claimableBookingRefund(\n        Escrow _flightEscrow,\n        address _passenger,\n        uint256 _keyId\n    )\n    public\n    view\n    returns(uint256, PassengerBookingDetails memory){\n        uint256 CLAIMABLE_AMOUNT = token.allowance(address(_flightEscrow), _passenger);\n\n        return (CLAIMABLE_AMOUNT, operation.PassengerManifest(address(_flightEscrow), _passenger, _keyId));\n    }\n\n    /*\n     * Get Escrow balance\n    */\n    function getEscrowBalance(\n        Escrow _flightEscrow\n        )\n        public\n        view\n        returns (uint256){\n\n        return token.balanceOf(address(_flightEscrow));\n    }\n}",
  "sourcePath": "/Users/jesudarajeminusi/ConvexityProjs/wrapcbdc/wrap-cbdc-web3/contracts/Getters.sol",
  "compiler": {
    "name": "solc",
    "version": "0.8.11+commit.d7f03943.Emscripten.clang"
  },
  "schemaVersion": "3.4.6",
  "updatedAt": "2022-07-06T17:18:03.173Z",
  "networkType": "ethereum",
  "devdoc": {
    "kind": "dev",
    "methods": {},
    "version": 1
  },
  "userdoc": {
    "kind": "user",
    "methods": {},
    "version": 1
  }
}