{
  "contractName": "Operations",
  "abi": [
    {
      "inputs": [],
      "stateMutability": "nonpayable",
      "type": "constructor"
    },
    {
      "anonymous": false,
      "inputs": [
        {
          "indexed": true,
          "internalType": "address",
          "name": "_admin",
          "type": "address"
        }
      ],
      "name": "AddedAdmin",
      "type": "event"
    },
    {
      "anonymous": false,
      "inputs": [
        {
          "indexed": true,
          "internalType": "address",
          "name": "_airline",
          "type": "address"
        }
      ],
      "name": "AddedAirlineList",
      "type": "event"
    },
    {
      "anonymous": false,
      "inputs": [
        {
          "indexed": true,
          "internalType": "address",
          "name": "_authorizer",
          "type": "address"
        }
      ],
      "name": "AddedAuthorizer",
      "type": "event"
    },
    {
      "anonymous": false,
      "inputs": [
        {
          "indexed": false,
          "internalType": "address",
          "name": "_user",
          "type": "address"
        }
      ],
      "name": "AddedBlackList",
      "type": "event"
    },
    {
      "anonymous": false,
      "inputs": [
        {
          "indexed": true,
          "internalType": "address",
          "name": "Admin",
          "type": "address"
        }
      ],
      "name": "AdminAdded",
      "type": "event"
    },
    {
      "anonymous": false,
      "inputs": [
        {
          "indexed": true,
          "internalType": "address",
          "name": "Admin",
          "type": "address"
        }
      ],
      "name": "AdminRemoved",
      "type": "event"
    },
    {
      "anonymous": false,
      "inputs": [
        {
          "indexed": true,
          "internalType": "address",
          "name": "Authorizer",
          "type": "address"
        }
      ],
      "name": "AuthorizerAdded",
      "type": "event"
    },
    {
      "anonymous": false,
      "inputs": [
        {
          "indexed": true,
          "internalType": "address",
          "name": "Authorizer",
          "type": "address"
        }
      ],
      "name": "AuthorizerRemoved",
      "type": "event"
    },
    {
      "anonymous": false,
      "inputs": [
        {
          "indexed": false,
          "internalType": "address",
          "name": "_User",
          "type": "address"
        },
        {
          "indexed": false,
          "internalType": "uint256",
          "name": "_amount",
          "type": "uint256"
        }
      ],
      "name": "DestroyedBlackFunds",
      "type": "event"
    },
    {
      "anonymous": false,
      "inputs": [
        {
          "indexed": true,
          "internalType": "address",
          "name": "flightEscrow",
          "type": "address"
        },
        {
          "indexed": false,
          "internalType": "uint256",
          "name": "amountclaimed",
          "type": "uint256"
        },
        {
          "indexed": false,
          "internalType": "uint256",
          "name": "passengerNo",
          "type": "uint256"
        }
      ],
      "name": "PassengersClaims",
      "type": "event"
    },
    {
      "anonymous": false,
      "inputs": [],
      "name": "Pause",
      "type": "event"
    },
    {
      "anonymous": false,
      "inputs": [
        {
          "indexed": false,
          "internalType": "address",
          "name": "_user",
          "type": "address"
        }
      ],
      "name": "RemoveAddressList",
      "type": "event"
    },
    {
      "anonymous": false,
      "inputs": [
        {
          "indexed": true,
          "internalType": "address",
          "name": "RedeemedUser",
          "type": "address"
        }
      ],
      "name": "RemoveUserBlackList",
      "type": "event"
    },
    {
      "anonymous": false,
      "inputs": [
        {
          "indexed": true,
          "internalType": "address",
          "name": "_admin",
          "type": "address"
        }
      ],
      "name": "RemovedAdmin",
      "type": "event"
    },
    {
      "anonymous": false,
      "inputs": [
        {
          "indexed": false,
          "internalType": "address",
          "name": "_airline",
          "type": "address"
        }
      ],
      "name": "RemovedAirlineList",
      "type": "event"
    },
    {
      "anonymous": false,
      "inputs": [
        {
          "indexed": true,
          "internalType": "address",
          "name": "_authorizer",
          "type": "address"
        }
      ],
      "name": "RemovedAuthorizer",
      "type": "event"
    },
    {
      "anonymous": false,
      "inputs": [
        {
          "indexed": false,
          "internalType": "address",
          "name": "_user",
          "type": "address"
        }
      ],
      "name": "RemovedBlackList",
      "type": "event"
    },
    {
      "anonymous": false,
      "inputs": [
        {
          "indexed": true,
          "internalType": "address",
          "name": "User",
          "type": "address"
        }
      ],
      "name": "RemovedUserList",
      "type": "event"
    },
    {
      "anonymous": false,
      "inputs": [
        {
          "indexed": true,
          "internalType": "address",
          "name": "_user",
          "type": "address"
        }
      ],
      "name": "SetAddressList",
      "type": "event"
    },
    {
      "anonymous": false,
      "inputs": [
        {
          "indexed": true,
          "internalType": "address",
          "name": "EvilUser",
          "type": "address"
        }
      ],
      "name": "SetBlackListEvent",
      "type": "event"
    },
    {
      "anonymous": false,
      "inputs": [
        {
          "indexed": true,
          "internalType": "address",
          "name": "User",
          "type": "address"
        }
      ],
      "name": "SetUserListEvent",
      "type": "event"
    },
    {
      "anonymous": false,
      "inputs": [],
      "name": "Unpause",
      "type": "event"
    },
    {
      "inputs": [
        {
          "internalType": "address",
          "name": "",
          "type": "address"
        }
      ],
      "name": "Airlines",
      "outputs": [
        {
          "internalType": "address",
          "name": "AirlineAddr",
          "type": "address"
        },
        {
          "internalType": "bytes32",
          "name": "NameAirline",
          "type": "bytes32"
        },
        {
          "internalType": "bytes32",
          "name": "PhoneAirline",
          "type": "bytes32"
        },
        {
          "internalType": "bytes32",
          "name": "EmailAirline",
          "type": "bytes32"
        }
      ],
      "stateMutability": "view",
      "type": "function",
      "constant": true
    },
    {
      "inputs": [
        {
          "internalType": "address",
          "name": "",
          "type": "address"
        }
      ],
      "name": "PassengerClaim",
      "outputs": [
        {
          "internalType": "uint256",
          "name": "TotalAmountClaimed",
          "type": "uint256"
        },
        {
          "internalType": "uint256",
          "name": "NumberOfPassengers",
          "type": "uint256"
        }
      ],
      "stateMutability": "view",
      "type": "function",
      "constant": true
    },
    {
      "inputs": [
        {
          "internalType": "address",
          "name": "",
          "type": "address"
        }
      ],
      "name": "Passengers",
      "outputs": [
        {
          "internalType": "address",
          "name": "PassengerAddr",
          "type": "address"
        },
        {
          "internalType": "bytes32",
          "name": "NamePassenger",
          "type": "bytes32"
        },
        {
          "internalType": "bytes32",
          "name": "PhonePassenger",
          "type": "bytes32"
        },
        {
          "internalType": "bytes32",
          "name": "EmailPassenger",
          "type": "bytes32"
        }
      ],
      "stateMutability": "view",
      "type": "function",
      "constant": true
    },
    {
      "inputs": [],
      "name": "escrows",
      "outputs": [
        {
          "internalType": "address",
          "name": "AirlineID",
          "type": "address"
        },
        {
          "internalType": "string",
          "name": "FlightCode",
          "type": "string"
        },
        {
          "internalType": "string",
          "name": "FlightDeparture",
          "type": "string"
        },
        {
          "internalType": "string",
          "name": "FlightArrival",
          "type": "string"
        },
        {
          "internalType": "string",
          "name": "FlightTime",
          "type": "string"
        },
        {
          "internalType": "uint256",
          "name": "FlightCost",
          "type": "uint256"
        },
        {
          "internalType": "uint32",
          "name": "FlightStatus",
          "type": "uint32"
        },
        {
          "internalType": "uint256",
          "name": "FlightRefund",
          "type": "uint256"
        },
        {
          "internalType": "uint256",
          "name": "BookingRefund",
          "type": "uint256"
        },
        {
          "internalType": "uint256",
          "name": "DelayRefund",
          "type": "uint256"
        }
      ],
      "stateMutability": "view",
      "type": "function",
      "constant": true
    },
    {
      "inputs": [
        {
          "internalType": "address",
          "name": "",
          "type": "address"
        }
      ],
      "name": "flightPassengers",
      "outputs": [
        {
          "internalType": "address",
          "name": "FlightID",
          "type": "address"
        }
      ],
      "stateMutability": "view",
      "type": "function",
      "constant": true
    },
    {
      "inputs": [
        {
          "internalType": "address",
          "name": "",
          "type": "address"
        }
      ],
      "name": "isAdmin",
      "outputs": [
        {
          "internalType": "bool",
          "name": "",
          "type": "bool"
        }
      ],
      "stateMutability": "view",
      "type": "function",
      "constant": true
    },
    {
      "inputs": [
        {
          "internalType": "address",
          "name": "",
          "type": "address"
        }
      ],
      "name": "isAirLineListed",
      "outputs": [
        {
          "internalType": "bool",
          "name": "",
          "type": "bool"
        }
      ],
      "stateMutability": "view",
      "type": "function",
      "constant": true
    },
    {
      "inputs": [
        {
          "internalType": "address",
          "name": "",
          "type": "address"
        }
      ],
      "name": "isAuthorizer",
      "outputs": [
        {
          "internalType": "bool",
          "name": "",
          "type": "bool"
        }
      ],
      "stateMutability": "view",
      "type": "function",
      "constant": true
    },
    {
      "inputs": [
        {
          "internalType": "address",
          "name": "",
          "type": "address"
        }
      ],
      "name": "isBlackListed",
      "outputs": [
        {
          "internalType": "bool",
          "name": "",
          "type": "bool"
        }
      ],
      "stateMutability": "view",
      "type": "function",
      "constant": true
    },
    {
      "inputs": [
        {
          "internalType": "address",
          "name": "_address",
          "type": "address"
        }
      ],
      "name": "isOwner",
      "outputs": [
        {
          "internalType": "bool",
          "name": "",
          "type": "bool"
        }
      ],
      "stateMutability": "view",
      "type": "function",
      "constant": true
    },
    {
      "inputs": [
        {
          "internalType": "address",
          "name": "",
          "type": "address"
        }
      ],
      "name": "isUserListed",
      "outputs": [
        {
          "internalType": "bool",
          "name": "",
          "type": "bool"
        }
      ],
      "stateMutability": "view",
      "type": "function",
      "constant": true
    },
    {
      "inputs": [],
      "name": "owner",
      "outputs": [
        {
          "internalType": "address",
          "name": "",
          "type": "address"
        }
      ],
      "stateMutability": "view",
      "type": "function",
      "constant": true
    },
    {
      "inputs": [],
      "name": "pause",
      "outputs": [],
      "stateMutability": "nonpayable",
      "type": "function"
    },
    {
      "inputs": [],
      "name": "paused",
      "outputs": [
        {
          "internalType": "bool",
          "name": "",
          "type": "bool"
        }
      ],
      "stateMutability": "view",
      "type": "function",
      "constant": true
    },
    {
      "inputs": [
        {
          "internalType": "address",
          "name": "",
          "type": "address"
        }
      ],
      "name": "refunds",
      "outputs": [
        {
          "internalType": "uint32",
          "name": "FLIGHT_REFUND",
          "type": "uint32"
        },
        {
          "internalType": "uint32",
          "name": "BOOKING_REFUND",
          "type": "uint32"
        },
        {
          "internalType": "uint32",
          "name": "DELAYED_REFUND",
          "type": "uint32"
        }
      ],
      "stateMutability": "view",
      "type": "function",
      "constant": true
    },
    {
      "inputs": [],
      "name": "unpause",
      "outputs": [],
      "stateMutability": "nonpayable",
      "type": "function"
    },
    {
      "inputs": [
        {
          "internalType": "address",
          "name": "_AdminID",
          "type": "address"
        }
      ],
      "name": "AddAdmin",
      "outputs": [
        {
          "internalType": "bool",
          "name": "",
          "type": "bool"
        }
      ],
      "stateMutability": "nonpayable",
      "type": "function"
    },
    {
      "inputs": [
        {
          "internalType": "address",
          "name": "_addr",
          "type": "address"
        }
      ],
      "name": "RemoveAdmin",
      "outputs": [
        {
          "internalType": "bool",
          "name": "",
          "type": "bool"
        }
      ],
      "stateMutability": "nonpayable",
      "type": "function"
    },
    {
      "inputs": [],
      "name": "GetAdminList",
      "outputs": [
        {
          "internalType": "address[]",
          "name": "",
          "type": "address[]"
        }
      ],
      "stateMutability": "view",
      "type": "function",
      "constant": true
    },
    {
      "inputs": [
        {
          "internalType": "address",
          "name": "_airline",
          "type": "address"
        }
      ],
      "name": "AddAirline",
      "outputs": [
        {
          "internalType": "bool",
          "name": "",
          "type": "bool"
        }
      ],
      "stateMutability": "nonpayable",
      "type": "function"
    },
    {
      "inputs": [
        {
          "internalType": "address",
          "name": "_addr",
          "type": "address"
        }
      ],
      "name": "RemoveAirline",
      "outputs": [
        {
          "internalType": "bool",
          "name": "",
          "type": "bool"
        }
      ],
      "stateMutability": "nonpayable",
      "type": "function"
    },
    {
      "inputs": [],
      "name": "GetAirlineList",
      "outputs": [
        {
          "internalType": "address[]",
          "name": "",
          "type": "address[]"
        }
      ],
      "stateMutability": "view",
      "type": "function",
      "constant": true
    },
    {
      "inputs": [
        {
          "internalType": "address",
          "name": "authorizer",
          "type": "address"
        }
      ],
      "name": "AddAuthorizer",
      "outputs": [
        {
          "internalType": "bool",
          "name": "",
          "type": "bool"
        }
      ],
      "stateMutability": "nonpayable",
      "type": "function"
    },
    {
      "inputs": [
        {
          "internalType": "address",
          "name": "_authorizer",
          "type": "address"
        }
      ],
      "name": "RemoveAuthorizer",
      "outputs": [
        {
          "internalType": "bool",
          "name": "",
          "type": "bool"
        }
      ],
      "stateMutability": "nonpayable",
      "type": "function"
    },
    {
      "inputs": [],
      "name": "GetAuthorizerList",
      "outputs": [
        {
          "internalType": "address[]",
          "name": "",
          "type": "address[]"
        }
      ],
      "stateMutability": "view",
      "type": "function",
      "constant": true
    },
    {
      "inputs": [
        {
          "internalType": "address",
          "name": "_addr",
          "type": "address"
        }
      ],
      "name": "SetUserList",
      "outputs": [
        {
          "internalType": "bool",
          "name": "",
          "type": "bool"
        }
      ],
      "stateMutability": "nonpayable",
      "type": "function"
    },
    {
      "inputs": [
        {
          "internalType": "address",
          "name": "_addr",
          "type": "address"
        }
      ],
      "name": "RemoveUserList",
      "outputs": [
        {
          "internalType": "bool",
          "name": "",
          "type": "bool"
        }
      ],
      "stateMutability": "nonpayable",
      "type": "function"
    },
    {
      "inputs": [],
      "name": "GetUsersList",
      "outputs": [
        {
          "internalType": "address[]",
          "name": "",
          "type": "address[]"
        }
      ],
      "stateMutability": "view",
      "type": "function",
      "constant": true
    },
    {
      "inputs": [
        {
          "internalType": "address",
          "name": "_evilUser",
          "type": "address"
        }
      ],
      "name": "AddBlackList",
      "outputs": [],
      "stateMutability": "nonpayable",
      "type": "function"
    },
    {
      "inputs": [
        {
          "internalType": "address",
          "name": "_clearedUser",
          "type": "address"
        }
      ],
      "name": "RemoveBlackList",
      "outputs": [
        {
          "internalType": "bool",
          "name": "",
          "type": "bool"
        }
      ],
      "stateMutability": "nonpayable",
      "type": "function"
    },
    {
      "inputs": [],
      "name": "GetBlackListed",
      "outputs": [
        {
          "internalType": "address[]",
          "name": "",
          "type": "address[]"
        }
      ],
      "stateMutability": "view",
      "type": "function",
      "constant": true
    },
    {
      "inputs": [
        {
          "internalType": "address",
          "name": "_address",
          "type": "address"
        }
      ],
      "name": "IsBlackListed",
      "outputs": [
        {
          "internalType": "bool",
          "name": "",
          "type": "bool"
        }
      ],
      "stateMutability": "view",
      "type": "function",
      "constant": true
    },
    {
      "inputs": [
        {
          "internalType": "address",
          "name": "_user",
          "type": "address"
        }
      ],
      "name": "IsUserList",
      "outputs": [
        {
          "internalType": "bool",
          "name": "",
          "type": "bool"
        }
      ],
      "stateMutability": "view",
      "type": "function",
      "constant": true
    },
    {
      "inputs": [
        {
          "internalType": "address",
          "name": "_user",
          "type": "address"
        }
      ],
      "name": "IsAirLineList",
      "outputs": [
        {
          "internalType": "bool",
          "name": "",
          "type": "bool"
        }
      ],
      "stateMutability": "view",
      "type": "function",
      "constant": true
    },
    {
      "inputs": [
        {
          "internalType": "contract Escrow",
          "name": "_flightEscrow",
          "type": "address"
        },
        {
          "internalType": "address",
          "name": "_passenger",
          "type": "address"
        },
        {
          "internalType": "address",
          "name": "_bookedBy",
          "type": "address"
        },
        {
          "internalType": "string",
          "name": "_flightClass",
          "type": "string"
        },
        {
          "internalType": "uint256",
          "name": "_flightCost",
          "type": "uint256"
        },
        {
          "internalType": "uint32",
          "name": "_flightStatus",
          "type": "uint32"
        },
        {
          "internalType": "string",
          "name": "_flightSeat",
          "type": "string"
        },
        {
          "internalType": "uint256",
          "name": "_flightRefund",
          "type": "uint256"
        }
      ],
      "name": "FlightBookPassengers",
      "outputs": [
        {
          "internalType": "bool",
          "name": "",
          "type": "bool"
        }
      ],
      "stateMutability": "nonpayable",
      "type": "function"
    },
    {
      "inputs": [
        {
          "internalType": "address",
          "name": "_flightEscrow",
          "type": "address"
        },
        {
          "internalType": "address",
          "name": "_passenger",
          "type": "address"
        },
        {
          "internalType": "uint256",
          "name": "_keyId",
          "type": "uint256"
        }
      ],
      "name": "PassengerManifest",
      "outputs": [
        {
          "components": [
            {
              "internalType": "address",
              "name": "FlightID",
              "type": "address"
            },
            {
              "internalType": "address",
              "name": "BookedBy",
              "type": "address"
            },
            {
              "internalType": "string",
              "name": "FlightClass",
              "type": "string"
            },
            {
              "internalType": "uint256",
              "name": "FlightCost",
              "type": "uint256"
            },
            {
              "internalType": "uint256",
              "name": "FlightCostClaimed",
              "type": "uint256"
            },
            {
              "internalType": "uint256",
              "name": "FlightStatus",
              "type": "uint256"
            },
            {
              "internalType": "string",
              "name": "FlightSeat",
              "type": "string"
            },
            {
              "internalType": "uint256",
              "name": "FlightRefund",
              "type": "uint256"
            },
            {
              "internalType": "bool",
              "name": "CheckedIn",
              "type": "bool"
            }
          ],
          "internalType": "struct ExternalStorage.PassengerBookingDetails",
          "name": "",
          "type": "tuple"
        }
      ],
      "stateMutability": "view",
      "type": "function",
      "constant": true
    },
    {
      "inputs": [
        {
          "internalType": "address",
          "name": "_flightEscrow",
          "type": "address"
        },
        {
          "internalType": "address",
          "name": "_passenger",
          "type": "address"
        },
        {
          "internalType": "uint256",
          "name": "_keyId",
          "type": "uint256"
        }
      ],
      "name": "PassengersCheckIn",
      "outputs": [
        {
          "internalType": "bool",
          "name": "",
          "type": "bool"
        }
      ],
      "stateMutability": "nonpayable",
      "type": "function"
    },
    {
      "inputs": [
        {
          "internalType": "address",
          "name": "_flightEscrow",
          "type": "address"
        },
        {
          "internalType": "address",
          "name": "_passenger",
          "type": "address"
        },
        {
          "internalType": "uint256",
          "name": "_keyId",
          "type": "uint256"
        },
        {
          "internalType": "uint256",
          "name": "_cancelBookingRefund",
          "type": "uint256"
        },
        {
          "internalType": "uint256",
          "name": "_platformFee",
          "type": "uint256"
        }
      ],
      "name": "CancelPassengerBooking",
      "outputs": [
        {
          "internalType": "bool",
          "name": "",
          "type": "bool"
        }
      ],
      "stateMutability": "nonpayable",
      "type": "function"
    },
    {
      "inputs": [
        {
          "internalType": "contract Escrow",
          "name": "_flightEscrow",
          "type": "address"
        },
        {
          "internalType": "address",
          "name": "_passenger",
          "type": "address"
        },
        {
          "internalType": "uint256",
          "name": "_keyId",
          "type": "uint256"
        }
      ],
      "name": "DeleteClaim",
      "outputs": [
        {
          "internalType": "bool",
          "name": "",
          "type": "bool"
        }
      ],
      "stateMutability": "nonpayable",
      "type": "function"
    },
    {
      "inputs": [
        {
          "internalType": "address",
          "name": "_flightEscrow",
          "type": "address"
        },
        {
          "internalType": "uint256",
          "name": "_amountClaimed",
          "type": "uint256"
        }
      ],
      "name": "Claims",
      "outputs": [
        {
          "internalType": "bool",
          "name": "",
          "type": "bool"
        }
      ],
      "stateMutability": "nonpayable",
      "type": "function"
    },
    {
      "inputs": [
        {
          "internalType": "address",
          "name": "_airline",
          "type": "address"
        },
        {
          "internalType": "uint32",
          "name": "_flight",
          "type": "uint32"
        },
        {
          "internalType": "uint32",
          "name": "_booking",
          "type": "uint32"
        },
        {
          "internalType": "uint32",
          "name": "_delayed",
          "type": "uint32"
        }
      ],
      "name": "SetRefunds",
      "outputs": [
        {
          "internalType": "bool",
          "name": "",
          "type": "bool"
        }
      ],
      "stateMutability": "nonpayable",
      "type": "function"
    },
    {
      "inputs": [
        {
          "internalType": "address",
          "name": "_airline",
          "type": "address"
        }
      ],
      "name": "GetRefunds",
      "outputs": [
        {
          "components": [
            {
              "internalType": "uint32",
              "name": "FLIGHT_REFUND",
              "type": "uint32"
            },
            {
              "internalType": "uint32",
              "name": "BOOKING_REFUND",
              "type": "uint32"
            },
            {
              "internalType": "uint32",
              "name": "DELAYED_REFUND",
              "type": "uint32"
            }
          ],
          "internalType": "struct ExternalStorage.RefundSettings",
          "name": "",
          "type": "tuple"
        }
      ],
      "stateMutability": "view",
      "type": "function",
      "constant": true
    }
  ],
  "bytecode": "0x608060405260008060146101000a81548160ff0219169083151502179055503480156200002b57600080fd5b506200003c6200017b60201b60201c565b6000806101000a81548173ffffffffffffffffffffffffffffffffffffffff021916908373ffffffffffffffffffffffffffffffffffffffff1602179055506001600c6000620000916200017b60201b60201c565b73ffffffffffffffffffffffffffffffffffffffff1673ffffffffffffffffffffffffffffffffffffffff16815260200190815260200160002060006101000a81548160ff0219169083151502179055506007620000f46200017b60201b60201c565b9080600181540180825580915050600190039060005260206000200160009091909190916101000a81548173ffffffffffffffffffffffffffffffffffffffff021916908373ffffffffffffffffffffffffffffffffffffffff16021790555062000174620001686200017b60201b60201c565b6200018360201b60201c565b506200049f565b600033905090565b600060011515620001a96200019d6200017b60201b60201c565b620003c360201b60201c565b151514620001b657600080fd5b81600960008273ffffffffffffffffffffffffffffffffffffffff1673ffffffffffffffffffffffffffffffffffffffff16815260200190815260200160002060009054906101000a900460ff16156200020f57600080fd5b82600c60008273ffffffffffffffffffffffffffffffffffffffff1673ffffffffffffffffffffffffffffffffffffffff16815260200190815260200160002060009054906101000a900460ff166200026757600080fd5b600060149054906101000a900460ff1615620002ba576040517f08c379a0000000000000000000000000000000000000000000000000000000008152600401620002b1906200047d565b60405180910390fd5b6004849080600181540180825580915050600190039060005260206000200160009091909190916101000a81548173ffffffffffffffffffffffffffffffffffffffff021916908373ffffffffffffffffffffffffffffffffffffffff1602179055506001600960008673ffffffffffffffffffffffffffffffffffffffff1673ffffffffffffffffffffffffffffffffffffffff16815260200190815260200160002060006101000a81548160ff0219169083151502179055508373ffffffffffffffffffffffffffffffffffffffff167f7849194239ab1d31b991b5436d81370256505cf25eaafbcccbc66acd1189691660405160405180910390a2600192505050919050565b60008060009054906101000a900473ffffffffffffffffffffffffffffffffffffffff1673ffffffffffffffffffffffffffffffffffffffff168273ffffffffffffffffffffffffffffffffffffffff16149050919050565b600082825260208201905092915050565b7f53797374656d2069732070617573656400000000000000000000000000000000600082015250565b6000620004656010836200041c565b915062000472826200042d565b602082019050919050565b60006020820190508181036000830152620004988162000456565b9050919050565b61581980620004af6000396000f3fe608060405234801561001057600080fd5b506004361061025e5760003560e01c80638456cb5911610146578063dd0df088116100c3578063e58791ce11610087578063e58791ce14610867578063ea5d503f14610897578063ee2614a8146108b5578063f9dfc505146108e5578063fd12c59214610901578063feeba736146109345761025e565b8063dd0df08814610786578063dea0959d146107b9578063e259b361146107d7578063e39f2c1b14610807578063e47d6060146108375761025e565b8063bb6241811161010a578063bb6241811461069d578063bc3da535146106cd578063c72e66c9146106ff578063c88fae5b1461072f578063ca5f1c1b1461075f5761025e565b80638456cb59146105f7578063851afcc41461060157806386147c32146106315780638da5cb5b1461064f578063ad6de4451461066d5761025e565b806333cbbef1116101df5780635412e868116101a35780635412e868146104e9578063586130be146105195780635c975abb1461054957806369e32e4214610567578063753f40ca1461059757806382f67e60146105c75761025e565b806333cbbef1146104315780633b621c4e1461044f5780633cc0f5f21461047f5780633f4ba83a146104af57806346e7ccac146104b95761025e565b8063215131301161022657806321513130146103535780632234edb61461037157806324d7806c146103a15780632984971c146103d15780632f54bf6e146104015761025e565b8063091663f714610263578063091c18aa1461029357806312793b81146102c35780631463b9c5146102f357806314fe1aa914610323575b600080fd5b61027d600480360381019061027891906145be565b610965565b60405161028a919061464c565b60405180910390f35b6102ad60048036038101906102a891906145be565b610a36565b6040516102ba9190614682565b60405180910390f35b6102dd60048036038101906102d891906145be565b610a56565b6040516102ea9190614682565b60405180910390f35b61030d600480360381019061030891906146d3565b610aac565b60405161031a9190614682565b60405180910390f35b61033d60048036038101906103389190614752565b610b74565b60405161034a9190614682565b60405180910390f35b61035b610e32565b6040516103689190614877565b60405180910390f35b61038b600480360381019061038691906145be565b610f1f565b6040516103989190614682565b60405180910390f35b6103bb60048036038101906103b691906145be565b61127a565b6040516103c89190614682565b60405180910390f35b6103eb60048036038101906103e691906145be565b61129a565b6040516103f89190614682565b60405180910390f35b61041b600480360381019061041691906145be565b611546565b6040516104289190614682565b60405180910390f35b61043961159f565b6040516104469190614877565b60405180910390f35b610469600480360381019061046491906145be565b61168c565b6040516104769190614682565b60405180910390f35b610499600480360381019061049491906145be565b611943565b6040516104a69190614682565b60405180910390f35b6104b7611963565b005b6104d360048036038101906104ce91906145be565b611a1a565b6040516104e09190614682565b60405180910390f35b61050360048036038101906104fe9190614899565b611a3a565b6040516105109190614682565b60405180910390f35b610533600480360381019061052e91906145be565b611e59565b6040516105409190614682565b60405180910390f35b610551612083565b60405161055e9190614682565b60405180910390f35b610581600480360381019061057c91906145be565b612096565b60405161058e9190614682565b60405180910390f35b6105b160048036038101906105ac91906145be565b6120ec565b6040516105be9190614682565b60405180910390f35b6105e160048036038101906105dc91906145be565b6123a4565b6040516105ee9190614682565b60405180910390f35b6105ff6123fa565b005b61061b600480360381019061061691906146d3565b6124b3565b6040516106289190614a97565b60405180910390f35b610639612788565b6040516106469190614877565b60405180910390f35b610657612875565b6040516106649190614ac8565b60405180910390f35b610687600480360381019061068291906145be565b612899565b6040516106949190614682565b60405180910390f35b6106b760048036038101906106b29190614b21565b612ac3565b6040516106c49190614682565b60405180910390f35b6106e760048036038101906106e291906145be565b612c5d565b6040516106f693929190614b83565b60405180910390f35b610719600480360381019061071491906145be565b612cb7565b6040516107269190614ac8565b60405180910390f35b61074960048036038101906107449190614bba565b612cf5565b6040516107569190614682565b60405180910390f35b610767612e71565b60405161077d9a99989796959493929190614c53565b60405180910390f35b6107a0600480360381019061079b91906145be565b613103565b6040516107b09493929190614d24565b60405180910390f35b6107c1613153565b6040516107ce9190614877565b60405180910390f35b6107f160048036038101906107ec91906145be565b613240565b6040516107fe9190614682565b60405180910390f35b610821600480360381019061081c9190614e9e565b613469565b60405161082e9190614682565b60405180910390f35b610851600480360381019061084c91906145be565b61373a565b60405161085e9190614682565b60405180910390f35b610881600480360381019061087c91906145be565b61375a565b60405161088e9190614682565b60405180910390f35b61089f613b12565b6040516108ac9190614877565b60405180910390f35b6108cf60048036038101906108ca91906145be565b613bff565b6040516108dc9190614682565b60405180910390f35b6108ff60048036038101906108fa91906145be565b613eb7565b005b61091b600480360381019061091691906145be565b6141aa565b60405161092b9493929190614d24565b60405180910390f35b61094e600480360381019061094991906145be565b6141fa565b60405161095c929190614f8c565b60405180910390f35b61096d6143fc565b6000601f60008473ffffffffffffffffffffffffffffffffffffffff1673ffffffffffffffffffffffffffffffffffffffff1681526020019081526020016000206040518060600160405290816000820160009054906101000a900463ffffffff1663ffffffff1663ffffffff1681526020016000820160049054906101000a900463ffffffff1663ffffffff1663ffffffff1681526020016000820160089054906101000a900463ffffffff1663ffffffff1663ffffffff1681525050905080915050919050565b600c6020528060005260406000206000915054906101000a900460ff1681565b6000600d60008373ffffffffffffffffffffffffffffffffffffffff1673ffffffffffffffffffffffffffffffffffffffff16815260200190815260200160002060009054906101000a900460ff169050919050565b60006001601e60008673ffffffffffffffffffffffffffffffffffffffff1673ffffffffffffffffffffffffffffffffffffffff16815260200190815260200160002060010160008573ffffffffffffffffffffffffffffffffffffffff1673ffffffffffffffffffffffffffffffffffffffff1681526020019081526020016000208381548110610b4157610b40614fb5565b5b906000526020600020906009020160080160006101000a81548160ff021916908315150217905550600190509392505050565b600084600c60008273ffffffffffffffffffffffffffffffffffffffff1673ffffffffffffffffffffffffffffffffffffffff16815260200190815260200160002060009054906101000a900460ff16610bcd57600080fd5b600d60008773ffffffffffffffffffffffffffffffffffffffff1673ffffffffffffffffffffffffffffffffffffffff16815260200190815260200160002060009054906101000a900460ff1615610c5a576040517f08c379a0000000000000000000000000000000000000000000000000000000008152600401610c5190615056565b60405180910390fd5b60096000610c6661421e565b73ffffffffffffffffffffffffffffffffffffffff1673ffffffffffffffffffffffffffffffffffffffff16815260200190815260200160002060009054906101000a900460ff1680610d025750600b60008773ffffffffffffffffffffffffffffffffffffffff1673ffffffffffffffffffffffffffffffffffffffff16815260200190815260200160002060009054906101000a900460ff165b610d41576040517f08c379a0000000000000000000000000000000000000000000000000000000008152600401610d38906150e8565b60405180910390fd5b60405180606001604052808663ffffffff1681526020018563ffffffff1681526020018463ffffffff16815250601f60008873ffffffffffffffffffffffffffffffffffffffff1673ffffffffffffffffffffffffffffffffffffffff16815260200190815260200160002060008201518160000160006101000a81548163ffffffff021916908363ffffffff16021790555060208201518160000160046101000a81548163ffffffff021916908363ffffffff16021790555060408201518160000160086101000a81548163ffffffff021916908363ffffffff1602179055509050506001915050949350505050565b6060610e3c61421e565b600960008273ffffffffffffffffffffffffffffffffffffffff1673ffffffffffffffffffffffffffffffffffffffff16815260200190815260200160002060009054906101000a900460ff16610e9257600080fd5b6007805480602002602001604051908101604052809291908181526020018280548015610f1457602002820191906000526020600020905b8160009054906101000a900473ffffffffffffffffffffffffffffffffffffffff1673ffffffffffffffffffffffffffffffffffffffff1681526020019060010190808311610eca575b505050505091505090565b6000610f2961421e565b600960008273ffffffffffffffffffffffffffffffffffffffff1673ffffffffffffffffffffffffffffffffffffffff16815260200190815260200160002060009054906101000a900460ff16610f7f57600080fd5b82600073ffffffffffffffffffffffffffffffffffffffff168173ffffffffffffffffffffffffffffffffffffffff161415610fba57600080fd5b600d60008573ffffffffffffffffffffffffffffffffffffffff1673ffffffffffffffffffffffffffffffffffffffff16815260200190815260200160002060009054906101000a900460ff16611046576040517f08c379a000000000000000000000000000000000000000000000000000000000815260040161103d90615154565b60405180910390fd5b60005b600160078054905061105b91906151a3565b811015611198578473ffffffffffffffffffffffffffffffffffffffff166008828154811061108d5761108c614fb5565b5b9060005260206000200160009054906101000a900473ffffffffffffffffffffffffffffffffffffffff1673ffffffffffffffffffffffffffffffffffffffff16141561118557600860016008805490506110e891906151a3565b815481106110f9576110f8614fb5565b5b9060005260206000200160009054906101000a900473ffffffffffffffffffffffffffffffffffffffff166008828154811061113857611137614fb5565b5b9060005260206000200160006101000a81548173ffffffffffffffffffffffffffffffffffffffff021916908373ffffffffffffffffffffffffffffffffffffffff160217905550611198565b8080611190906151d7565b915050611049565b5060088054806111ab576111aa615220565b5b6001900381819060005260206000200160006101000a81549073ffffffffffffffffffffffffffffffffffffffff021916905590556000600d60008673ffffffffffffffffffffffffffffffffffffffff1673ffffffffffffffffffffffffffffffffffffffff16815260200190815260200160002060006101000a81548160ff0219169083151502179055507fd7e9ec6e6ecd65492dce6bf513cd6867560d49544421d0783ddf06e76c24470c846040516112679190614ac8565b60405180910390a1600192505050919050565b60096020528060005260406000206000915054906101000a900460ff1681565b6000600115156112b06112ab61421e565b611546565b1515146112bc57600080fd5b81600b60008273ffffffffffffffffffffffffffffffffffffffff1673ffffffffffffffffffffffffffffffffffffffff16815260200190815260200160002060009054906101000a900460ff1661131357600080fd5b60005b600160068054905061132891906151a3565b811015611465578373ffffffffffffffffffffffffffffffffffffffff166006828154811061135a57611359614fb5565b5b9060005260206000200160009054906101000a900473ffffffffffffffffffffffffffffffffffffffff1673ffffffffffffffffffffffffffffffffffffffff16141561145257600660016006805490506113b591906151a3565b815481106113c6576113c5614fb5565b5b9060005260206000200160009054906101000a900473ffffffffffffffffffffffffffffffffffffffff166006828154811061140557611404614fb5565b5b9060005260206000200160006101000a81548173ffffffffffffffffffffffffffffffffffffffff021916908373ffffffffffffffffffffffffffffffffffffffff160217905550611465565b808061145d906151d7565b915050611316565b50600680548061147857611477615220565b5b6001900381819060005260206000200160006101000a81549073ffffffffffffffffffffffffffffffffffffffff021916905590556000600b60008573ffffffffffffffffffffffffffffffffffffffff1673ffffffffffffffffffffffffffffffffffffffff16815260200190815260200160002060006101000a81548160ff0219169083151502179055507f13c6d9ede6da10987b2b843096ec03d749f98b21a69fb296c0771e8b4d896365836040516115349190614ac8565b60405180910390a16001915050919050565b60008060009054906101000a900473ffffffffffffffffffffffffffffffffffffffff1673ffffffffffffffffffffffffffffffffffffffff168273ffffffffffffffffffffffffffffffffffffffff16149050919050565b60606115a961421e565b600960008273ffffffffffffffffffffffffffffffffffffffff1673ffffffffffffffffffffffffffffffffffffffff16815260200190815260200160002060009054906101000a900460ff166115ff57600080fd5b600480548060200260200160405190810160405280929190818152602001828054801561168157602002820191906000526020600020905b8160009054906101000a900473ffffffffffffffffffffffffffffffffffffffff1673ffffffffffffffffffffffffffffffffffffffff1681526020019060010190808311611637575b505050505091505090565b6000600115156116a261169d61421e565b611546565b1515146116ae57600080fd5b81600b60008273ffffffffffffffffffffffffffffffffffffffff1673ffffffffffffffffffffffffffffffffffffffff16815260200190815260200160002060009054906101000a900460ff161561170657600080fd5b82600c60008273ffffffffffffffffffffffffffffffffffffffff1673ffffffffffffffffffffffffffffffffffffffff16815260200190815260200160002060009054906101000a900460ff1661175d57600080fd5b600060149054906101000a900460ff16156117ad576040517f08c379a00000000000000000000000000000000000000000000000000000000081526004016117a49061529b565b60405180910390fd5b600d60008573ffffffffffffffffffffffffffffffffffffffff1673ffffffffffffffffffffffffffffffffffffffff16815260200190815260200160002060009054906101000a900460ff161561183a576040517f08c379a000000000000000000000000000000000000000000000000000000000815260040161183190615307565b60405180910390fd5b6006849080600181540180825580915050600190039060005260206000200160009091909190916101000a81548173ffffffffffffffffffffffffffffffffffffffff021916908373ffffffffffffffffffffffffffffffffffffffff1602179055506001600b60008673ffffffffffffffffffffffffffffffffffffffff1673ffffffffffffffffffffffffffffffffffffffff16815260200190815260200160002060006101000a81548160ff0219169083151502179055508373ffffffffffffffffffffffffffffffffffffffff167fcfbda6b36ad4a61c9da64b72c27111684c756bf60a9a9866f64495dcd0083f4b60405160405180910390a2600192505050919050565b600b6020528060005260406000206000915054906101000a900460ff1681565b6001151561197761197261421e565b611546565b15151461198357600080fd5b600060149054906101000a900460ff166119d2576040517f08c379a00000000000000000000000000000000000000000000000000000000081526004016119c990615373565b60405180910390fd5b60008060146101000a81548160ff0219169083151502179055507f7805862f689e2f13df9f062ff482ad3ad112aca9e0847911ed832e158c525b3360405160405180910390a1565b600a6020528060005260406000206000915054906101000a900460ff1681565b600084600c60008273ffffffffffffffffffffffffffffffffffffffff1673ffffffffffffffffffffffffffffffffffffffff16815260200190815260200160002060009054906101000a900460ff16611a9357600080fd5b8573ffffffffffffffffffffffffffffffffffffffff16601e60008973ffffffffffffffffffffffffffffffffffffffff1673ffffffffffffffffffffffffffffffffffffffff16815260200190815260200160002060010160008873ffffffffffffffffffffffffffffffffffffffff1673ffffffffffffffffffffffffffffffffffffffff1681526020019081526020016000208681548110611b3b57611b3a614fb5565b5b906000526020600020906009020160010160009054906101000a900473ffffffffffffffffffffffffffffffffffffffff1673ffffffffffffffffffffffffffffffffffffffff1614611bc3576040517f08c379a0000000000000000000000000000000000000000000000000000000008152600401611bba90615405565b60405180910390fd5b600480811115611bd657611bd5615425565b5b63ffffffff16601e60008973ffffffffffffffffffffffffffffffffffffffff1673ffffffffffffffffffffffffffffffffffffffff16815260200190815260200160002060010160008873ffffffffffffffffffffffffffffffffffffffff1673ffffffffffffffffffffffffffffffffffffffff1681526020019081526020016000208681548110611c6d57611c6c614fb5565b5b9060005260206000209060090201600501819055506000601e60008973ffffffffffffffffffffffffffffffffffffffff1673ffffffffffffffffffffffffffffffffffffffff16815260200190815260200160002060010160008873ffffffffffffffffffffffffffffffffffffffff1673ffffffffffffffffffffffffffffffffffffffff1681526020019081526020016000208681548110611d1557611d14614fb5565b5b90600052602060002090600902016003015490506000611d63611d546064611d46888661422690919063ffffffff16565b6142a190919063ffffffff16565b836142eb90919063ffffffff16565b90506000611d9f611d906064611d828a8661422690919063ffffffff16565b6142a190919063ffffffff16565b836142eb90919063ffffffff16565b905080601e60008c73ffffffffffffffffffffffffffffffffffffffff1673ffffffffffffffffffffffffffffffffffffffff16815260200190815260200160002060010160008b73ffffffffffffffffffffffffffffffffffffffff1673ffffffffffffffffffffffffffffffffffffffff1681526020019081526020016000208981548110611e3357611e32614fb5565b5b906000526020600020906009020160070181905550600194505050505095945050505050565b600060011515611e6f611e6a61421e565b611546565b151514611e7b57600080fd5b81600c60008273ffffffffffffffffffffffffffffffffffffffff1673ffffffffffffffffffffffffffffffffffffffff16815260200190815260200160002060009054906101000a900460ff16611ed257600080fd5b82600a60008273ffffffffffffffffffffffffffffffffffffffff1673ffffffffffffffffffffffffffffffffffffffff16815260200190815260200160002060009054906101000a900460ff1615611f2a57600080fd5b600060149054906101000a900460ff1615611f7a576040517f08c379a0000000000000000000000000000000000000000000000000000000008152600401611f719061529b565b60405180910390fd5b6001600a60008673ffffffffffffffffffffffffffffffffffffffff1673ffffffffffffffffffffffffffffffffffffffff16815260200190815260200160002060006101000a81548160ff0219169083151502179055506005849080600181540180825580915050600190039060005260206000200160009091909190916101000a81548173ffffffffffffffffffffffffffffffffffffffff021916908373ffffffffffffffffffffffffffffffffffffffff1602179055508373ffffffffffffffffffffffffffffffffffffffff167ff967f41cc1d0253371604dd23142273bdaf6513a10a58bc5d4cbcbce5913cd4860405160405180910390a2600192505050919050565b600060149054906101000a900460ff1681565b6000600b60008373ffffffffffffffffffffffffffffffffffffffff1673ffffffffffffffffffffffffffffffffffffffff16815260200190815260200160002060009054906101000a900460ff169050919050565b6000600115156121026120fd61421e565b611546565b15151461210e57600080fd5b81600960008273ffffffffffffffffffffffffffffffffffffffff1673ffffffffffffffffffffffffffffffffffffffff16815260200190815260200160002060009054906101000a900460ff1661216557600080fd5b60005b600160048054905061217a91906151a3565b8110156122b7578373ffffffffffffffffffffffffffffffffffffffff16600482815481106121ac576121ab614fb5565b5b9060005260206000200160009054906101000a900473ffffffffffffffffffffffffffffffffffffffff1673ffffffffffffffffffffffffffffffffffffffff1614156122a4576004600160048054905061220791906151a3565b8154811061221857612217614fb5565b5b9060005260206000200160009054906101000a900473ffffffffffffffffffffffffffffffffffffffff166004828154811061225757612256614fb5565b5b9060005260206000200160006101000a81548173ffffffffffffffffffffffffffffffffffffffff021916908373ffffffffffffffffffffffffffffffffffffffff1602179055506122b7565b80806122af906151d7565b915050612168565b5060048054806122ca576122c9615220565b5b6001900381819060005260206000200160006101000a81549073ffffffffffffffffffffffffffffffffffffffff021916905590556000600960008573ffffffffffffffffffffffffffffffffffffffff1673ffffffffffffffffffffffffffffffffffffffff16815260200190815260200160002060006101000a81548160ff0219169083151502179055508273ffffffffffffffffffffffffffffffffffffffff167f3137a7fedbfedb7895dfa5a6812a4566dae9ded68d00aeec13c6ed1fa84a1c8060405160405180910390a26001915050919050565b6000600c60008373ffffffffffffffffffffffffffffffffffffffff1673ffffffffffffffffffffffffffffffffffffffff16815260200190815260200160002060009054906101000a900460ff169050919050565b6001151561240e61240961421e565b611546565b15151461241a57600080fd5b600060149054906101000a900460ff161561246a576040517f08c379a00000000000000000000000000000000000000000000000000000000081526004016124619061529b565b60405180910390fd5b6001600060146101000a81548160ff0219169083151502179055507f6985a02210a168e66602d3235cb6db0e70f92b3ba4d376a33c0f3d9434bff62560405160405180910390a1565b6124bb61442f565b6000601e60008673ffffffffffffffffffffffffffffffffffffffff1673ffffffffffffffffffffffffffffffffffffffff16815260200190815260200160002060010160008573ffffffffffffffffffffffffffffffffffffffff1673ffffffffffffffffffffffffffffffffffffffff168152602001908152602001600020838154811061254e5761254d614fb5565b5b9060005260206000209060090201604051806101200160405290816000820160009054906101000a900473ffffffffffffffffffffffffffffffffffffffff1673ffffffffffffffffffffffffffffffffffffffff1673ffffffffffffffffffffffffffffffffffffffff1681526020016001820160009054906101000a900473ffffffffffffffffffffffffffffffffffffffff1673ffffffffffffffffffffffffffffffffffffffff1673ffffffffffffffffffffffffffffffffffffffff16815260200160028201805461262490615483565b80601f016020809104026020016040519081016040528092919081815260200182805461265090615483565b801561269d5780601f106126725761010080835404028352916020019161269d565b820191906000526020600020905b81548152906001019060200180831161268057829003601f168201915b505050505081526020016003820154815260200160048201548152602001600582015481526020016006820180546126d490615483565b80601f016020809104026020016040519081016040528092919081815260200182805461270090615483565b801561274d5780601f106127225761010080835404028352916020019161274d565b820191906000526020600020905b81548152906001019060200180831161273057829003601f168201915b50505050508152602001600782015481526020016008820160009054906101000a900460ff1615151515815250509050809150509392505050565b606061279261421e565b600960008273ffffffffffffffffffffffffffffffffffffffff1673ffffffffffffffffffffffffffffffffffffffff16815260200190815260200160002060009054906101000a900460ff166127e857600080fd5b600880548060200260200160405190810160405280929190818152602001828054801561286a57602002820191906000526020600020905b8160009054906101000a900473ffffffffffffffffffffffffffffffffffffffff1673ffffffffffffffffffffffffffffffffffffffff1681526020019060010190808311612820575b505050505091505090565b60008054906101000a900473ffffffffffffffffffffffffffffffffffffffff1681565b6000600115156128af6128aa61421e565b611546565b1515146128bb57600080fd5b81600960008273ffffffffffffffffffffffffffffffffffffffff1673ffffffffffffffffffffffffffffffffffffffff16815260200190815260200160002060009054906101000a900460ff161561291357600080fd5b82600c60008273ffffffffffffffffffffffffffffffffffffffff1673ffffffffffffffffffffffffffffffffffffffff16815260200190815260200160002060009054906101000a900460ff1661296a57600080fd5b600060149054906101000a900460ff16156129ba576040517f08c379a00000000000000000000000000000000000000000000000000000000081526004016129b19061529b565b60405180910390fd5b6004849080600181540180825580915050600190039060005260206000200160009091909190916101000a81548173ffffffffffffffffffffffffffffffffffffffff021916908373ffffffffffffffffffffffffffffffffffffffff1602179055506001600960008673ffffffffffffffffffffffffffffffffffffffff1673ffffffffffffffffffffffffffffffffffffffff16815260200190815260200160002060006101000a81548160ff0219169083151502179055508373ffffffffffffffffffffffffffffffffffffffff167f7849194239ab1d31b991b5436d81370256505cf25eaafbcccbc66acd1189691660405160405180910390a2600192505050919050565b600082600c60008273ffffffffffffffffffffffffffffffffffffffff1673ffffffffffffffffffffffffffffffffffffffff16815260200190815260200160002060009054906101000a900460ff16612b1c57600080fd5b600d60008573ffffffffffffffffffffffffffffffffffffffff1673ffffffffffffffffffffffffffffffffffffffff16815260200190815260200160002060009054906101000a900460ff1615612ba9576040517f08c379a0000000000000000000000000000000000000000000000000000000008152600401612ba090615527565b60405180910390fd5b6001601e60008773ffffffffffffffffffffffffffffffffffffffff1673ffffffffffffffffffffffffffffffffffffffff16815260200190815260200160002060010160008673ffffffffffffffffffffffffffffffffffffffff1673ffffffffffffffffffffffffffffffffffffffff1681526020019081526020016000208481548110612c3c57612c3b614fb5565b5b90600052602060002090600902016004018190555060019150509392505050565b601f6020528060005260406000206000915090508060000160009054906101000a900463ffffffff16908060000160049054906101000a900463ffffffff16908060000160089054906101000a900463ffffffff16905083565b601e6020528060005260406000206000915090508060000160009054906101000a900473ffffffffffffffffffffffffffffffffffffffff16905081565b600080601d60008573ffffffffffffffffffffffffffffffffffffffff1673ffffffffffffffffffffffffffffffffffffffff1681526020019081526020016000206000015490506000601d60008673ffffffffffffffffffffffffffffffffffffffff1673ffffffffffffffffffffffffffffffffffffffff1681526020019081526020016000206001015490508382612d909190615547565b915060405180604001604052808381526020018280612dae906151d7565b9350815250601d60008773ffffffffffffffffffffffffffffffffffffffff1673ffffffffffffffffffffffffffffffffffffffff16815260200190815260200160002060008201518160000155602082015181600101559050508473ffffffffffffffffffffffffffffffffffffffff167fe464ab30f52a81ac6832011431e41785c34251924e67263094a9128b5b997497838380612e4d906151d7565b9450604051612e5d929190614f8c565b60405180910390a260019250505092915050565b60118060000160009054906101000a900473ffffffffffffffffffffffffffffffffffffffff1690806001018054612ea890615483565b80601f0160208091040260200160405190810160405280929190818152602001828054612ed490615483565b8015612f215780601f10612ef657610100808354040283529160200191612f21565b820191906000526020600020905b815481529060010190602001808311612f0457829003601f168201915b505050505090806002018054612f3690615483565b80601f0160208091040260200160405190810160405280929190818152602001828054612f6290615483565b8015612faf5780601f10612f8457610100808354040283529160200191612faf565b820191906000526020600020905b815481529060010190602001808311612f9257829003601f168201915b505050505090806003018054612fc490615483565b80601f0160208091040260200160405190810160405280929190818152602001828054612ff090615483565b801561303d5780601f106130125761010080835404028352916020019161303d565b820191906000526020600020905b81548152906001019060200180831161302057829003601f168201915b50505050509080600401805461305290615483565b80601f016020809104026020016040519081016040528092919081815260200182805461307e90615483565b80156130cb5780601f106130a0576101008083540402835291602001916130cb565b820191906000526020600020905b8154815290600101906020018083116130ae57829003601f168201915b5050505050908060050154908060060160009054906101000a900463ffffffff1690806007015490806008015490806009015490508a565b601b6020528060005260406000206000915090508060000160009054906101000a900473ffffffffffffffffffffffffffffffffffffffff16908060010154908060020154908060030154905084565b606061315d61421e565b600960008273ffffffffffffffffffffffffffffffffffffffff1673ffffffffffffffffffffffffffffffffffffffff16815260200190815260200160002060009054906101000a900460ff166131b357600080fd5b600580548060200260200160405190810160405280929190818152602001828054801561323557602002820191906000526020600020905b8160009054906101000a900473ffffffffffffffffffffffffffffffffffffffff1673ffffffffffffffffffffffffffffffffffffffff16815260200190600101908083116131eb575b505050505091505090565b600081600073ffffffffffffffffffffffffffffffffffffffff168173ffffffffffffffffffffffffffffffffffffffff16141561327d57600080fd5b600060149054906101000a900460ff16156132cd576040517f08c379a00000000000000000000000000000000000000000000000000000000081526004016132c49061529b565b60405180910390fd5b60011515600c60008573ffffffffffffffffffffffffffffffffffffffff1673ffffffffffffffffffffffffffffffffffffffff16815260200190815260200160002060009054906101000a900460ff1615151415613361576040517f08c379a0000000000000000000000000000000000000000000000000000000008152600401613358906155e9565b60405180910390fd5b6001600c60008573ffffffffffffffffffffffffffffffffffffffff1673ffffffffffffffffffffffffffffffffffffffff16815260200190815260200160002060006101000a81548160ff0219169083151502179055506007839080600181540180825580915050600190039060005260206000200160009091909190916101000a81548173ffffffffffffffffffffffffffffffffffffffff021916908373ffffffffffffffffffffffffffffffffffffffff1602179055508273ffffffffffffffffffffffffffffffffffffffff167f04ebd75b2707fb46a2bd5561d3d4aaae47f748b158c62678904bfebde6bd66fa60405160405180910390a26001915050919050565b600086600c60008273ffffffffffffffffffffffffffffffffffffffff1673ffffffffffffffffffffffffffffffffffffffff16815260200190815260200160002060009054906101000a900460ff166134c257600080fd5b6000601e60008c73ffffffffffffffffffffffffffffffffffffffff1673ffffffffffffffffffffffffffffffffffffffff168152602001908152602001600020905060006040518061012001604052808d73ffffffffffffffffffffffffffffffffffffffff1681526020018b73ffffffffffffffffffffffffffffffffffffffff1681526020018a8152602001898152602001600081526020018863ffffffff16600481111561357757613576615425565b5b600481111561358957613588615425565b5b63ffffffff1681526020018781526020018681526020016000151581525090508160010160008c73ffffffffffffffffffffffffffffffffffffffff1673ffffffffffffffffffffffffffffffffffffffff16815260200190815260200160002081908060018154018082558091505060019003906000526020600020906009020160009091909190915060008201518160000160006101000a81548173ffffffffffffffffffffffffffffffffffffffff021916908373ffffffffffffffffffffffffffffffffffffffff16021790555060208201518160010160006101000a81548173ffffffffffffffffffffffffffffffffffffffff021916908373ffffffffffffffffffffffffffffffffffffffff16021790555060408201518160020190805190602001906136be9291906144a9565b50606082015181600301556080820151816004015560a0820151816005015560c08201518160060190805190602001906136f99291906144a9565b5060e082015181600701556101008201518160080160006101000a81548160ff02191690831515021790555050506001935050505098975050505050505050565b600d6020528060005260406000206000915054906101000a900460ff1681565b600061376461421e565b600960008273ffffffffffffffffffffffffffffffffffffffff1673ffffffffffffffffffffffffffffffffffffffff16815260200190815260200160002060009054906101000a900460ff166137ba57600080fd5b82600073ffffffffffffffffffffffffffffffffffffffff168173ffffffffffffffffffffffffffffffffffffffff1614156137f557600080fd5b600c60008573ffffffffffffffffffffffffffffffffffffffff1673ffffffffffffffffffffffffffffffffffffffff16815260200190815260200160002060009054906101000a900460ff16613881576040517f08c379a000000000000000000000000000000000000000000000000000000000815260040161387890615154565b60405180910390fd5b600960008573ffffffffffffffffffffffffffffffffffffffff1673ffffffffffffffffffffffffffffffffffffffff16815260200190815260200160002060009054906101000a900460ff16156138de576138dc846120ec565b505b60005b60016007805490506138f391906151a3565b811015613a30578473ffffffffffffffffffffffffffffffffffffffff166007828154811061392557613924614fb5565b5b9060005260206000200160009054906101000a900473ffffffffffffffffffffffffffffffffffffffff1673ffffffffffffffffffffffffffffffffffffffff161415613a1d576007600160078054905061398091906151a3565b8154811061399157613990614fb5565b5b9060005260206000200160009054906101000a900473ffffffffffffffffffffffffffffffffffffffff16600782815481106139d0576139cf614fb5565b5b9060005260206000200160006101000a81548173ffffffffffffffffffffffffffffffffffffffff021916908373ffffffffffffffffffffffffffffffffffffffff160217905550613a30565b8080613a28906151d7565b9150506138e1565b506007805480613a4357613a42615220565b5b6001900381819060005260206000200160006101000a81549073ffffffffffffffffffffffffffffffffffffffff021916905590556000600c60008673ffffffffffffffffffffffffffffffffffffffff1673ffffffffffffffffffffffffffffffffffffffff16815260200190815260200160002060006101000a81548160ff0219169083151502179055507fe7c4f3734af7d1c6ebf990b3b403fba2d34b0811be0bf983c6f0259973118cff84604051613aff9190614ac8565b60405180910390a1600192505050919050565b6060613b1c61421e565b600b60008273ffffffffffffffffffffffffffffffffffffffff1673ffffffffffffffffffffffffffffffffffffffff16815260200190815260200160002060009054906101000a900460ff16613b7257600080fd5b6006805480602002602001604051908101604052809291908181526020018280548015613bf457602002820191906000526020600020905b8160009054906101000a900473ffffffffffffffffffffffffffffffffffffffff1673ffffffffffffffffffffffffffffffffffffffff1681526020019060010190808311613baa575b505050505091505090565b600060011515613c15613c1061421e565b611546565b151514613c2157600080fd5b81600a60008273ffffffffffffffffffffffffffffffffffffffff1673ffffffffffffffffffffffffffffffffffffffff16815260200190815260200160002060009054906101000a900460ff16613c7857600080fd5b60005b6001600580549050613c8d91906151a3565b811015613dca578373ffffffffffffffffffffffffffffffffffffffff1660058281548110613cbf57613cbe614fb5565b5b9060005260206000200160009054906101000a900473ffffffffffffffffffffffffffffffffffffffff1673ffffffffffffffffffffffffffffffffffffffff161415613db75760056001600580549050613d1a91906151a3565b81548110613d2b57613d2a614fb5565b5b9060005260206000200160009054906101000a900473ffffffffffffffffffffffffffffffffffffffff1660058281548110613d6a57613d69614fb5565b5b9060005260206000200160006101000a81548173ffffffffffffffffffffffffffffffffffffffff021916908373ffffffffffffffffffffffffffffffffffffffff160217905550613dca565b8080613dc2906151d7565b915050613c7b565b506005805480613ddd57613ddc615220565b5b6001900381819060005260206000200160006101000a81549073ffffffffffffffffffffffffffffffffffffffff021916905590556000600a60008573ffffffffffffffffffffffffffffffffffffffff1673ffffffffffffffffffffffffffffffffffffffff16815260200190815260200160002060006101000a81548160ff0219169083151502179055508273ffffffffffffffffffffffffffffffffffffffff167f16ff9ceec5934dbaafd95c8f14cc9a7e9007889c2fa6b55696785f7a0f10635760405160405180910390a26001915050919050565b613ebf61421e565b600960008273ffffffffffffffffffffffffffffffffffffffff1673ffffffffffffffffffffffffffffffffffffffff16815260200190815260200160002060009054906101000a900460ff16613f1557600080fd5b81600c60008273ffffffffffffffffffffffffffffffffffffffff1673ffffffffffffffffffffffffffffffffffffffff16815260200190815260200160002060009054906101000a900460ff16613f6c57600080fd5b600d60008473ffffffffffffffffffffffffffffffffffffffff1673ffffffffffffffffffffffffffffffffffffffff16815260200190815260200160002060009054906101000a900460ff1615613ff9576040517f08c379a0000000000000000000000000000000000000000000000000000000008152600401613ff090615655565b60405180910390fd5b600960008473ffffffffffffffffffffffffffffffffffffffff1673ffffffffffffffffffffffffffffffffffffffff16815260200190815260200160002060009054906101000a900460ff161561405657614054836120ec565b505b600a60008473ffffffffffffffffffffffffffffffffffffffff1673ffffffffffffffffffffffffffffffffffffffff16815260200190815260200160002060009054906101000a900460ff16156140b3576140b183613bff565b505b6008839080600181540180825580915050600190039060005260206000200160009091909190916101000a81548173ffffffffffffffffffffffffffffffffffffffff021916908373ffffffffffffffffffffffffffffffffffffffff1602179055506001600d60008573ffffffffffffffffffffffffffffffffffffffff1673ffffffffffffffffffffffffffffffffffffffff16815260200190815260200160002060006101000a81548160ff0219169083151502179055507f42e160154868087d6bfdc0ca23d96a1c1cfa32f1b72ba9ba27b69b98a0d819dc8360405161419d9190614ac8565b60405180910390a1505050565b601c6020528060005260406000206000915090508060000160009054906101000a900473ffffffffffffffffffffffffffffffffffffffff16908060010154908060020154908060030154905084565b601d6020528060005260406000206000915090508060000154908060010154905082565b600033905090565b600080831415614239576000905061429b565b600082846142479190615675565b905082848261425691906156fe565b14614296576040517f08c379a000000000000000000000000000000000000000000000000000000000815260040161428d906157a1565b60405180910390fd5b809150505b92915050565b60006142e383836040518060400160405280601a81526020017f536166654d6174683a204469766973696f6e206279207a65726f000000000000815250614335565b905092915050565b600061432d83836040518060400160405280601e81526020017f536166654d6174683a205375627472616374696f6e206f766572666c6f770000815250614398565b905092915050565b6000808311829061437c576040517f08c379a000000000000000000000000000000000000000000000000000000000815260040161437391906157c1565b60405180910390fd5b506000838561438b91906156fe565b9050809150509392505050565b60008383111582906143e0576040517f08c379a00000000000000000000000000000000000000000000000000000000081526004016143d791906157c1565b60405180910390fd5b50600083856143ef91906151a3565b9050809150509392505050565b6040518060600160405280600063ffffffff168152602001600063ffffffff168152602001600063ffffffff1681525090565b604051806101200160405280600073ffffffffffffffffffffffffffffffffffffffff168152602001600073ffffffffffffffffffffffffffffffffffffffff1681526020016060815260200160008152602001600081526020016000815260200160608152602001600081526020016000151581525090565b8280546144b590615483565b90600052602060002090601f0160209004810192826144d7576000855561451e565b82601f106144f057805160ff191683800117855561451e565b8280016001018555821561451e579182015b8281111561451d578251825591602001919060010190614502565b5b50905061452b919061452f565b5090565b5b80821115614548576000816000905550600101614530565b5090565b6000604051905090565b600080fd5b600080fd5b600073ffffffffffffffffffffffffffffffffffffffff82169050919050565b600061458b82614560565b9050919050565b61459b81614580565b81146145a657600080fd5b50565b6000813590506145b881614592565b92915050565b6000602082840312156145d4576145d3614556565b5b60006145e2848285016145a9565b91505092915050565b600063ffffffff82169050919050565b614604816145eb565b82525050565b60608201600082015161462060008501826145fb565b50602082015161463360208501826145fb565b50604082015161464660408501826145fb565b50505050565b6000606082019050614661600083018461460a565b92915050565b60008115159050919050565b61467c81614667565b82525050565b60006020820190506146976000830184614673565b92915050565b6000819050919050565b6146b08161469d565b81146146bb57600080fd5b50565b6000813590506146cd816146a7565b92915050565b6000806000606084860312156146ec576146eb614556565b5b60006146fa868287016145a9565b935050602061470b868287016145a9565b925050604061471c868287016146be565b9150509250925092565b61472f816145eb565b811461473a57600080fd5b50565b60008135905061474c81614726565b92915050565b6000806000806080858703121561476c5761476b614556565b5b600061477a878288016145a9565b945050602061478b8782880161473d565b935050604061479c8782880161473d565b92505060606147ad8782880161473d565b91505092959194509250565b600081519050919050565b600082825260208201905092915050565b6000819050602082019050919050565b6147ee81614580565b82525050565b600061480083836147e5565b60208301905092915050565b6000602082019050919050565b6000614824826147b9565b61482e81856147c4565b9350614839836147d5565b8060005b8381101561486a57815161485188826147f4565b975061485c8361480c565b92505060018101905061483d565b5085935050505092915050565b600060208201905081810360008301526148918184614819565b905092915050565b600080600080600060a086880312156148b5576148b4614556565b5b60006148c3888289016145a9565b95505060206148d4888289016145a9565b94505060406148e5888289016146be565b93505060606148f6888289016146be565b9250506080614907888289016146be565b9150509295509295909350565b600081519050919050565b600082825260208201905092915050565b60005b8381101561494e578082015181840152602081019050614933565b8381111561495d576000848401525b50505050565b6000601f19601f8301169050919050565b600061497f82614914565b614989818561491f565b9350614999818560208601614930565b6149a281614963565b840191505092915050565b6149b68161469d565b82525050565b6149c581614667565b82525050565b6000610120830160008301516149e460008601826147e5565b5060208301516149f760208601826147e5565b5060408301518482036040860152614a0f8282614974565b9150506060830151614a2460608601826149ad565b506080830151614a3760808601826149ad565b5060a0830151614a4a60a08601826149ad565b5060c083015184820360c0860152614a628282614974565b91505060e0830151614a7760e08601826149ad565b50610100830151614a8c6101008601826149bc565b508091505092915050565b60006020820190508181036000830152614ab181846149cb565b905092915050565b614ac281614580565b82525050565b6000602082019050614add6000830184614ab9565b92915050565b6000614aee82614580565b9050919050565b614afe81614ae3565b8114614b0957600080fd5b50565b600081359050614b1b81614af5565b92915050565b600080600060608486031215614b3a57614b39614556565b5b6000614b4886828701614b0c565b9350506020614b59868287016145a9565b9250506040614b6a868287016146be565b9150509250925092565b614b7d816145eb565b82525050565b6000606082019050614b986000830186614b74565b614ba56020830185614b74565b614bb26040830184614b74565b949350505050565b60008060408385031215614bd157614bd0614556565b5b6000614bdf858286016145a9565b9250506020614bf0858286016146be565b9150509250929050565b600082825260208201905092915050565b6000614c1682614914565b614c208185614bfa565b9350614c30818560208601614930565b614c3981614963565b840191505092915050565b614c4d8161469d565b82525050565b600061014082019050614c69600083018d614ab9565b8181036020830152614c7b818c614c0b565b90508181036040830152614c8f818b614c0b565b90508181036060830152614ca3818a614c0b565b90508181036080830152614cb78189614c0b565b9050614cc660a0830188614c44565b614cd360c0830187614b74565b614ce060e0830186614c44565b614cee610100830185614c44565b614cfc610120830184614c44565b9b9a5050505050505050505050565b6000819050919050565b614d1e81614d0b565b82525050565b6000608082019050614d396000830187614ab9565b614d466020830186614d15565b614d536040830185614d15565b614d606060830184614d15565b95945050505050565b600080fd5b600080fd5b7f4e487b7100000000000000000000000000000000000000000000000000000000600052604160045260246000fd5b614dab82614963565b810181811067ffffffffffffffff82111715614dca57614dc9614d73565b5b80604052505050565b6000614ddd61454c565b9050614de98282614da2565b919050565b600067ffffffffffffffff821115614e0957614e08614d73565b5b614e1282614963565b9050602081019050919050565b82818337600083830152505050565b6000614e41614e3c84614dee565b614dd3565b905082815260208101848484011115614e5d57614e5c614d6e565b5b614e68848285614e1f565b509392505050565b600082601f830112614e8557614e84614d69565b5b8135614e95848260208601614e2e565b91505092915050565b600080600080600080600080610100898b031215614ebf57614ebe614556565b5b6000614ecd8b828c01614b0c565b9850506020614ede8b828c016145a9565b9750506040614eef8b828c016145a9565b965050606089013567ffffffffffffffff811115614f1057614f0f61455b565b5b614f1c8b828c01614e70565b9550506080614f2d8b828c016146be565b94505060a0614f3e8b828c0161473d565b93505060c089013567ffffffffffffffff811115614f5f57614f5e61455b565b5b614f6b8b828c01614e70565b92505060e0614f7c8b828c016146be565b9150509295985092959890939650565b6000604082019050614fa16000830185614c44565b614fae6020830184614c44565b9392505050565b7f4e487b7100000000000000000000000000000000000000000000000000000000600052603260045260246000fd5b7f4f7065726174696f6e733a204169726c696e6520697320426c61636b6c69737460008201527f6564000000000000000000000000000000000000000000000000000000000000602082015250565b6000615040602283614bfa565b915061504b82614fe4565b604082019050919050565b6000602082019050818103600083015261506f81615033565b9050919050565b7f4f7065726174696f6e733a204e6f7420616e2041646d696e206f72204169726c60008201527f696e650000000000000000000000000000000000000000000000000000000000602082015250565b60006150d2602383614bfa565b91506150dd82615076565b604082019050919050565b60006020820190508181036000830152615101816150c5565b9050919050565b7f41646472657373206e6f742061204c6973746564205573657200000000000000600082015250565b600061513e601983614bfa565b915061514982615108565b602082019050919050565b6000602082019050818103600083015261516d81615131565b9050919050565b7f4e487b7100000000000000000000000000000000000000000000000000000000600052601160045260246000fd5b60006151ae8261469d565b91506151b98361469d565b9250828210156151cc576151cb615174565b5b828203905092915050565b60006151e28261469d565b91507fffffffffffffffffffffffffffffffffffffffffffffffffffffffffffffffff82141561521557615214615174565b5b600182019050919050565b7f4e487b7100000000000000000000000000000000000000000000000000000000600052603160045260246000fd5b7f53797374656d2069732070617573656400000000000000000000000000000000600082015250565b6000615285601083614bfa565b91506152908261524f565b602082019050919050565b600060208201905081810360008301526152b481615278565b9050919050565b7f4165726f706179653a204169726c696e6520697320426c61636b4c6973746564600082015250565b60006152f1602083614bfa565b91506152fc826152bb565b602082019050919050565b60006020820190508181036000830152615320816152e4565b9050919050565b7f53797374656d206973206e6f7420706175736564000000000000000000000000600082015250565b600061535d601483614bfa565b915061536882615327565b602082019050919050565b6000602082019050818103600083015261538c81615350565b9050919050565b7f4f7065726174696f6e733a2053656e646572206973204e6f742050617373656e60008201527f676572207468617420426f6f6b656420466c6967687400000000000000000000602082015250565b60006153ef603683614bfa565b91506153fa82615393565b604082019050919050565b6000602082019050818103600083015261541e816153e2565b9050919050565b7f4e487b7100000000000000000000000000000000000000000000000000000000600052602160045260246000fd5b7f4e487b7100000000000000000000000000000000000000000000000000000000600052602260045260246000fd5b6000600282049050600182168061549b57607f821691505b602082108114156154af576154ae615454565b5b50919050565b7f4f7065726174696f6e733a20436c61696d616e7420697320426c61636b6c697360008201527f7465640000000000000000000000000000000000000000000000000000000000602082015250565b6000615511602383614bfa565b915061551c826154b5565b604082019050919050565b6000602082019050818103600083015261554081615504565b9050919050565b60006155528261469d565b915061555d8361469d565b9250827fffffffffffffffffffffffffffffffffffffffffffffffffffffffffffffffff0382111561559257615591615174565b5b828201905092915050565b7f4164647265737320686173206265656e2057686974656c697374656400000000600082015250565b60006155d3601c83614bfa565b91506155de8261559d565b602082019050919050565b60006020820190508181036000830152615602816155c6565b9050919050565b7f5573657220616c726561647920426c61636b4c69737465640000000000000000600082015250565b600061563f601883614bfa565b915061564a82615609565b602082019050919050565b6000602082019050818103600083015261566e81615632565b9050919050565b60006156808261469d565b915061568b8361469d565b9250817fffffffffffffffffffffffffffffffffffffffffffffffffffffffffffffffff04831182151516156156c4576156c3615174565b5b828202905092915050565b7f4e487b7100000000000000000000000000000000000000000000000000000000600052601260045260246000fd5b60006157098261469d565b91506157148361469d565b925082615724576157236156cf565b5b828204905092915050565b7f536166654d6174683a204d756c7469706c69636174696f6e206f766572666c6f60008201527f7700000000000000000000000000000000000000000000000000000000000000602082015250565b600061578b602183614bfa565b91506157968261572f565b604082019050919050565b600060208201905081810360008301526157ba8161577e565b9050919050565b600060208201905081810360008301526157db8184614c0b565b90509291505056fea2646970667358221220147e4b7632db0f0eb60308c7b352eba1e056c9fbc86ec77c7f87a8ca985757aa64736f6c634300080b0033",
  "immutableReferences": {},
  "source": "// SPDX-License-Identifier: MIT OR LGPL-2.0-or-later\npragma solidity ^0.8.5;\n\n// import \"@openzeppelin/upgrades/contracts/Initializable.sol\";\n\nimport \"./Pausable.sol\";\nimport \"./ExternalStorage.sol\"; \nimport \"./Escrow.sol\";\nimport \"./Libs/Safemath.sol\";\n\n/**\n * @dev Contract module for user management.\n *\n * This module is used through inheritance. It will make available the contract\n * addresses of users, admin, whitelisting and blacklisting of users.\n */\ncontract Operations is Pausable, ExternalStorage {\n    using SafeMath for uint256;\n\n    event AddedAdmin(address indexed _admin);\n    event RemovedAdmin(address indexed _admin);\n    event AddedAuthorizer(address indexed _authorizer);\n    event RemovedAuthorizer(address indexed _authorizer);\n    event AddedAirlineList(address indexed _airline);\n    event RemovedAirlineList(address _airline);\n    event SetAddressList(address indexed _user);\n    event RemoveAddressList(address _user);\n    event AddedBlackList(address _user);\n    event RemovedBlackList(address _user);\n    event DestroyedBlackFunds(address _User, uint256 _amount);\n    event PassengersClaims(address indexed flightEscrow, uint256 amountclaimed, uint256 passengerNo);\n\n    modifier isAdminAddr(address _admin) {\n        require(isAdmin[_admin]);\n        _;\n    }\n\n    modifier notAdmin(address admin) {\n        require(!isAdmin[admin]);\n        _;\n    }\n\n    modifier isAuthorizerAddr(address authorizer) {\n        require(isAuthorizer[authorizer]);\n        _;\n    }\n\n    modifier notAuthorizer(address authorizer) {\n        require(!isAuthorizer[authorizer]);\n        _;\n    }\n\n    modifier notAirline(address airline) {\n        require(!isAirLineListed[airline]);\n        _;\n    }\n\n    modifier notNull(address _address) {\n        require(_address != address(0x0));\n        _;\n    }\n\n    modifier checkAirlineList(address _user) {\n        require(isAirLineListed[_user]);\n        _;\n    }\n\n    modifier checkUserList(address _user) {\n        require(isUserListed[_user]);\n        _;\n    }\n\n    constructor() {\n        isUserListed[_msgSender()] = true;\n        usersList.push(_msgSender());\n\n        AddAdmin(_msgSender());\n        // AddAuthorizer(_msgSender());\n    }\n\n    //adds address as admin and also authorizers the address\n    function AddAdmin(address _AdminID)\n        public\n        onlyOwner\n        notAdmin(_AdminID)\n        checkUserList(_AdminID)\n        whenNotPaused\n        returns (bool)\n    {\n        admins.push(_AdminID);\n        isAdmin[_AdminID] = true;\n\n        emit AddedAdmin(_AdminID);\n\n        return true;\n    }\n\n    //Removes and Admin\n    function RemoveAdmin(address _addr)\n        public\n        onlyOwner\n        isAdminAddr(_addr)\n        returns (bool)\n    {\n        for (uint256 i = 0; i < admins.length - 1; i++)\n            if (admins[i] == _addr) {\n                admins[i] = admins[admins.length - 1];\n                break;\n            }\n        admins.pop();\n        isAdmin[_addr] = false;\n\n        emit RemovedAdmin(_addr);\n\n        return true;\n    }\n\n    //Get all listed Admins on the System\n    function GetAdminList()\n        public\n        view\n        isAdminAddr(_msgSender())\n        returns (address[] memory)\n    {\n        return admins;\n    }\n\n    //adds address as airline \n    function AddAirline(address _airline)\n        public\n        onlyOwner\n        notAirline(_airline)\n        checkUserList(_airline)\n        whenNotPaused\n        returns (bool)\n    {\n        require(!isBlackListed[_airline], \"Aeropaye: Airline is BlackListed\");\n        airlinesList.push(_airline);\n        isAirLineListed[_airline] = true;\n\n        emit AddedAirlineList(_airline);\n\n        return true;\n    }\n\n    //Removes an Airline\n    function RemoveAirline(address _addr)\n        public\n        onlyOwner\n        checkAirlineList(_addr)\n        returns (bool)\n    {\n        for (uint256 i = 0; i < airlinesList.length - 1; i++)\n            if (airlinesList[i] == _addr) {\n                airlinesList[i] = airlinesList[airlinesList.length - 1];\n                break;\n            }\n        airlinesList.pop();\n        isAirLineListed[_addr] = false;\n\n        emit RemovedAirlineList(_addr);\n\n        return true;\n    }\n\n    //Get all listed Admins on the System\n    function GetAirlineList()\n        public\n        view\n        checkAirlineList(_msgSender())\n        returns (address[] memory)\n    {\n        return airlinesList;\n    }\n\n    //Authorizer Rights and Functions\n    function AddAuthorizer(address authorizer)\n        public\n        onlyOwner\n        checkUserList(authorizer)\n        notAuthorizer(authorizer)\n        whenNotPaused\n        returns (bool)\n    {\n        isAuthorizer[authorizer] = true;\n        authorizers.push(authorizer);\n\n        emit AddedAuthorizer(authorizer);\n\n        return true;\n    }\n\n    // Remove authorizer\n    function RemoveAuthorizer(address _authorizer)\n        public\n        onlyOwner\n        isAuthorizerAddr(_authorizer)\n        returns (bool)\n    {\n        for (uint256 i = 0; i < authorizers.length - 1; i++)\n            if (authorizers[i] == _authorizer) {\n                authorizers[i] = authorizers[authorizers.length - 1];\n                break;\n            }\n        authorizers.pop();\n        isAuthorizer[_authorizer] = false;\n\n        emit RemovedAuthorizer(_authorizer);\n\n        return true;\n    }\n\n    // Get all listed authorizers on the System\n    function GetAuthorizerList()\n        public\n        view\n        isAdminAddr(_msgSender())\n        returns (address[] memory)\n    {\n        return authorizers;\n    }\n\n    // List users on the System\n    function SetUserList(address _addr)\n        public\n        notNull(_addr)\n        whenNotPaused\n        returns (bool)\n    {\n        require(isUserListed[_addr] != true, \"Address has been Whitelisted\");\n        isUserListed[_addr] = true;\n        usersList.push(_addr);\n\n        emit SetAddressList(_addr);\n\n        return true;\n    }\n\n    // Remove users from whitelist\n    function RemoveUserList(address _addr)\n        public\n        isAdminAddr(_msgSender())\n        notNull(_addr)\n        returns (bool)\n    {\n        require(isUserListed[_addr], \"Address not a Listed User\");\n\n        if (isAdmin[_addr]) {\n            RemoveAdmin(_addr);\n        }\n\n        for (uint256 i = 0; i < usersList.length - 1; i++)\n            if (usersList[i] == _addr) {\n                usersList[i] = usersList[usersList.length - 1];\n                break;\n            }\n        usersList.pop();\n        isUserListed[_addr] = false;\n\n        emit RemoveAddressList(_addr);\n\n        return true;\n    }\n\n    //Get all listed users in the System\n    function GetUsersList()\n        public\n        view\n        isAdminAddr(_msgSender())\n        returns (address[] memory)\n    {\n        return usersList;\n    }\n\n    // Add adress to BlackList\n    function AddBlackList(address _evilUser)\n        public\n        isAdminAddr(_msgSender())\n        checkUserList(_evilUser)\n    {\n        require(!isBlackListed[_evilUser], \"User already BlackListed\");\n\n        if (isAdmin[_evilUser]) {\n            RemoveAdmin(_evilUser);\n        }\n        if (isAuthorizer[_evilUser]) {\n            RemoveAuthorizer(_evilUser);\n        }\n\n        blackList.push(_evilUser);\n        isBlackListed[_evilUser] = true;\n\n        emit AddedBlackList(_evilUser);\n    }\n\n    // Remove Address from BlackList\n    function RemoveBlackList(address _clearedUser)\n        public\n        isAdminAddr(_msgSender())\n        notNull(_clearedUser)\n        returns (bool)\n    {\n        require(isBlackListed[_clearedUser], \"Address not a Listed User\");\n\n        for (uint256 i = 0; i < usersList.length - 1; i++)\n            if (blackList[i] == _clearedUser) {\n                blackList[i] = blackList[blackList.length - 1];\n                break;\n            }\n        blackList.pop();\n        isBlackListed[_clearedUser] = false;\n\n        emit RemovedBlackList(_clearedUser);\n\n        return true;\n    }\n\n    //Get all who is blacklisted on the System\n    function GetBlackListed()\n        public\n        view\n        isAdminAddr(_msgSender())\n        returns (address[] memory)\n    {\n        return blackList;\n    }\n\n    function IsBlackListed(address _address)\n        public\n        view\n        returns (bool)\n        {\n        return isBlackListed[_address];\n        }\n\n    //Check if it's a user\n    function IsUserList(address _user)\n        public\n        view\n        returns (bool)\n    {\n        return (isUserListed[_user]);\n    }\n\n    //Check if it is an airline address\n    function IsAirLineList(address _user)\n        public\n        view\n        returns (bool)\n    {\n        return (isAirLineListed[_user]);\n    }\n\n    //Booking passengers\n    function FlightBookPassengers(\n        Escrow _flightEscrow,\n        address _passenger,\n        address _bookedBy,\n        string memory _flightClass,\n        uint256 _flightCost,\n        uint32 _flightStatus,\n        string memory _flightSeat,\n        uint256 _flightRefund\n        )\n        external\n        checkUserList(_bookedBy)\n        returns (bool)\n    {\n        EscrowPassengers storage escrowFlightSave = flightPassengers[address(_flightEscrow)];\n            PassengerBookingDetails memory escrowPassengerSave = \n            PassengerBookingDetails(\n                    {  \n                        FlightID: address(_flightEscrow),\n                        BookedBy: _bookedBy,\n                        FlightClass: _flightClass,\n                        FlightCost: _flightCost,\n                        FlightCostClaimed: 0,\n                        FlightStatus: uint32(FlightStatus(_flightStatus)),\n                        FlightSeat: _flightSeat,\n                        FlightRefund: _flightRefund,\n                        CheckedIn: false\n    });\n        escrowFlightSave.passengers[_passenger].push(escrowPassengerSave);\n        return true;\n    }\n\n     //Claim amount withdrawal check\n    function PassengerManifest(\n        address _flightEscrow, \n        address _passenger,\n        uint256  _keyId\n        )\n        view\n        external\n        //Check if user is authorized to access function\n        returns (PassengerBookingDetails memory){\n            PassengerBookingDetails memory passengerManifest = flightPassengers[_flightEscrow].passengers[_passenger][_keyId];\n       return passengerManifest;\n    }\n\n    //Passenger CheckIn to board flight\n    function PassengersCheckIn(\n        address _flightEscrow,\n        address _passenger,\n        uint256  _keyId\n        ) \n        external\n        returns (bool){\n            flightPassengers[address(_flightEscrow)].passengers[_passenger][_keyId].CheckedIn = true;\n\n        return true;\n    }\n\n    //Update PassengerManifest\n    function CancelPassengerBooking(\n        address _flightEscrow, \n        address _passenger,\n        uint256  _keyId,\n        uint256 _cancelBookingRefund,\n        uint256 _platformFee\n    )\n        external\n        //chcek if airline is authorizeed to access and Update\n        checkUserList(_passenger)\n        returns(bool){\n            require(flightPassengers[address(_flightEscrow)].passengers[_passenger][_keyId].BookedBy == _passenger, \"Operations: Sender is Not Passenger that Booked Flight\");\n            flightPassengers[address(_flightEscrow)].passengers[_passenger][_keyId].FlightStatus = uint32(FlightStatus.CANCELLED);\n            uint256 flightCost = flightPassengers[address(_flightEscrow)].passengers[_passenger][_keyId].FlightCost;\n            uint calFlightRefund = flightCost.sub((flightCost.mul(_platformFee)).div(100));\n            uint256 FlightRefund = calFlightRefund.sub((calFlightRefund.mul(_cancelBookingRefund)).div(100));\n            flightPassengers[address(_flightEscrow)].passengers[_passenger][_keyId].FlightRefund = FlightRefund;\n            \n        return true;\n    }\n\n    //Disable Passenger claim after passenger has claims\n    function DeleteClaim (\n        Escrow _flightEscrow, \n        address _passenger,\n        uint256  _keyId\n        )\n        external\n        checkUserList(_passenger)\n        returns (bool){\n            require(!isBlackListed[_passenger], \"Operations: Claimant is Blacklisted\");\n            flightPassengers[address(_flightEscrow)].passengers[_passenger][_keyId].FlightCostClaimed = 1;\n        return true;\n    }\n\n    //claims details\n    function Claims(\n        address _flightEscrow,\n        uint256 _amountClaimed\n    )\n    external\n    returns(bool){\n        uint256 amountClaimed = PassengerClaim[_flightEscrow].TotalAmountClaimed;\n        uint256 passengerCount = PassengerClaim[_flightEscrow].NumberOfPassengers;\n        \n            amountClaimed += _amountClaimed;\n            PassengerClaim[_flightEscrow] = PassengerClaims(amountClaimed, passengerCount++);\n\n            emit PassengersClaims(_flightEscrow, amountClaimed, passengerCount++);\n        return true;\n    }\n\n    //set refunds\n    function SetRefunds(\n        address _airline,\n        uint32 _flight,\n        uint32 _booking,\n        uint32 _delayed\n    )\n    external\n    checkUserList(_airline)\n    returns(bool){\n        require(!isBlackListed[_airline], \"Operations: Airline is Blacklisted\");\n        require(isAdmin[_msgSender()] || isAirLineListed[_airline], \"Operations: Not an Admin or Airline\");\n        refunds[_airline] = RefundSettings(_flight, _booking, _delayed);\n        return true;\n    }\n\n    //get refunds\n    function GetRefunds(address _airline)\n    external\n    view\n    returns(RefundSettings memory){\n       RefundSettings memory refunds = refunds[_airline];\n       return refunds;\n    }\n}\n",
  "sourcePath": "/Users/jesudarajeminusi/ConvexityProjs/wrapcbdc/wrap-cbdc-web3/contracts/Operations.sol",
  "compiler": {
    "name": "solc",
    "version": "0.8.11+commit.d7f03943.Emscripten.clang"
  },
  "schemaVersion": "3.4.6",
  "updatedAt": "2022-07-06T17:18:03.120Z",
  "networkType": "ethereum",
  "devdoc": {
    "details": "Contract module for user management. This module is used through inheritance. It will make available the contract addresses of users, admin, whitelisting and blacklisting of users.",
    "kind": "dev",
    "methods": {
      "isOwner(address)": {
        "details": "returns trure is address is the contract Owner.",
        "params": {
          "_address": "- The address of the conntract Owner."
        }
      },
      "pause()": {
        "details": "called only by the owner to pause, triggers stopped state"
      },
      "unpause()": {
        "details": "called only by the owner to unpause, returns to normal state"
      }
    },
    "version": 1
  },
  "userdoc": {
    "kind": "user",
    "methods": {},
    "version": 1
  }
}