{
  "contractName": "Ownable",
  "abi": [
    {
      "inputs": [],
      "stateMutability": "nonpayable",
      "type": "constructor"
    },
    {
      "inputs": [],
      "name": "owner",
      "outputs": [
        {
          "internalType": "address",
          "name": "",
          "type": "address"
        }
      ],
      "stateMutability": "view",
      "type": "function"
    },
    {
      "inputs": [
        {
          "internalType": "address",
          "name": "_address",
          "type": "address"
        }
      ],
      "name": "isOwner",
      "outputs": [
        {
          "internalType": "bool",
          "name": "",
          "type": "bool"
        }
      ],
      "stateMutability": "view",
      "type": "function"
    }
  ],
  "bytecode": "0x608060405234801561001057600080fd5b5061001f61006360201b60201c565b6000806101000a81548173ffffffffffffffffffffffffffffffffffffffff021916908373ffffffffffffffffffffffffffffffffffffffff16021790555061006b565b600033905090565b61022c8061007a6000396000f3fe608060405234801561001057600080fd5b50600436106100365760003560e01c80632f54bf6e1461003b5780638da5cb5b1461006b575b600080fd5b61005560048036038101906100509190610169565b610089565b60405161006291906101b1565b60405180910390f35b6100736100e2565b60405161008091906101db565b60405180910390f35b60008060009054906101000a900473ffffffffffffffffffffffffffffffffffffffff1673ffffffffffffffffffffffffffffffffffffffff168273ffffffffffffffffffffffffffffffffffffffff16149050919050565b60008054906101000a900473ffffffffffffffffffffffffffffffffffffffff1681565b600080fd5b600073ffffffffffffffffffffffffffffffffffffffff82169050919050565b60006101368261010b565b9050919050565b6101468161012b565b811461015157600080fd5b50565b6000813590506101638161013d565b92915050565b60006020828403121561017f5761017e610106565b5b600061018d84828501610154565b91505092915050565b60008115159050919050565b6101ab81610196565b82525050565b60006020820190506101c660008301846101a2565b92915050565b6101d58161012b565b82525050565b60006020820190506101f060008301846101cc565b9291505056fea2646970667358221220cde1db3726c8f81f939c73eb8bf383a62b381c649b7bf744f4c9ea3b0bc0f1e564736f6c634300080b0033",
  "immutableReferences": {},
  "source": "// SPDX-License-Identifier: MIT OR LGPL-2.0-or-later\npragma solidity ^0.8.5;\n\n// import \"@openzeppelin/upgrades/contracts/Initializable.sol\";\n\nimport \"./Libs/Context.sol\";\n\n/**\n * @title Owned\n *\n * @dev Owned contract - Implements a simple ownership model with 2-phase transfer\n * functions to let the owner sets transfer the ownership control. It can transfer\n * the ownership to a new owner through making a proposedOwner.\n */\ncontract Ownable is Context {\n    address public owner;\n\n    /**\n     * @dev The Owned constructor sets the original `owner` of the contract to the\n     * creator's account.\n     */\n    constructor() {\n        owner = _msgSender();\n    }\n\n    /**\n     * @dev Throws if called by any account other than the owner.\n     */\n    modifier onlyOwner() {\n        require(isOwner(_msgSender()) == true);\n        _;\n    }\n\n    /**\n     * @dev returns trure is address is the contract Owner.\n     *\n     * @param _address - The address of the conntract Owner.\n     */\n    function isOwner(address _address) public view returns (bool) {\n        return (_address == owner);\n    }\n}\n",
  "sourcePath": "/Users/jesudarajeminusi/ConvexityProjs/wrapcbdc/wrap-cbdc-web3/contracts/Ownable.sol",
  "compiler": {
    "name": "solc",
    "version": "0.8.11+commit.d7f03943.Emscripten.clang"
  },
  "schemaVersion": "3.4.6",
  "updatedAt": "2022-07-05T21:33:51.527Z",
  "devdoc": {
    "details": "Owned contract - Implements a simple ownership model with 2-phase transfer functions to let the owner sets transfer the ownership control. It can transfer the ownership to a new owner through making a proposedOwner.",
    "kind": "dev",
    "methods": {
      "constructor": {
        "details": "The Owned constructor sets the original `owner` of the contract to the creator's account."
      },
      "isOwner(address)": {
        "details": "returns trure is address is the contract Owner.",
        "params": {
          "_address": "- The address of the conntract Owner."
        }
      }
    },
    "title": "Owned",
    "version": 1
  },
  "userdoc": {
    "kind": "user",
    "methods": {},
    "version": 1
  }
}