{
  "contractName": "Pausable",
  "abi": [
    {
      "anonymous": false,
      "inputs": [],
      "name": "Pause",
      "type": "event"
    },
    {
      "anonymous": false,
      "inputs": [],
      "name": "Unpause",
      "type": "event"
    },
    {
      "inputs": [
        {
          "internalType": "address",
          "name": "_address",
          "type": "address"
        }
      ],
      "name": "isOwner",
      "outputs": [
        {
          "internalType": "bool",
          "name": "",
          "type": "bool"
        }
      ],
      "stateMutability": "view",
      "type": "function"
    },
    {
      "inputs": [],
      "name": "owner",
      "outputs": [
        {
          "internalType": "address",
          "name": "",
          "type": "address"
        }
      ],
      "stateMutability": "view",
      "type": "function"
    },
    {
      "inputs": [],
      "name": "paused",
      "outputs": [
        {
          "internalType": "bool",
          "name": "",
          "type": "bool"
        }
      ],
      "stateMutability": "view",
      "type": "function"
    },
    {
      "inputs": [],
      "name": "pause",
      "outputs": [],
      "stateMutability": "nonpayable",
      "type": "function"
    },
    {
      "inputs": [],
      "name": "unpause",
      "outputs": [],
      "stateMutability": "nonpayable",
      "type": "function"
    }
  ],
  "bytecode": "0x608060405260008060146101000a81548160ff02191690831515021790555034801561002a57600080fd5b5061003961007d60201b60201c565b6000806101000a81548173ffffffffffffffffffffffffffffffffffffffff021916908373ffffffffffffffffffffffffffffffffffffffff160217905550610085565b600033905090565b6104f3806100946000396000f3fe608060405234801561001057600080fd5b50600436106100575760003560e01c80632f54bf6e1461005c5780633f4ba83a1461008c5780635c975abb146100965780638456cb59146100b45780638da5cb5b146100be575b600080fd5b61007660048036038101906100719190610347565b6100dc565b604051610083919061038f565b60405180910390f35b610094610135565b005b61009e6101ec565b6040516100ab919061038f565b60405180910390f35b6100bc6101ff565b005b6100c66102b8565b6040516100d391906103b9565b60405180910390f35b60008060009054906101000a900473ffffffffffffffffffffffffffffffffffffffff1673ffffffffffffffffffffffffffffffffffffffff168273ffffffffffffffffffffffffffffffffffffffff16149050919050565b600115156101496101446102dc565b6100dc565b15151461015557600080fd5b600060149054906101000a900460ff166101a4576040517f08c379a000000000000000000000000000000000000000000000000000000000815260040161019b90610431565b60405180910390fd5b60008060146101000a81548160ff0219169083151502179055507f7805862f689e2f13df9f062ff482ad3ad112aca9e0847911ed832e158c525b3360405160405180910390a1565b600060149054906101000a900460ff1681565b6001151561021361020e6102dc565b6100dc565b15151461021f57600080fd5b600060149054906101000a900460ff161561026f576040517f08c379a00000000000000000000000000000000000000000000000000000000081526004016102669061049d565b60405180910390fd5b6001600060146101000a81548160ff0219169083151502179055507f6985a02210a168e66602d3235cb6db0e70f92b3ba4d376a33c0f3d9434bff62560405160405180910390a1565b60008054906101000a900473ffffffffffffffffffffffffffffffffffffffff1681565b600033905090565b600080fd5b600073ffffffffffffffffffffffffffffffffffffffff82169050919050565b6000610314826102e9565b9050919050565b61032481610309565b811461032f57600080fd5b50565b6000813590506103418161031b565b92915050565b60006020828403121561035d5761035c6102e4565b5b600061036b84828501610332565b91505092915050565b60008115159050919050565b61038981610374565b82525050565b60006020820190506103a46000830184610380565b92915050565b6103b381610309565b82525050565b60006020820190506103ce60008301846103aa565b92915050565b600082825260208201905092915050565b7f53797374656d206973206e6f7420706175736564000000000000000000000000600082015250565b600061041b6014836103d4565b9150610426826103e5565b602082019050919050565b6000602082019050818103600083015261044a8161040e565b9050919050565b7f53797374656d2069732070617573656400000000000000000000000000000000600082015250565b60006104876010836103d4565b915061049282610451565b602082019050919050565b600060208201905081810360008301526104b68161047a565b905091905056fea2646970667358221220f3d876bcba5f7a8c4a33e39c3ee8f35c60fa43f8e49575b159e17506175c77f464736f6c634300080b0033",
  "immutableReferences": {},
  "source": "// SPDX-License-Identifier: MIT OR LGPL-2.0-or-later\npragma solidity ^0.8.5;\n\nimport \"./Ownable.sol\";\n\n/**\n * @title Pausable\n * @dev Base contract which allows children contracts to implement emergency stop.\n */\ncontract Pausable is Ownable {\n    event Pause();\n    event Unpause();\n\n    bool public paused = false;\n\n    /**\n     * @dev Modifier to make a function callable only when the contract is not paused.\n     */\n    modifier whenNotPaused() {\n        require(!paused, \"System is paused\");\n        _;\n    }\n\n    /**\n     * @dev Modifier to make a function callable only when the contract is paused.\n     */\n    modifier whenPaused() {\n        require(paused, \"System is not paused\");\n        _;\n    }\n\n    /**\n     * @dev called only by the owner to pause, triggers stopped state\n     */\n    function pause() public onlyOwner whenNotPaused {\n        paused = true;\n        emit Pause();\n    }\n\n    /**\n     * @dev called only by the owner to unpause,\n     * returns to normal state\n     */\n    function unpause() public onlyOwner whenPaused {\n        paused = false;\n        emit Unpause();\n    }\n}\n",
  "sourcePath": "/Users/jesudarajeminusi/ConvexityProjs/wrapcbdc/wrap-cbdc-web3/contracts/Pausable.sol",
  "compiler": {
    "name": "solc",
    "version": "0.8.11+commit.d7f03943.Emscripten.clang"
  },
  "schemaVersion": "3.4.6",
  "updatedAt": "2022-07-05T21:33:51.567Z",
  "devdoc": {
    "details": "Base contract which allows children contracts to implement emergency stop.",
    "kind": "dev",
    "methods": {
      "isOwner(address)": {
        "details": "returns trure is address is the contract Owner.",
        "params": {
          "_address": "- The address of the conntract Owner."
        }
      },
      "pause()": {
        "details": "called only by the owner to pause, triggers stopped state"
      },
      "unpause()": {
        "details": "called only by the owner to unpause, returns to normal state"
      }
    },
    "title": "Pausable",
    "version": 1
  },
  "userdoc": {
    "kind": "user",
    "methods": {},
    "version": 1
  }
}